{
	"contracts/HwERC20.sol": {
		"HwERC6093": {
			"abi": [
				{
					"inputs": [
						{
							"internalType": "string",
							"name": "_name",
							"type": "string"
						},
						{
							"internalType": "string",
							"name": "_symbol",
							"type": "string"
						},
						{
							"internalType": "uint8",
							"name": "_decimals",
							"type": "uint8"
						},
						{
							"internalType": "uint256",
							"name": "_totalSupply",
							"type": "uint256"
						},
						{
							"internalType": "uint8",
							"name": "_exchangeRate",
							"type": "uint8"
						}
					],
					"stateMutability": "nonpayable",
					"type": "constructor"
				},
				{
					"inputs": [
						{
							"internalType": "address",
							"name": "account",
							"type": "address"
						},
						{
							"internalType": "uint256",
							"name": "amount",
							"type": "uint256"
						}
					],
					"name": "CouldNotWithdraw",
					"type": "error"
				},
				{
					"inputs": [
						{
							"internalType": "address",
							"name": "spender",
							"type": "address"
						},
						{
							"internalType": "uint256",
							"name": "allowance",
							"type": "uint256"
						},
						{
							"internalType": "uint256",
							"name": "needed",
							"type": "uint256"
						}
					],
					"name": "ERC20InsufficientAllowance",
					"type": "error"
				},
				{
					"inputs": [
						{
							"internalType": "address",
							"name": "sender",
							"type": "address"
						},
						{
							"internalType": "uint256",
							"name": "balance",
							"type": "uint256"
						},
						{
							"internalType": "uint256",
							"name": "needed",
							"type": "uint256"
						}
					],
					"name": "ERC20InsufficientBalance",
					"type": "error"
				},
				{
					"inputs": [
						{
							"internalType": "address",
							"name": "approver",
							"type": "address"
						}
					],
					"name": "ERC20InvalidApprover",
					"type": "error"
				},
				{
					"inputs": [
						{
							"internalType": "address",
							"name": "receiver",
							"type": "address"
						}
					],
					"name": "ERC20InvalidReceiver",
					"type": "error"
				},
				{
					"inputs": [
						{
							"internalType": "address",
							"name": "sender",
							"type": "address"
						}
					],
					"name": "ERC20InvalidSender",
					"type": "error"
				},
				{
					"inputs": [
						{
							"internalType": "address",
							"name": "spender",
							"type": "address"
						}
					],
					"name": "ERC20InvalidSpender",
					"type": "error"
				},
				{
					"inputs": [
						{
							"internalType": "address",
							"name": "account",
							"type": "address"
						},
						{
							"internalType": "uint256",
							"name": "amount",
							"type": "uint256"
						},
						{
							"internalType": "uint256",
							"name": "balance",
							"type": "uint256"
						}
					],
					"name": "WithdrawalAmountExceedsBalance",
					"type": "error"
				},
				{
					"inputs": [
						{
							"internalType": "address",
							"name": "account",
							"type": "address"
						}
					],
					"name": "WithdrawalAmountZero",
					"type": "error"
				},
				{
					"anonymous": false,
					"inputs": [
						{
							"indexed": true,
							"internalType": "address",
							"name": "_owner",
							"type": "address"
						},
						{
							"indexed": true,
							"internalType": "address",
							"name": "_spender",
							"type": "address"
						},
						{
							"indexed": false,
							"internalType": "uint256",
							"name": "_value",
							"type": "uint256"
						}
					],
					"name": "Approval",
					"type": "event"
				},
				{
					"anonymous": false,
					"inputs": [
						{
							"indexed": true,
							"internalType": "address",
							"name": "_owner",
							"type": "address"
						},
						{
							"indexed": true,
							"internalType": "address",
							"name": "_spender",
							"type": "address"
						},
						{
							"indexed": false,
							"internalType": "uint256",
							"name": "_oldValue",
							"type": "uint256"
						},
						{
							"indexed": false,
							"internalType": "uint256",
							"name": "_value",
							"type": "uint256"
						}
					],
					"name": "Approval",
					"type": "event"
				},
				{
					"anonymous": false,
					"inputs": [
						{
							"indexed": false,
							"internalType": "address",
							"name": "_to",
							"type": "address"
						},
						{
							"indexed": false,
							"internalType": "uint256",
							"name": "_value",
							"type": "uint256"
						},
						{
							"indexed": false,
							"internalType": "uint256",
							"name": "_exchangeRate",
							"type": "uint256"
						}
					],
					"name": "Buy",
					"type": "event"
				},
				{
					"anonymous": false,
					"inputs": [
						{
							"indexed": false,
							"internalType": "uint8",
							"name": "_exchangeRate",
							"type": "uint8"
						}
					],
					"name": "SetExchangeRate",
					"type": "event"
				},
				{
					"anonymous": false,
					"inputs": [
						{
							"indexed": true,
							"internalType": "address",
							"name": "_from",
							"type": "address"
						},
						{
							"indexed": true,
							"internalType": "address",
							"name": "_to",
							"type": "address"
						},
						{
							"indexed": false,
							"internalType": "uint256",
							"name": "_value",
							"type": "uint256"
						}
					],
					"name": "Transfer",
					"type": "event"
				},
				{
					"anonymous": false,
					"inputs": [
						{
							"indexed": true,
							"internalType": "address",
							"name": "_spender",
							"type": "address"
						},
						{
							"indexed": true,
							"internalType": "address",
							"name": "_from",
							"type": "address"
						},
						{
							"indexed": true,
							"internalType": "address",
							"name": "_to",
							"type": "address"
						},
						{
							"indexed": false,
							"internalType": "uint256",
							"name": "_value",
							"type": "uint256"
						}
					],
					"name": "Transfer",
					"type": "event"
				},
				{
					"anonymous": false,
					"inputs": [
						{
							"indexed": true,
							"internalType": "address",
							"name": "account",
							"type": "address"
						},
						{
							"indexed": false,
							"internalType": "uint256",
							"name": "amount",
							"type": "uint256"
						}
					],
					"name": "Withdrawal",
					"type": "event"
				},
				{
					"inputs": [
						{
							"internalType": "address",
							"name": "owner",
							"type": "address"
						},
						{
							"internalType": "address",
							"name": "spender",
							"type": "address"
						}
					],
					"name": "allowance",
					"outputs": [
						{
							"internalType": "uint256",
							"name": "_value",
							"type": "uint256"
						}
					],
					"stateMutability": "view",
					"type": "function"
				},
				{
					"inputs": [
						{
							"internalType": "address",
							"name": "_spender",
							"type": "address"
						},
						{
							"internalType": "uint256",
							"name": "_currentValue",
							"type": "uint256"
						},
						{
							"internalType": "uint256",
							"name": "_value",
							"type": "uint256"
						}
					],
					"name": "approve",
					"outputs": [
						{
							"internalType": "bool",
							"name": "success",
							"type": "bool"
						}
					],
					"stateMutability": "nonpayable",
					"type": "function"
				},
				{
					"inputs": [
						{
							"internalType": "address",
							"name": "account",
							"type": "address"
						}
					],
					"name": "balanceOf",
					"outputs": [
						{
							"internalType": "uint256",
							"name": "balance",
							"type": "uint256"
						}
					],
					"stateMutability": "view",
					"type": "function"
				},
				{
					"inputs": [],
					"name": "buy",
					"outputs": [],
					"stateMutability": "payable",
					"type": "function"
				},
				{
					"inputs": [],
					"name": "decimals",
					"outputs": [
						{
							"internalType": "uint8",
							"name": "",
							"type": "uint8"
						}
					],
					"stateMutability": "view",
					"type": "function"
				},
				{
					"inputs": [],
					"name": "exchangeRate",
					"outputs": [
						{
							"internalType": "uint8",
							"name": "",
							"type": "uint8"
						}
					],
					"stateMutability": "view",
					"type": "function"
				},
				{
					"inputs": [],
					"name": "name",
					"outputs": [
						{
							"internalType": "string",
							"name": "",
							"type": "string"
						}
					],
					"stateMutability": "view",
					"type": "function"
				},
				{
					"inputs": [],
					"name": "ownerToken",
					"outputs": [
						{
							"internalType": "address",
							"name": "",
							"type": "address"
						}
					],
					"stateMutability": "view",
					"type": "function"
				},
				{
					"inputs": [
						{
							"internalType": "uint8",
							"name": "_exchangeRate",
							"type": "uint8"
						}
					],
					"name": "setExchangeRate",
					"outputs": [
						{
							"internalType": "bool",
							"name": "success",
							"type": "bool"
						}
					],
					"stateMutability": "nonpayable",
					"type": "function"
				},
				{
					"inputs": [],
					"name": "symbol",
					"outputs": [
						{
							"internalType": "string",
							"name": "",
							"type": "string"
						}
					],
					"stateMutability": "view",
					"type": "function"
				},
				{
					"inputs": [],
					"name": "totalSupply",
					"outputs": [
						{
							"internalType": "uint256",
							"name": "",
							"type": "uint256"
						}
					],
					"stateMutability": "view",
					"type": "function"
				},
				{
					"inputs": [
						{
							"internalType": "address",
							"name": "_to",
							"type": "address"
						},
						{
							"internalType": "uint256",
							"name": "_value",
							"type": "uint256"
						}
					],
					"name": "transfer",
					"outputs": [
						{
							"internalType": "bool",
							"name": "success",
							"type": "bool"
						}
					],
					"stateMutability": "nonpayable",
					"type": "function"
				},
				{
					"inputs": [
						{
							"internalType": "address",
							"name": "_from",
							"type": "address"
						},
						{
							"internalType": "address",
							"name": "_to",
							"type": "address"
						},
						{
							"internalType": "uint256",
							"name": "_value",
							"type": "uint256"
						}
					],
					"name": "transferFrom",
					"outputs": [
						{
							"internalType": "bool",
							"name": "success",
							"type": "bool"
						}
					],
					"stateMutability": "nonpayable",
					"type": "function"
				},
				{
					"inputs": [
						{
							"internalType": "uint256",
							"name": "amount",
							"type": "uint256"
						}
					],
					"name": "withdraw",
					"outputs": [],
					"stateMutability": "nonpayable",
					"type": "function"
				},
				{
					"stateMutability": "payable",
					"type": "receive"
				}
			],
			"devdoc": {
				"errors": {
					"CouldNotWithdraw(address,uint256)": [
						{
							"details": "Генерируется, когда не удалось отправить средств на аккаунт ",
							"params": {
								"account": "Адрес аккаунта, который пытался снять средства.",
								"amount": "Сумма, которую пытались снять."
							}
						}
					],
					"ERC20InsufficientAllowance(address,uint256,uint256)": [
						{
							"details": "Генерируется, когда допустимый разрешенный остаток к снятию превышает запрашиваемый на перевод.",
							"params": {
								"allowance": "Текущий остаток допустимый к снятию.",
								"needed": "Сумма, которую пытались снять.",
								"spender": "Адрес аккаунта, который пытался снять средства."
							}
						}
					],
					"ERC20InsufficientBalance(address,uint256,uint256)": [
						{
							"details": "Генерируется, когда сумма снятия превышает баланс счёта.",
							"params": {
								"balance": "Текущий остаток.",
								"needed": "Сумма, которую пытались снять.",
								"sender": "Адрес аккаунта, c которого пытались снять средства."
							}
						}
					],
					"ERC20InvalidApprover(address)": [
						{
							"details": "Генерируется при нулевом адресе донора",
							"params": {
								"approver": "Адрес донор."
							}
						}
					],
					"ERC20InvalidReceiver(address)": [
						{
							"details": "Генерируется при нулевом адресе отправителе",
							"params": {
								"receiver": "Адрес получатель средств."
							}
						}
					],
					"ERC20InvalidSender(address)": [
						{
							"details": "Генерируется при нулевом адресе отправителе",
							"params": {
								"sender": "Адрес отправитель средств."
							}
						}
					],
					"ERC20InvalidSpender(address)": [
						{
							"details": "Генерируется при попытке дать разрешение нулевому адресу или владельцу",
							"params": {
								"spender": "Адрес получатель."
							}
						}
					],
					"WithdrawalAmountExceedsBalance(address,uint256,uint256)": [
						{
							"details": "Генерируется, когда сумма снятия превышает баланс счёта.",
							"params": {
								"account": "Адрес аккаунта, который пытался снять средства.",
								"amount": "Сумма, которую пытались снять.",
								"balance": "Текущий баланс контракта."
							}
						}
					],
					"WithdrawalAmountZero(address)": [
						{
							"details": "Генерируется, когда пытаются снять нулевую сумму.",
							"params": {
								"account": "Адрес аккаунта, который пытался снять средства."
							}
						}
					]
				},
				"events": {
					"Approval(address,address,uint256)": {
						"details": "Генерируется при установке разрешения донорства..",
						"params": {
							"_owner": "Адрес донор.",
							"_spender": "Адрес реципиент.",
							"_value": "Допустимое к снятию количество."
						}
					},
					"Approval(address,address,uint256,uint256)": {
						"details": "Генерируется при установке разрешения донорства.",
						"params": {
							"_oldValue": "Старый остаток допустимый к снятию.",
							"_owner": "Адрес донор.",
							"_spender": "Адрес реципиент.",
							"_value": "Допустимое к снятию количество."
						}
					},
					"Buy(address,uint256,uint256)": {
						"details": "Генерируется при покупке новых токенов.",
						"params": {
							"_exchangeRate": "Курс покупки.",
							"_to": "Адрес кто купил.",
							"_value": "Количество токенов."
						}
					},
					"SetExchangeRate(uint8)": {
						"details": "Генерируется при установке нового курса.",
						"params": {
							"_exchangeRate": "новый курс к eth."
						}
					},
					"Transfer(address,address,address,uint256)": {
						"details": "Генерируется при переводе токенов методом transferFrom.",
						"params": {
							"_from": "Адрес отправитель средств.",
							"_spender": "Адрес реципиент.",
							"_to": "Адрес получатель средств.",
							"_value": "Переводимое количество."
						}
					},
					"Transfer(address,address,uint256)": {
						"details": "Генерируется при переводе токенов.",
						"params": {
							"_from": "Адрес отправитель средств.",
							"_to": "Адрес получатель средств.",
							"_value": "Переводимое количество."
						}
					},
					"Withdrawal(address,uint256)": {
						"details": "Генерируется, когда владелец выводит со счёта контракта средства.",
						"params": {
							"account": "Адрес на котороый переводятся средства.",
							"amount": "Сумма, которая была снята."
						}
					}
				},
				"kind": "dev",
				"methods": {
					"approve(address,uint256,uint256)": {
						"details": "Дает разрешение стороннему адресу снимать средства со счета владельца несколько раз, вплоть до указанной суммы.",
						"params": {
							"_currentValue": "Текущий остаток допустимый к снятию.",
							"_spender": "Адрес реципиент.",
							"_value": "Допустимое к снятию количество."
						}
					},
					"buy()": {
						"details": "Покупка токенов."
					},
					"setExchangeRate(uint8)": {
						"details": "Устанавливает новый курс, доступно только владельцу контракта.",
						"params": {
							"_exchangeRate": "новый курс к eth."
						}
					},
					"transfer(address,uint256)": {
						"details": "Переводит сумму токенов на указанный адрес.",
						"params": {
							"_to": "Адрес получатель средств.",
							"_value": "Переводимое количество."
						}
					},
					"transferFrom(address,address,uint256)": {
						"details": "Переводит количество токенов с адреса на адрес.",
						"params": {
							"_from": "Адрес отправитель средств.",
							"_to": "Адрес получатель средств.",
							"_value": "Переводимое количество."
						}
					},
					"withdraw(uint256)": {
						"details": "Снимает средства со счёта. Доступно только владельцу контракта.",
						"params": {
							"amount": "Сумма, которую нужно снять."
						}
					}
				},
				"stateVariables": {
					"allowance": {
						"details": "Возвращает сумму, которая доступна к снятию реципиентом у донора.",
						"params": {
							"_owner": "Адрес донор.",
							"_spender": "Адрес реципиент."
						}
					},
					"balanceOf": {
						"details": "Возвращает остаток на счете.",
						"params": {
							"_owner": "Адрес, баланс которого нужно проверить."
						}
					},
					"decimals": {
						"details": "Возвращает количество десятичных знаков, используемых токеном. "
					},
					"exchangeRate": {
						"details": "Возвращает текущий курс к eth. "
					},
					"name": {
						"details": "Возвращает имя токена. "
					},
					"ownerToken": {
						"details": "Возвращает владельца. "
					},
					"symbol": {
						"details": "Возвращает тикер токена."
					},
					"totalSupply": {
						"details": "Возвращает общее количество токенов. "
					}
				},
				"version": 1
			},
			"evm": {
				"assembly": "    /* \"contracts/HwERC20.sol\":103:4196  contract HwERC6093 is IHwERC6093{ ... */\n  mstore(0x40, 0x80)\n    /* \"contracts/HwERC20.sol\":557:944  constructor(... */\n  callvalue\n  dup1\n  iszero\n  tag_1\n  jumpi\n  revert(0x00, 0x00)\ntag_1:\n  pop\n  mload(0x40)\n  sub(codesize, bytecodeSize)\n  dup1\n  bytecodeSize\n  dup4\n  codecopy\n  dup2\n  add\n  0x40\n  dup2\n  swap1\n  mstore\n  tag_2\n  swap2\n  tag_3\n  jump\t// in\ntag_2:\n    /* \"contracts/HwERC20.sol\":736:740  name */\n  0x00\n    /* \"contracts/HwERC20.sol\":736:748  name = _name */\n  tag_6\n    /* \"contracts/HwERC20.sol\":743:748  _name */\n  dup7\n    /* \"contracts/HwERC20.sol\":736:740  name */\n  dup3\n    /* \"contracts/HwERC20.sol\":736:748  name = _name */\n  tag_7\n  jump\t// in\ntag_6:\n  pop\n    /* \"contracts/HwERC20.sol\":759:765  symbol */\n  0x01\n    /* \"contracts/HwERC20.sol\":759:775  symbol = _symbol */\n  tag_8\n    /* \"contracts/HwERC20.sol\":768:775  _symbol */\n  dup6\n    /* \"contracts/HwERC20.sol\":759:765  symbol */\n  dup3\n    /* \"contracts/HwERC20.sol\":759:775  symbol = _symbol */\n  tag_7\n  jump\t// in\ntag_8:\n  pop\n    /* \"contracts/HwERC20.sol\":786:794  decimals */\n  0x02\n    /* \"contracts/HwERC20.sol\":786:806  decimals = _decimals */\n  dup1\n  sload\n  not(0xff)\n  and\n  0xff\n  dup6\n  and\n  or\n  swap1\n  sstore\n    /* \"contracts/HwERC20.sol\":847:862  10 ** _decimals */\n  tag_9\n    /* \"contracts/HwERC20.sol\":786:806  decimals = _decimals */\n  dup4\n    /* \"contracts/HwERC20.sol\":847:849  10 */\n  0x0a\n    /* \"contracts/HwERC20.sol\":847:862  10 ** _decimals */\n  tag_10\n  jump\t// in\ntag_9:\n    /* \"contracts/HwERC20.sol\":831:863  _totalSupply * (10 ** _decimals) */\n  tag_11\n  swap1\n    /* \"contracts/HwERC20.sol\":831:843  _totalSupply */\n  dup4\n    /* \"contracts/HwERC20.sol\":831:863  _totalSupply * (10 ** _decimals) */\n  tag_12\n  jump\t// in\ntag_11:\n    /* \"contracts/HwERC20.sol\":817:828  totalSupply */\n  0x03\n    /* \"contracts/HwERC20.sol\":817:863  totalSupply = _totalSupply * (10 ** _decimals) */\n  sstore\n    /* \"contracts/HwERC20.sol\":874:886  exchangeRate */\n  0x04\n    /* \"contracts/HwERC20.sol\":874:902  exchangeRate = _exchangeRate */\n  dup1\n  sload\n  0xff\n  swap3\n  swap1\n  swap3\n  and\n  not(sub(shl(0xa8, 0x01), 0x01))\n    /* \"contracts/HwERC20.sol\":913:936  ownerToken = msg.sender */\n  swap1\n  swap3\n  and\n  swap2\n  swap1\n  swap2\n  or\n    /* \"contracts/HwERC20.sol\":874:902  exchangeRate = _exchangeRate */\n  0x0100\n    /* \"contracts/HwERC20.sol\":926:936  msg.sender */\n  caller\n    /* \"contracts/HwERC20.sol\":913:936  ownerToken = msg.sender */\n  mul\n  or\n  swap1\n  sstore\n  pop\n    /* \"contracts/HwERC20.sol\":103:4196  contract HwERC6093 is IHwERC6093{ ... */\n  tag_24\n  swap3\n  pop\n  pop\n  pop\n  jump\n    /* \"#utility.yul\":14:141   */\ntag_14:\n    /* \"#utility.yul\":75:85   */\n  0x4e487b71\n    /* \"#utility.yul\":70:73   */\n  0xe0\n    /* \"#utility.yul\":66:86   */\n  shl\n    /* \"#utility.yul\":63:64   */\n  0x00\n    /* \"#utility.yul\":56:87   */\n  mstore\n    /* \"#utility.yul\":106:110   */\n  0x41\n    /* \"#utility.yul\":103:104   */\n  0x04\n    /* \"#utility.yul\":96:111   */\n  mstore\n    /* \"#utility.yul\":130:134   */\n  0x24\n    /* \"#utility.yul\":127:128   */\n  0x00\n    /* \"#utility.yul\":120:135   */\n  revert\n    /* \"#utility.yul\":146:869   */\ntag_15:\n    /* \"#utility.yul\":200:205   */\n  0x00\n    /* \"#utility.yul\":253:256   */\n  dup3\n    /* \"#utility.yul\":246:250   */\n  0x1f\n    /* \"#utility.yul\":238:244   */\n  dup4\n    /* \"#utility.yul\":234:251   */\n  add\n    /* \"#utility.yul\":230:257   */\n  slt\n    /* \"#utility.yul\":220:275   */\n  tag_27\n  jumpi\n    /* \"#utility.yul\":271:272   */\n  0x00\n    /* \"#utility.yul\":268:269   */\n  0x00\n    /* \"#utility.yul\":261:273   */\n  revert\n    /* \"#utility.yul\":220:275   */\ntag_27:\n    /* \"#utility.yul\":298:311   */\n  dup2\n  mload\n  sub(shl(0x40, 0x01), 0x01)\n    /* \"#utility.yul\":323:353   */\n  dup2\n  gt\n    /* \"#utility.yul\":320:376   */\n  iszero\n  tag_29\n  jumpi\n    /* \"#utility.yul\":356:374   */\n  tag_29\n  tag_14\n  jump\t// in\ntag_29:\n    /* \"#utility.yul\":405:407   */\n  0x40\n    /* \"#utility.yul\":399:408   */\n  mload\n    /* \"#utility.yul\":497:499   */\n  0x1f\n    /* \"#utility.yul\":459:476   */\n  dup3\n  add\n  not(0x1f)\n    /* \"#utility.yul\":455:486   */\n  swap1\n  dup2\n  and\n    /* \"#utility.yul\":488:490   */\n  0x3f\n    /* \"#utility.yul\":451:491   */\n  add\n    /* \"#utility.yul\":447:501   */\n  and\n    /* \"#utility.yul\":435:502   */\n  dup2\n  add\n  sub(shl(0x40, 0x01), 0x01)\n    /* \"#utility.yul\":517:551   */\n  dup2\n  gt\n    /* \"#utility.yul\":553:575   */\n  dup3\n  dup3\n  lt\n    /* \"#utility.yul\":514:576   */\n  or\n    /* \"#utility.yul\":511:599   */\n  iszero\n  tag_31\n  jumpi\n    /* \"#utility.yul\":579:597   */\n  tag_31\n  tag_14\n  jump\t// in\ntag_31:\n    /* \"#utility.yul\":615:617   */\n  0x40\n    /* \"#utility.yul\":608:630   */\n  mstore\n    /* \"#utility.yul\":639:661   */\n  dup2\n  dup2\n  mstore\n    /* \"#utility.yul\":680:699   */\n  dup4\n  dup3\n  add\n    /* \"#utility.yul\":701:705   */\n  0x20\n    /* \"#utility.yul\":676:706   */\n  add\n    /* \"#utility.yul\":673:712   */\n  dup6\n  lt\n    /* \"#utility.yul\":670:729   */\n  iszero\n  tag_32\n  jumpi\n    /* \"#utility.yul\":725:726   */\n  0x00\n    /* \"#utility.yul\":722:723   */\n  0x00\n    /* \"#utility.yul\":715:727   */\n  revert\n    /* \"#utility.yul\":670:729   */\ntag_32:\n    /* \"#utility.yul\":782:788   */\n  dup2\n    /* \"#utility.yul\":775:779   */\n  0x20\n    /* \"#utility.yul\":767:773   */\n  dup6\n    /* \"#utility.yul\":763:780   */\n  add\n    /* \"#utility.yul\":756:760   */\n  0x20\n    /* \"#utility.yul\":748:754   */\n  dup4\n    /* \"#utility.yul\":744:761   */\n  add\n    /* \"#utility.yul\":738:789   */\n  mcopy\n    /* \"#utility.yul\":837:838   */\n  0x00\n    /* \"#utility.yul\":809:828   */\n  swap2\n  dup2\n  add\n    /* \"#utility.yul\":830:834   */\n  0x20\n    /* \"#utility.yul\":805:835   */\n  add\n    /* \"#utility.yul\":798:839   */\n  swap2\n  swap1\n  swap2\n  mstore\n    /* \"#utility.yul\":813:819   */\n  swap4\n    /* \"#utility.yul\":146:869   */\n  swap3\n  pop\n  pop\n  pop\n  jump\t// out\n    /* \"#utility.yul\":874:1034   */\ntag_16:\n    /* \"#utility.yul\":951:964   */\n  dup1\n  mload\n    /* \"#utility.yul\":1004:1008   */\n  0xff\n    /* \"#utility.yul\":993:1009   */\n  dup2\n  and\n    /* \"#utility.yul\":983:1010   */\n  dup2\n  eq\n    /* \"#utility.yul\":973:1028   */\n  tag_34\n  jumpi\n    /* \"#utility.yul\":1024:1025   */\n  0x00\n    /* \"#utility.yul\":1021:1022   */\n  0x00\n    /* \"#utility.yul\":1014:1026   */\n  revert\n    /* \"#utility.yul\":973:1028   */\ntag_34:\n    /* \"#utility.yul\":874:1034   */\n  swap2\n  swap1\n  pop\n  jump\t// out\n    /* \"#utility.yul\":1039:1821   */\ntag_3:\n    /* \"#utility.yul\":1161:1167   */\n  0x00\n    /* \"#utility.yul\":1169:1175   */\n  0x00\n    /* \"#utility.yul\":1177:1183   */\n  0x00\n    /* \"#utility.yul\":1185:1191   */\n  0x00\n    /* \"#utility.yul\":1193:1199   */\n  0x00\n    /* \"#utility.yul\":1246:1249   */\n  0xa0\n    /* \"#utility.yul\":1234:1243   */\n  dup7\n    /* \"#utility.yul\":1225:1232   */\n  dup9\n    /* \"#utility.yul\":1221:1244   */\n  sub\n    /* \"#utility.yul\":1217:1250   */\n  slt\n    /* \"#utility.yul\":1214:1267   */\n  iszero\n  tag_36\n  jumpi\n    /* \"#utility.yul\":1263:1264   */\n  0x00\n    /* \"#utility.yul\":1260:1261   */\n  0x00\n    /* \"#utility.yul\":1253:1265   */\n  revert\n    /* \"#utility.yul\":1214:1267   */\ntag_36:\n    /* \"#utility.yul\":1290:1306   */\n  dup6\n  mload\n  sub(shl(0x40, 0x01), 0x01)\n    /* \"#utility.yul\":1318:1348   */\n  dup2\n  gt\n    /* \"#utility.yul\":1315:1365   */\n  iszero\n  tag_37\n  jumpi\n    /* \"#utility.yul\":1361:1362   */\n  0x00\n    /* \"#utility.yul\":1358:1359   */\n  0x00\n    /* \"#utility.yul\":1351:1363   */\n  revert\n    /* \"#utility.yul\":1315:1365   */\ntag_37:\n    /* \"#utility.yul\":1384:1445   */\n  tag_38\n    /* \"#utility.yul\":1437:1444   */\n  dup9\n    /* \"#utility.yul\":1428:1434   */\n  dup3\n    /* \"#utility.yul\":1417:1426   */\n  dup10\n    /* \"#utility.yul\":1413:1435   */\n  add\n    /* \"#utility.yul\":1384:1445   */\n  tag_15\n  jump\t// in\ntag_38:\n    /* \"#utility.yul\":1491:1493   */\n  0x20\n    /* \"#utility.yul\":1476:1494   */\n  dup9\n  add\n    /* \"#utility.yul\":1470:1495   */\n  mload\n    /* \"#utility.yul\":1374:1445   */\n  swap1\n  swap7\n  pop\n    /* \"#utility.yul\":1470:1495   */\n  swap1\n  pop\n  sub(shl(0x40, 0x01), 0x01)\n    /* \"#utility.yul\":1507:1539   */\n  dup2\n  gt\n    /* \"#utility.yul\":1504:1556   */\n  iszero\n  tag_39\n  jumpi\n    /* \"#utility.yul\":1552:1553   */\n  0x00\n    /* \"#utility.yul\":1549:1550   */\n  0x00\n    /* \"#utility.yul\":1542:1554   */\n  revert\n    /* \"#utility.yul\":1504:1556   */\ntag_39:\n    /* \"#utility.yul\":1575:1638   */\n  tag_40\n    /* \"#utility.yul\":1630:1637   */\n  dup9\n    /* \"#utility.yul\":1619:1627   */\n  dup3\n    /* \"#utility.yul\":1608:1617   */\n  dup10\n    /* \"#utility.yul\":1604:1628   */\n  add\n    /* \"#utility.yul\":1575:1638   */\n  tag_15\n  jump\t// in\ntag_40:\n    /* \"#utility.yul\":1565:1638   */\n  swap5\n  pop\n  pop\n    /* \"#utility.yul\":1657:1704   */\n  tag_41\n    /* \"#utility.yul\":1700:1702   */\n  0x40\n    /* \"#utility.yul\":1689:1698   */\n  dup8\n    /* \"#utility.yul\":1685:1703   */\n  add\n    /* \"#utility.yul\":1657:1704   */\n  tag_16\n  jump\t// in\ntag_41:\n    /* \"#utility.yul\":1647:1704   */\n  swap3\n  pop\n    /* \"#utility.yul\":1744:1746   */\n  0x60\n    /* \"#utility.yul\":1733:1742   */\n  dup7\n    /* \"#utility.yul\":1729:1747   */\n  add\n    /* \"#utility.yul\":1723:1748   */\n  mload\n    /* \"#utility.yul\":1713:1748   */\n  swap2\n  pop\n    /* \"#utility.yul\":1767:1815   */\n  tag_42\n    /* \"#utility.yul\":1810:1813   */\n  0x80\n    /* \"#utility.yul\":1799:1808   */\n  dup8\n    /* \"#utility.yul\":1795:1814   */\n  add\n    /* \"#utility.yul\":1767:1815   */\n  tag_16\n  jump\t// in\ntag_42:\n    /* \"#utility.yul\":1757:1815   */\n  swap1\n  pop\n    /* \"#utility.yul\":1039:1821   */\n  swap3\n  swap6\n  pop\n  swap3\n  swap6\n  swap1\n  swap4\n  pop\n  jump\t// out\n    /* \"#utility.yul\":1826:2206   */\ntag_17:\n    /* \"#utility.yul\":1905:1906   */\n  0x01\n    /* \"#utility.yul\":1901:1913   */\n  dup2\n  dup2\n  shr\n  swap1\n    /* \"#utility.yul\":1948:1960   */\n  dup3\n  and\n  dup1\n    /* \"#utility.yul\":1969:2030   */\n  tag_44\n  jumpi\n    /* \"#utility.yul\":2023:2027   */\n  0x7f\n    /* \"#utility.yul\":2015:2021   */\n  dup3\n    /* \"#utility.yul\":2011:2028   */\n  and\n    /* \"#utility.yul\":2001:2028   */\n  swap2\n  pop\n    /* \"#utility.yul\":1969:2030   */\ntag_44:\n    /* \"#utility.yul\":2076:2078   */\n  0x20\n    /* \"#utility.yul\":2068:2074   */\n  dup3\n    /* \"#utility.yul\":2065:2079   */\n  lt\n    /* \"#utility.yul\":2045:2063   */\n  dup2\n    /* \"#utility.yul\":2042:2080   */\n  sub\n    /* \"#utility.yul\":2039:2200   */\n  tag_45\n  jumpi\n    /* \"#utility.yul\":2122:2132   */\n  0x4e487b71\n    /* \"#utility.yul\":2117:2120   */\n  0xe0\n    /* \"#utility.yul\":2113:2133   */\n  shl\n    /* \"#utility.yul\":2110:2111   */\n  0x00\n    /* \"#utility.yul\":2103:2134   */\n  mstore\n    /* \"#utility.yul\":2157:2161   */\n  0x22\n    /* \"#utility.yul\":2154:2155   */\n  0x04\n    /* \"#utility.yul\":2147:2162   */\n  mstore\n    /* \"#utility.yul\":2185:2189   */\n  0x24\n    /* \"#utility.yul\":2182:2183   */\n  0x00\n    /* \"#utility.yul\":2175:2190   */\n  revert\n    /* \"#utility.yul\":2039:2200   */\ntag_45:\n  pop\n    /* \"#utility.yul\":1826:2206   */\n  swap2\n  swap1\n  pop\n  jump\t// out\n    /* \"#utility.yul\":2337:2855   */\ntag_19:\n    /* \"#utility.yul\":2439:2441   */\n  0x1f\n    /* \"#utility.yul\":2434:2437   */\n  dup3\n    /* \"#utility.yul\":2431:2442   */\n  gt\n    /* \"#utility.yul\":2428:2849   */\n  iszero\n  tag_48\n  jumpi\n    /* \"#utility.yul\":2475:2480   */\n  dup1\n    /* \"#utility.yul\":2472:2473   */\n  0x00\n    /* \"#utility.yul\":2465:2481   */\n  mstore\n    /* \"#utility.yul\":2519:2523   */\n  0x20\n    /* \"#utility.yul\":2516:2517   */\n  0x00\n    /* \"#utility.yul\":2506:2524   */\n  keccak256\n    /* \"#utility.yul\":2589:2591   */\n  0x1f\n    /* \"#utility.yul\":2577:2587   */\n  dup5\n    /* \"#utility.yul\":2573:2592   */\n  add\n    /* \"#utility.yul\":2570:2571   */\n  0x05\n    /* \"#utility.yul\":2566:2593   */\n  shr\n    /* \"#utility.yul\":2560:2564   */\n  dup2\n    /* \"#utility.yul\":2556:2594   */\n  add\n    /* \"#utility.yul\":2625:2629   */\n  0x20\n    /* \"#utility.yul\":2613:2623   */\n  dup6\n    /* \"#utility.yul\":2610:2630   */\n  lt\n    /* \"#utility.yul\":2607:2654   */\n  iszero\n  tag_49\n  jumpi\n  pop\n    /* \"#utility.yul\":2648:2652   */\n  dup1\n    /* \"#utility.yul\":2607:2654   */\ntag_49:\n    /* \"#utility.yul\":2703:2705   */\n  0x1f\n    /* \"#utility.yul\":2698:2701   */\n  dup5\n    /* \"#utility.yul\":2694:2706   */\n  add\n    /* \"#utility.yul\":2691:2692   */\n  0x05\n    /* \"#utility.yul\":2687:2707   */\n  shr\n    /* \"#utility.yul\":2681:2685   */\n  dup3\n    /* \"#utility.yul\":2677:2708   */\n  add\n    /* \"#utility.yul\":2667:2708   */\n  swap2\n  pop\n    /* \"#utility.yul\":2758:2839   */\ntag_50:\n    /* \"#utility.yul\":2776:2778   */\n  dup2\n    /* \"#utility.yul\":2769:2774   */\n  dup2\n    /* \"#utility.yul\":2766:2779   */\n  lt\n    /* \"#utility.yul\":2758:2839   */\n  iszero\n  tag_52\n  jumpi\n    /* \"#utility.yul\":2835:2836   */\n  0x00\n    /* \"#utility.yul\":2821:2837   */\n  dup2\n  sstore\n    /* \"#utility.yul\":2802:2803   */\n  0x01\n    /* \"#utility.yul\":2791:2804   */\n  add\n    /* \"#utility.yul\":2758:2839   */\n  jump(tag_50)\ntag_52:\n    /* \"#utility.yul\":2762:2765   */\n  pop\n  pop\n    /* \"#utility.yul\":2428:2849   */\ntag_48:\n    /* \"#utility.yul\":2337:2855   */\n  pop\n  pop\n  pop\n  jump\t// out\n    /* \"#utility.yul\":3031:4330   */\ntag_7:\n    /* \"#utility.yul\":3151:3161   */\n  dup2\n  mload\n  sub(shl(0x40, 0x01), 0x01)\n    /* \"#utility.yul\":3173:3203   */\n  dup2\n  gt\n    /* \"#utility.yul\":3170:3226   */\n  iszero\n  tag_56\n  jumpi\n    /* \"#utility.yul\":3206:3224   */\n  tag_56\n  tag_14\n  jump\t// in\ntag_56:\n    /* \"#utility.yul\":3235:3332   */\n  tag_57\n    /* \"#utility.yul\":3325:3331   */\n  dup2\n    /* \"#utility.yul\":3285:3323   */\n  tag_58\n    /* \"#utility.yul\":3317:3321   */\n  dup5\n    /* \"#utility.yul\":3311:3322   */\n  sload\n    /* \"#utility.yul\":3285:3323   */\n  tag_17\n  jump\t// in\ntag_58:\n    /* \"#utility.yul\":3279:3283   */\n  dup5\n    /* \"#utility.yul\":3235:3332   */\n  tag_19\n  jump\t// in\ntag_57:\n    /* \"#utility.yul\":3381:3385   */\n  0x20\n    /* \"#utility.yul\":3412:3414   */\n  0x1f\n    /* \"#utility.yul\":3401:3415   */\n  dup3\n  gt\n    /* \"#utility.yul\":3429:3430   */\n  0x01\n    /* \"#utility.yul\":3424:4073   */\n  dup2\n  eq\n  tag_60\n  jumpi\n    /* \"#utility.yul\":4117:4118   */\n  0x00\n    /* \"#utility.yul\":4134:4140   */\n  dup4\n    /* \"#utility.yul\":4131:4220   */\n  iszero\n  tag_61\n  jumpi\n  pop\n    /* \"#utility.yul\":4186:4205   */\n  dup5\n  dup3\n  add\n    /* \"#utility.yul\":4180:4206   */\n  mload\n    /* \"#utility.yul\":4131:4220   */\ntag_61:\n  not(0x00)\n    /* \"#utility.yul\":2988:2989   */\n  0x03\n    /* \"#utility.yul\":2984:2995   */\n  dup6\n  swap1\n  shl\n    /* \"#utility.yul\":2980:3004   */\n  shr\n    /* \"#utility.yul\":2976:3005   */\n  not\n    /* \"#utility.yul\":2966:3006   */\n  and\n    /* \"#utility.yul\":3012:3013   */\n  0x01\n    /* \"#utility.yul\":3008:3019   */\n  dup5\n  swap1\n  shl\n    /* \"#utility.yul\":2963:3020   */\n  or\n    /* \"#utility.yul\":4233:4314   */\n  dup5\n  sstore\n    /* \"#utility.yul\":3394:4324   */\n  jump(tag_52)\n    /* \"#utility.yul\":3424:4073   */\ntag_60:\n    /* \"#utility.yul\":2284:2285   */\n  0x00\n    /* \"#utility.yul\":2277:2291   */\n  dup5\n  dup2\n  mstore\n    /* \"#utility.yul\":2321:2325   */\n  0x20\n    /* \"#utility.yul\":2308:2326   */\n  dup2\n  keccak256\n  not(0x1f)\n    /* \"#utility.yul\":3460:3480   */\n  dup6\n  and\n  swap2\n    /* \"#utility.yul\":3578:3800   */\ntag_64:\n    /* \"#utility.yul\":3592:3599   */\n  dup3\n    /* \"#utility.yul\":3589:3590   */\n  dup2\n    /* \"#utility.yul\":3586:3600   */\n  lt\n    /* \"#utility.yul\":3578:3800   */\n  iszero\n  tag_66\n  jumpi\n    /* \"#utility.yul\":3674:3693   */\n  dup8\n  dup6\n  add\n    /* \"#utility.yul\":3668:3694   */\n  mload\n    /* \"#utility.yul\":3653:3695   */\n  dup3\n  sstore\n    /* \"#utility.yul\":3781:3785   */\n  0x20\n    /* \"#utility.yul\":3766:3786   */\n  swap5\n  dup6\n  add\n  swap5\n    /* \"#utility.yul\":3734:3735   */\n  0x01\n    /* \"#utility.yul\":3722:3736   */\n  swap1\n  swap3\n  add\n  swap2\n    /* \"#utility.yul\":3608:3620   */\n  add\n    /* \"#utility.yul\":3578:3800   */\n  jump(tag_64)\ntag_66:\n    /* \"#utility.yul\":3582:3585   */\n  pop\n    /* \"#utility.yul\":3828:3834   */\n  dup5\n    /* \"#utility.yul\":3819:3826   */\n  dup3\n    /* \"#utility.yul\":3816:3835   */\n  lt\n    /* \"#utility.yul\":3813:4014   */\n  iszero\n  tag_67\n  jumpi\n    /* \"#utility.yul\":3889:3908   */\n  dup7\n  dup5\n  add\n    /* \"#utility.yul\":3883:3909   */\n  mload\n  not(0x00)\n    /* \"#utility.yul\":3972:3973   */\n  0x03\n    /* \"#utility.yul\":3968:3982   */\n  dup8\n  swap1\n  shl\n    /* \"#utility.yul\":3984:3987   */\n  0xf8\n    /* \"#utility.yul\":3964:3988   */\n  and\n    /* \"#utility.yul\":3960:3997   */\n  shr\n    /* \"#utility.yul\":3956:3998   */\n  not\n    /* \"#utility.yul\":3941:3999   */\n  and\n    /* \"#utility.yul\":3926:4000   */\n  dup2\n  sstore\n    /* \"#utility.yul\":3813:4014   */\ntag_67:\n  pop\n  pop\n  pop\n  pop\n    /* \"#utility.yul\":4060:4061   */\n  0x01\n    /* \"#utility.yul\":4044:4058   */\n  swap1\n  dup2\n  shl\n    /* \"#utility.yul\":4040:4062   */\n  add\n    /* \"#utility.yul\":4027:4063   */\n  swap1\n  sstore\n  pop\n    /* \"#utility.yul\":3031:4330   */\n  jump\t// out\n    /* \"#utility.yul\":4335:4462   */\ntag_21:\n    /* \"#utility.yul\":4396:4406   */\n  0x4e487b71\n    /* \"#utility.yul\":4391:4394   */\n  0xe0\n    /* \"#utility.yul\":4387:4407   */\n  shl\n    /* \"#utility.yul\":4384:4385   */\n  0x00\n    /* \"#utility.yul\":4377:4408   */\n  mstore\n    /* \"#utility.yul\":4427:4431   */\n  0x11\n    /* \"#utility.yul\":4424:4425   */\n  0x04\n    /* \"#utility.yul\":4417:4432   */\n  mstore\n    /* \"#utility.yul\":4451:4455   */\n  0x24\n    /* \"#utility.yul\":4448:4449   */\n  0x00\n    /* \"#utility.yul\":4441:4456   */\n  revert\n    /* \"#utility.yul\":4467:4842   */\ntag_22:\n    /* \"#utility.yul\":4555:4556   */\n  0x01\n    /* \"#utility.yul\":4573:4578   */\n  dup2\n    /* \"#utility.yul\":4587:4836   */\ntag_70:\n    /* \"#utility.yul\":4608:4609   */\n  0x01\n    /* \"#utility.yul\":4598:4606   */\n  dup5\n    /* \"#utility.yul\":4595:4610   */\n  gt\n    /* \"#utility.yul\":4587:4836   */\n  iszero\n  tag_72\n  jumpi\n    /* \"#utility.yul\":4658:4662   */\n  dup1\n    /* \"#utility.yul\":4653:4656   */\n  dup6\n    /* \"#utility.yul\":4649:4663   */\n  div\n    /* \"#utility.yul\":4643:4647   */\n  dup2\n    /* \"#utility.yul\":4640:4664   */\n  gt\n    /* \"#utility.yul\":4637:4687   */\n  iszero\n  tag_74\n  jumpi\n    /* \"#utility.yul\":4667:4685   */\n  tag_74\n  tag_21\n  jump\t// in\ntag_74:\n    /* \"#utility.yul\":4717:4718   */\n  0x01\n    /* \"#utility.yul\":4707:4715   */\n  dup5\n    /* \"#utility.yul\":4703:4719   */\n  and\n    /* \"#utility.yul\":4700:4749   */\n  iszero\n  tag_75\n  jumpi\n    /* \"#utility.yul\":4731:4747   */\n  swap1\n  dup2\n  mul\n  swap1\n    /* \"#utility.yul\":4700:4749   */\ntag_75:\n    /* \"#utility.yul\":4814:4815   */\n  0x01\n    /* \"#utility.yul\":4810:4826   */\n  swap4\n  swap1\n  swap4\n  shr\n  swap3\n    /* \"#utility.yul\":4770:4785   */\n  dup1\n  mul\n    /* \"#utility.yul\":4587:4836   */\n  jump(tag_70)\ntag_72:\n    /* \"#utility.yul\":4467:4842   */\n  swap4\n  pop\n  swap4\n  swap2\n  pop\n  pop\n  jump\t// out\n    /* \"#utility.yul\":4847:5749   */\ntag_23:\n    /* \"#utility.yul\":4896:4901   */\n  0x00\n    /* \"#utility.yul\":4926:4934   */\n  dup3\n    /* \"#utility.yul\":4916:4996   */\n  tag_77\n  jumpi\n  pop\n    /* \"#utility.yul\":4967:4968   */\n  0x01\n    /* \"#utility.yul\":4981:4986   */\n  jump(tag_76)\n    /* \"#utility.yul\":4916:4996   */\ntag_77:\n    /* \"#utility.yul\":5015:5019   */\n  dup2\n    /* \"#utility.yul\":5005:5081   */\n  tag_78\n  jumpi\n  pop\n    /* \"#utility.yul\":5052:5053   */\n  0x00\n    /* \"#utility.yul\":5066:5071   */\n  jump(tag_76)\n    /* \"#utility.yul\":5005:5081   */\ntag_78:\n    /* \"#utility.yul\":5097:5101   */\n  dup2\n    /* \"#utility.yul\":5115:5116   */\n  0x01\n    /* \"#utility.yul\":5110:5169   */\n  dup2\n  eq\n  tag_80\n  jumpi\n    /* \"#utility.yul\":5183:5184   */\n  0x02\n    /* \"#utility.yul\":5178:5352   */\n  dup2\n  eq\n  tag_81\n  jumpi\n    /* \"#utility.yul\":5090:5352   */\n  jump(tag_79)\n    /* \"#utility.yul\":5110:5169   */\ntag_80:\n    /* \"#utility.yul\":5140:5141   */\n  0x01\n    /* \"#utility.yul\":5131:5141   */\n  swap2\n  pop\n    /* \"#utility.yul\":5154:5159   */\n  pop\n  jump(tag_76)\n    /* \"#utility.yul\":5178:5352   */\ntag_81:\n    /* \"#utility.yul\":5215:5218   */\n  0xff\n    /* \"#utility.yul\":5205:5213   */\n  dup5\n    /* \"#utility.yul\":5202:5219   */\n  gt\n    /* \"#utility.yul\":5199:5242   */\n  iszero\n  tag_83\n  jumpi\n    /* \"#utility.yul\":5222:5240   */\n  tag_83\n  tag_21\n  jump\t// in\ntag_83:\n  pop\n  pop\n    /* \"#utility.yul\":5278:5279   */\n  0x01\n    /* \"#utility.yul\":5264:5280   */\n  dup3\n  shl\n    /* \"#utility.yul\":5337:5342   */\n  jump(tag_76)\n    /* \"#utility.yul\":5090:5352   */\ntag_79:\n  pop\n    /* \"#utility.yul\":5436:5438   */\n  0x20\n    /* \"#utility.yul\":5426:5434   */\n  dup4\n    /* \"#utility.yul\":5423:5439   */\n  lt\n    /* \"#utility.yul\":5417:5420   */\n  0x0133\n    /* \"#utility.yul\":5411:5415   */\n  dup4\n    /* \"#utility.yul\":5408:5421   */\n  lt\n    /* \"#utility.yul\":5404:5440   */\n  and\n    /* \"#utility.yul\":5398:5400   */\n  0x4e\n    /* \"#utility.yul\":5388:5396   */\n  dup5\n    /* \"#utility.yul\":5385:5401   */\n  lt\n    /* \"#utility.yul\":5380:5382   */\n  0x0b\n    /* \"#utility.yul\":5374:5378   */\n  dup5\n    /* \"#utility.yul\":5371:5383   */\n  lt\n    /* \"#utility.yul\":5367:5402   */\n  and\n    /* \"#utility.yul\":5364:5441   */\n  or\n    /* \"#utility.yul\":5361:5564   */\n  iszero\n  tag_84\n  jumpi\n  pop\n    /* \"#utility.yul\":5473:5492   */\n  dup2\n  dup2\n  exp\n    /* \"#utility.yul\":5549:5554   */\n  jump(tag_76)\n    /* \"#utility.yul\":5361:5564   */\ntag_84:\n    /* \"#utility.yul\":5596:5638   */\n  tag_85\n  not(0x00)\n    /* \"#utility.yul\":5621:5629   */\n  dup5\n    /* \"#utility.yul\":5615:5619   */\n  dup5\n    /* \"#utility.yul\":5596:5638   */\n  tag_22\n  jump\t// in\ntag_85:\n    /* \"#utility.yul\":5674:5680   */\n  dup1\n    /* \"#utility.yul\":5670:5671   */\n  0x00\n    /* \"#utility.yul\":5666:5672   */\n  not\n    /* \"#utility.yul\":5662:5681   */\n  div\n    /* \"#utility.yul\":5653:5660   */\n  dup3\n    /* \"#utility.yul\":5650:5682   */\n  gt\n    /* \"#utility.yul\":5647:5705   */\n  iszero\n  tag_87\n  jumpi\n    /* \"#utility.yul\":5685:5703   */\n  tag_87\n  tag_21\n  jump\t// in\ntag_87:\n    /* \"#utility.yul\":5723:5743   */\n  mul\n  swap1\n  pop\n    /* \"#utility.yul\":4847:5749   */\ntag_76:\n  swap3\n  swap2\n  pop\n  pop\n  jump\t// out\n    /* \"#utility.yul\":5754:5894   */\ntag_10:\n    /* \"#utility.yul\":5812:5817   */\n  0x00\n    /* \"#utility.yul\":5841:5888   */\n  tag_89\n    /* \"#utility.yul\":5882:5886   */\n  0xff\n    /* \"#utility.yul\":5872:5880   */\n  dup5\n    /* \"#utility.yul\":5868:5887   */\n  and\n    /* \"#utility.yul\":5862:5866   */\n  dup4\n    /* \"#utility.yul\":5841:5888   */\n  tag_23\n  jump\t// in\ntag_89:\n    /* \"#utility.yul\":5832:5888   */\n  swap4\n    /* \"#utility.yul\":5754:5894   */\n  swap3\n  pop\n  pop\n  pop\n  jump\t// out\n    /* \"#utility.yul\":5899:6067   */\ntag_12:\n    /* \"#utility.yul\":5972:5981   */\n  dup1\n  dup3\n  mul\n    /* \"#utility.yul\":6003:6012   */\n  dup2\n  iszero\n    /* \"#utility.yul\":6020:6035   */\n  dup3\n  dup3\n  div\n    /* \"#utility.yul\":6014:6036   */\n  dup5\n  eq\n    /* \"#utility.yul\":6000:6037   */\n  or\n    /* \"#utility.yul\":5990:6061   */\n  tag_76\n  jumpi\n    /* \"#utility.yul\":6041:6059   */\n  tag_76\n  tag_21\n  jump\t// in\n    /* \"#utility.yul\":5899:6067   */\ntag_24:\n    /* \"contracts/HwERC20.sol\":103:4196  contract HwERC6093 is IHwERC6093{ ... */\n  dataSize(sub_0)\n  dup1\n  dataOffset(sub_0)\n  0x00\n  codecopy\n  0x00\n  return\nstop\n\nsub_0: assembly {\n        /* \"contracts/HwERC20.sol\":103:4196  contract HwERC6093 is IHwERC6093{ ... */\n      mstore(0x40, 0x80)\n      jumpi(tag_1, lt(calldatasize, 0x04))\n      shr(0xe0, calldataload(0x00))\n      dup1\n      0x426a8493\n      gt\n      tag_17\n      jumpi\n      dup1\n      0x95d89b41\n      gt\n      tag_18\n      jumpi\n      dup1\n      0x95d89b41\n      eq\n      tag_13\n      jumpi\n      dup1\n      0xa6f2ae3a\n      eq\n      tag_14\n      jumpi\n      dup1\n      0xa9059cbb\n      eq\n      tag_15\n      jumpi\n      dup1\n      0xdd62ed3e\n      eq\n      tag_16\n      jumpi\n      revert(0x00, 0x00)\n    tag_18:\n      dup1\n      0x426a8493\n      eq\n      tag_10\n      jumpi\n      dup1\n      0x65371883\n      eq\n      tag_11\n      jumpi\n      dup1\n      0x70a08231\n      eq\n      tag_12\n      jumpi\n      revert(0x00, 0x00)\n    tag_17:\n      dup1\n      0x2e1a7d4d\n      gt\n      tag_19\n      jumpi\n      dup1\n      0x2e1a7d4d\n      eq\n      tag_6\n      jumpi\n      dup1\n      0x30b1921d\n      eq\n      tag_7\n      jumpi\n      dup1\n      0x313ce567\n      eq\n      tag_8\n      jumpi\n      dup1\n      0x3ba0b9a9\n      eq\n      tag_9\n      jumpi\n      revert(0x00, 0x00)\n    tag_19:\n      dup1\n      0x06fdde03\n      eq\n      tag_3\n      jumpi\n      dup1\n      0x18160ddd\n      eq\n      tag_4\n      jumpi\n      dup1\n      0x23b872dd\n      eq\n      tag_5\n      jumpi\n      revert(0x00, 0x00)\n    tag_1:\n      jumpi(tag_2, calldatasize)\n        /* \"contracts/HwERC20.sol\":3672:3699  _buy(msg.sender, msg.value) */\n      tag_22\n        /* \"contracts/HwERC20.sol\":3677:3687  msg.sender */\n      caller\n        /* \"contracts/HwERC20.sol\":3689:3698  msg.value */\n      callvalue\n        /* \"contracts/HwERC20.sol\":3672:3676  _buy */\n      tag_23\n        /* \"contracts/HwERC20.sol\":3672:3699  _buy(msg.sender, msg.value) */\n      jump\t// in\n    tag_22:\n        /* \"contracts/HwERC20.sol\":103:4196  contract HwERC6093 is IHwERC6093{ ... */\n      stop\n    tag_2:\n      revert(0x00, 0x00)\n        /* \"contracts/HwERC20.sol\":145:172  string public override name */\n    tag_3:\n      callvalue\n      dup1\n      iszero\n      tag_24\n      jumpi\n      revert(0x00, 0x00)\n    tag_24:\n      pop\n      tag_25\n      tag_26\n      jump\t// in\n    tag_25:\n      mload(0x40)\n      tag_27\n      swap2\n      swap1\n      tag_28\n      jump\t// in\n    tag_27:\n      mload(0x40)\n      dup1\n      swap2\n      sub\n      swap1\n      return\n        /* \"contracts/HwERC20.sol\":254:289  uint256 public override totalSupply */\n    tag_4:\n      callvalue\n      dup1\n      iszero\n      tag_29\n      jumpi\n      revert(0x00, 0x00)\n    tag_29:\n      pop\n      tag_30\n      sload(0x03)\n      dup2\n      jump\n    tag_30:\n      mload(0x40)\n        /* \"#utility.yul\":583:608   */\n      swap1\n      dup2\n      mstore\n        /* \"#utility.yul\":571:573   */\n      0x20\n        /* \"#utility.yul\":556:574   */\n      add\n        /* \"contracts/HwERC20.sol\":254:289  uint256 public override totalSupply */\n      tag_27\n        /* \"#utility.yul\":437:614   */\n      jump\n        /* \"contracts/HwERC20.sol\":1872:2455  function transferFrom(address _from, address _to, uint256 _value) external returns (bool success){... */\n    tag_5:\n      callvalue\n      dup1\n      iszero\n      tag_34\n      jumpi\n      revert(0x00, 0x00)\n    tag_34:\n      pop\n      tag_35\n      tag_36\n      calldatasize\n      0x04\n      tag_37\n      jump\t// in\n    tag_36:\n      tag_38\n      jump\t// in\n    tag_35:\n      mload(0x40)\n        /* \"#utility.yul\":1341:1355   */\n      swap1\n      iszero\n        /* \"#utility.yul\":1334:1356   */\n      iszero\n        /* \"#utility.yul\":1316:1357   */\n      dup2\n      mstore\n        /* \"#utility.yul\":1304:1306   */\n      0x20\n        /* \"#utility.yul\":1289:1307   */\n      add\n        /* \"contracts/HwERC20.sol\":1872:2455  function transferFrom(address _from, address _to, uint256 _value) external returns (bool success){... */\n      tag_27\n        /* \"#utility.yul\":1176:1363   */\n      jump\n        /* \"contracts/HwERC20.sol\":3719:4191  function withdraw(uint256 amount) external onlyOwnerToken{... */\n    tag_6:\n      callvalue\n      dup1\n      iszero\n      tag_41\n      jumpi\n      revert(0x00, 0x00)\n    tag_41:\n      pop\n      tag_22\n      tag_43\n      calldatasize\n      0x04\n      tag_44\n      jump\t// in\n    tag_43:\n      tag_45\n      jump\t// in\n        /* \"contracts/HwERC20.sol\":3010:3267  function setExchangeRate(uint8 _exchangeRate) external  onlyOwnerToken returns (bool success){... */\n    tag_7:\n      callvalue\n      dup1\n      iszero\n      tag_46\n      jumpi\n      revert(0x00, 0x00)\n    tag_46:\n      pop\n      tag_35\n      tag_48\n      calldatasize\n      0x04\n      tag_49\n      jump\t// in\n    tag_48:\n      tag_50\n      jump\t// in\n        /* \"contracts/HwERC20.sol\":215:245  uint8 public override decimals */\n    tag_8:\n      callvalue\n      dup1\n      iszero\n      tag_52\n      jumpi\n      revert(0x00, 0x00)\n    tag_52:\n      pop\n      sload(0x02)\n      tag_53\n      swap1\n      0xff\n      and\n      dup2\n      jump\n    tag_53:\n      mload(0x40)\n        /* \"#utility.yul\":2045:2049   */\n      0xff\n        /* \"#utility.yul\":2033:2050   */\n      swap1\n      swap2\n      and\n        /* \"#utility.yul\":2015:2051   */\n      dup2\n      mstore\n        /* \"#utility.yul\":2003:2005   */\n      0x20\n        /* \"#utility.yul\":1988:2006   */\n      add\n        /* \"contracts/HwERC20.sol\":215:245  uint8 public override decimals */\n      tag_27\n        /* \"#utility.yul\":1873:2057   */\n      jump\n        /* \"contracts/HwERC20.sol\":296:330  uint8 public override exchangeRate */\n    tag_9:\n      callvalue\n      dup1\n      iszero\n      tag_57\n      jumpi\n      revert(0x00, 0x00)\n    tag_57:\n      pop\n      sload(0x04)\n      tag_53\n      swap1\n      0xff\n      and\n      dup2\n      jump\n        /* \"contracts/HwERC20.sol\":2467:3002  function approve(address _spender, uint256 _currentValue, uint256 _value) external returns (bool success){... */\n    tag_10:\n      callvalue\n      dup1\n      iszero\n      tag_61\n      jumpi\n      revert(0x00, 0x00)\n    tag_61:\n      pop\n      tag_35\n      tag_63\n      calldatasize\n      0x04\n      tag_64\n      jump\t// in\n    tag_63:\n      tag_65\n      jump\t// in\n        /* \"contracts/HwERC20.sol\":337:371  address public override ownerToken */\n    tag_11:\n      callvalue\n      dup1\n      iszero\n      tag_67\n      jumpi\n      revert(0x00, 0x00)\n    tag_67:\n      pop\n      sload(0x04)\n      tag_68\n      swap1\n      0x0100\n      swap1\n      div\n      sub(shl(0xa0, 0x01), 0x01)\n      and\n      dup2\n      jump\n    tag_68:\n      mload(0x40)\n      sub(shl(0xa0, 0x01), 0x01)\n        /* \"#utility.yul\":2651:2683   */\n      swap1\n      swap2\n      and\n        /* \"#utility.yul\":2633:2684   */\n      dup2\n      mstore\n        /* \"#utility.yul\":2621:2623   */\n      0x20\n        /* \"#utility.yul\":2606:2624   */\n      add\n        /* \"contracts/HwERC20.sol\":337:371  address public override ownerToken */\n      tag_27\n        /* \"#utility.yul\":2487:2690   */\n      jump\n        /* \"contracts/HwERC20.sol\":378:447  mapping(address account => uint256 balance) public override balanceOf */\n    tag_12:\n      callvalue\n      dup1\n      iszero\n      tag_72\n      jumpi\n      revert(0x00, 0x00)\n    tag_72:\n      pop\n      tag_30\n      tag_74\n      calldatasize\n      0x04\n      tag_75\n      jump\t// in\n    tag_74:\n      mstore(0x20, 0x05)\n      0x00\n      swap1\n      dup2\n      mstore\n      0x40\n      swap1\n      keccak256\n      sload\n      dup2\n      jump\n        /* \"contracts/HwERC20.sol\":179:208  string public override symbol */\n    tag_13:\n      callvalue\n      dup1\n      iszero\n      tag_78\n      jumpi\n      revert(0x00, 0x00)\n    tag_78:\n      pop\n      tag_25\n      tag_80\n      jump\t// in\n        /* \"contracts/HwERC20.sol\":3539:3625  function buy() external payable{   ... */\n    tag_14:\n      tag_22\n      tag_83\n      jump\t// in\n        /* \"contracts/HwERC20.sol\":1705:1860  function transfer(address _to, uint256 _value) external returns (bool success){... */\n    tag_15:\n      callvalue\n      dup1\n      iszero\n      tag_84\n      jumpi\n      revert(0x00, 0x00)\n    tag_84:\n      pop\n      tag_35\n      tag_86\n      calldatasize\n      0x04\n      tag_87\n      jump\t// in\n    tag_86:\n      tag_88\n      jump\t// in\n        /* \"contracts/HwERC20.sol\":454:548  mapping(address owner => mapping(address spender => uint256 _value)) public override allowance */\n    tag_16:\n      callvalue\n      dup1\n      iszero\n      tag_90\n      jumpi\n      revert(0x00, 0x00)\n    tag_90:\n      pop\n      tag_30\n      tag_92\n      calldatasize\n      0x04\n      tag_93\n      jump\t// in\n    tag_92:\n      0x06\n      0x20\n      swap1\n      dup2\n      mstore\n      0x00\n      swap3\n      dup4\n      mstore\n      0x40\n      dup1\n      dup5\n      keccak256\n      swap1\n      swap2\n      mstore\n      swap1\n      dup3\n      mstore\n      swap1\n      keccak256\n      sload\n      dup2\n      jump\n        /* \"contracts/HwERC20.sol\":3275:3531  function _buy(address _owner, uint256 _value) internal{... */\n    tag_23:\n        /* \"contracts/HwERC20.sol\":3390:3398  decimals */\n      sload(0x02)\n        /* \"contracts/HwERC20.sol\":3340:3355  uint256 _amount */\n      0x00\n      swap1\n        /* \"contracts/HwERC20.sol\":3384:3398  10 ** decimals */\n      tag_97\n      swap1\n        /* \"contracts/HwERC20.sol\":3390:3398  decimals */\n      0xff\n      and\n        /* \"contracts/HwERC20.sol\":3384:3386  10 */\n      0x0a\n        /* \"contracts/HwERC20.sol\":3384:3398  10 ** decimals */\n      tag_98\n      jump\t// in\n    tag_97:\n        /* \"contracts/HwERC20.sol\":3368:3380  exchangeRate */\n      sload(0x04)\n        /* \"contracts/HwERC20.sol\":3359:3380  _value * exchangeRate */\n      tag_99\n      swap1\n        /* \"contracts/HwERC20.sol\":3368:3380  exchangeRate */\n      0xff\n      and\n        /* \"contracts/HwERC20.sol\":3359:3365  _value */\n      dup5\n        /* \"contracts/HwERC20.sol\":3359:3380  _value * exchangeRate */\n      tag_100\n      jump\t// in\n    tag_99:\n        /* \"contracts/HwERC20.sol\":3359:3399  _value * exchangeRate * (10 ** decimals) */\n      tag_101\n      swap2\n      swap1\n      tag_100\n      jump\t// in\n    tag_101:\n      sub(shl(0xa0, 0x01), 0x01)\n        /* \"contracts/HwERC20.sol\":3411:3428  balanceOf[_owner] */\n      dup5\n      and\n      0x00\n      swap1\n      dup2\n      mstore\n        /* \"contracts/HwERC20.sol\":3411:3420  balanceOf */\n      0x05\n        /* \"contracts/HwERC20.sol\":3411:3428  balanceOf[_owner] */\n      0x20\n      mstore\n      0x40\n      dup2\n      keccak256\n        /* \"contracts/HwERC20.sol\":3411:3439  balanceOf[_owner] += _amount */\n      dup1\n      sload\n        /* \"contracts/HwERC20.sol\":3340:3400  uint256 _amount = (_value * exchangeRate * (10 ** decimals)) */\n      swap3\n      swap4\n      pop\n      dup4\n      swap3\n        /* \"contracts/HwERC20.sol\":3411:3428  balanceOf[_owner] */\n      swap1\n      swap2\n      swap1\n        /* \"contracts/HwERC20.sol\":3411:3439  balanceOf[_owner] += _amount */\n      tag_102\n      swap1\n        /* \"contracts/HwERC20.sol\":3340:3400  uint256 _amount = (_value * exchangeRate * (10 ** decimals)) */\n      dup5\n      swap1\n        /* \"contracts/HwERC20.sol\":3411:3439  balanceOf[_owner] += _amount */\n      tag_103\n      jump\t// in\n    tag_102:\n      swap3\n      pop\n      pop\n      dup2\n      swap1\n      sstore\n      pop\n        /* \"contracts/HwERC20.sol\":3465:3472  _amount */\n      dup1\n        /* \"contracts/HwERC20.sol\":3450:3461  totalSupply */\n      0x03\n      0x00\n        /* \"contracts/HwERC20.sol\":3450:3472  totalSupply += _amount */\n      dup3\n      dup3\n      sload\n      tag_104\n      swap2\n      swap1\n      tag_103\n      jump\t// in\n    tag_104:\n      swap1\n      swap2\n      sstore\n      pop\n      pop\n        /* \"contracts/HwERC20.sol\":3509:3521  exchangeRate */\n      sload(0x04)\n        /* \"contracts/HwERC20.sol\":3488:3522  Buy(_owner, _amount, exchangeRate) */\n      0x40\n      dup1\n      mload\n      sub(shl(0xa0, 0x01), 0x01)\n        /* \"#utility.yul\":5541:5573   */\n      dup7\n      and\n        /* \"#utility.yul\":5523:5574   */\n      dup2\n      mstore\n        /* \"#utility.yul\":5605:5607   */\n      0x20\n        /* \"#utility.yul\":5590:5608   */\n      dup2\n      add\n        /* \"#utility.yul\":5583:5617   */\n      dup5\n      swap1\n      mstore\n        /* \"contracts/HwERC20.sol\":3509:3521  exchangeRate */\n      0xff\n      swap1\n      swap3\n      and\n        /* \"#utility.yul\":5633:5651   */\n      dup3\n      dup3\n      add\n        /* \"#utility.yul\":5626:5671   */\n      mstore\n        /* \"contracts/HwERC20.sol\":3488:3522  Buy(_owner, _amount, exchangeRate) */\n      mload\n      0x1cbc5ab135991bd2b6a4b034a04aa2aa086dac1371cb9b16b8b5e2ed6b036bed\n      swap2\n      dup2\n      swap1\n      sub\n        /* \"#utility.yul\":5511:5513   */\n      0x60\n        /* \"contracts/HwERC20.sol\":3488:3522  Buy(_owner, _amount, exchangeRate) */\n      add\n      swap1\n      log1\n        /* \"contracts/HwERC20.sol\":3329:3531  {... */\n      pop\n        /* \"contracts/HwERC20.sol\":3275:3531  function _buy(address _owner, uint256 _value) internal{... */\n      pop\n      pop\n      jump\t// out\n        /* \"contracts/HwERC20.sol\":145:172  string public override name */\n    tag_26:\n      0x00\n      dup1\n      sload\n      tag_107\n      swap1\n      tag_108\n      jump\t// in\n    tag_107:\n      dup1\n      0x1f\n      add\n      0x20\n      dup1\n      swap2\n      div\n      mul\n      0x20\n      add\n      mload(0x40)\n      swap1\n      dup2\n      add\n      0x40\n      mstore\n      dup1\n      swap3\n      swap2\n      swap1\n      dup2\n      dup2\n      mstore\n      0x20\n      add\n      dup3\n      dup1\n      sload\n      tag_109\n      swap1\n      tag_108\n      jump\t// in\n    tag_109:\n      dup1\n      iszero\n      tag_110\n      jumpi\n      dup1\n      0x1f\n      lt\n      tag_111\n      jumpi\n      0x0100\n      dup1\n      dup4\n      sload\n      div\n      mul\n      dup4\n      mstore\n      swap2\n      0x20\n      add\n      swap2\n      jump(tag_110)\n    tag_111:\n      dup3\n      add\n      swap2\n      swap1\n      0x00\n      mstore\n      keccak256(0x00, 0x20)\n      swap1\n    tag_112:\n      dup2\n      sload\n      dup2\n      mstore\n      swap1\n      0x01\n      add\n      swap1\n      0x20\n      add\n      dup1\n      dup4\n      gt\n      tag_112\n      jumpi\n      dup3\n      swap1\n      sub\n      0x1f\n      and\n      dup3\n      add\n      swap2\n    tag_110:\n      pop\n      pop\n      pop\n      pop\n      pop\n      dup2\n      jump\t// out\n        /* \"contracts/HwERC20.sol\":1872:2455  function transferFrom(address _from, address _to, uint256 _value) external returns (bool success){... */\n    tag_38:\n        /* \"contracts/HwERC20.sol\":1956:1968  bool success */\n      0x00\n      sub(shl(0xa0, 0x01), 0x01)\n        /* \"contracts/HwERC20.sol\":1984:2003  _from != msg.sender */\n      dup5\n      and\n        /* \"contracts/HwERC20.sol\":1993:2003  msg.sender */\n      caller\n        /* \"contracts/HwERC20.sol\":1984:2003  _from != msg.sender */\n      eq\n        /* \"contracts/HwERC20.sol\":1980:2328  if (_from != msg.sender) {... */\n      tag_114\n      jumpi\n      sub(shl(0xa0, 0x01), 0x01)\n        /* \"contracts/HwERC20.sol\":2041:2057  allowance[_from] */\n      dup5\n      and\n        /* \"contracts/HwERC20.sol\":2020:2038  uint256 _allowance */\n      0x00\n        /* \"contracts/HwERC20.sol\":2041:2057  allowance[_from] */\n      swap1\n      dup2\n      mstore\n        /* \"contracts/HwERC20.sol\":2041:2050  allowance */\n      0x06\n        /* \"contracts/HwERC20.sol\":2041:2057  allowance[_from] */\n      0x20\n      swap1\n      dup2\n      mstore\n      0x40\n      dup1\n      dup4\n      keccak256\n        /* \"contracts/HwERC20.sol\":2058:2068  msg.sender */\n      caller\n        /* \"contracts/HwERC20.sol\":2041:2069  allowance[_from][msg.sender] */\n      dup5\n      mstore\n      swap1\n      swap2\n      mstore\n      swap1\n      keccak256\n      sload\n        /* \"contracts/HwERC20.sol\":2088:2107  _allowance < _value */\n      dup3\n      dup2\n      lt\n        /* \"contracts/HwERC20.sol\":2084:2209  if (_allowance < _value) {... */\n      iszero\n      tag_115\n      jumpi\n        /* \"contracts/HwERC20.sol\":2135:2193  ERC20InsufficientAllowance(msg.sender, _allowance, _value) */\n      mload(0x40)\n      shl(0xe1, 0x7dc7a0d9)\n      dup2\n      mstore\n        /* \"contracts/HwERC20.sol\":2162:2172  msg.sender */\n      caller\n        /* \"contracts/HwERC20.sol\":2135:2193  ERC20InsufficientAllowance(msg.sender, _allowance, _value) */\n      0x04\n      dup3\n      add\n        /* \"#utility.yul\":6269:6320   */\n      mstore\n        /* \"#utility.yul\":6336:6354   */\n      0x24\n      dup2\n      add\n        /* \"#utility.yul\":6329:6363   */\n      dup3\n      swap1\n      mstore\n        /* \"#utility.yul\":6379:6397   */\n      0x44\n      dup2\n      add\n        /* \"#utility.yul\":6372:6406   */\n      dup5\n      swap1\n      mstore\n        /* \"#utility.yul\":6242:6260   */\n      0x64\n      add\n        /* \"contracts/HwERC20.sol\":2135:2193  ERC20InsufficientAllowance(msg.sender, _allowance, _value) */\n    tag_116:\n      mload(0x40)\n      dup1\n      swap2\n      sub\n      swap1\n      revert\n        /* \"contracts/HwERC20.sol\":2084:2209  if (_allowance < _value) {... */\n    tag_115:\n      sub(shl(0xa0, 0x01), 0x01)\n        /* \"contracts/HwERC20.sol\":2251:2267  allowance[_from] */\n      dup6\n      and\n      0x00\n      swap1\n      dup2\n      mstore\n        /* \"contracts/HwERC20.sol\":2251:2260  allowance */\n      0x06\n        /* \"contracts/HwERC20.sol\":2251:2267  allowance[_from] */\n      0x20\n      swap1\n      dup2\n      mstore\n      0x40\n      dup1\n      dup4\n      keccak256\n        /* \"contracts/HwERC20.sol\":2268:2278  msg.sender */\n      caller\n        /* \"contracts/HwERC20.sol\":2251:2279  allowance[_from][msg.sender] */\n      dup5\n      mstore\n      swap1\n      swap2\n      mstore\n      swap1\n      keccak256\n        /* \"contracts/HwERC20.sol\":2282:2301  _allowance - _value */\n      swap1\n      dup4\n      swap1\n      sub\n        /* \"contracts/HwERC20.sol\":2251:2301  allowance[_from][msg.sender] = _allowance - _value */\n      swap1\n      sstore\n        /* \"contracts/HwERC20.sol\":1980:2328  if (_from != msg.sender) {... */\n    tag_114:\n        /* \"contracts/HwERC20.sol\":2338:2367  _transfer(_from, _to, _value) */\n      tag_118\n        /* \"contracts/HwERC20.sol\":2348:2353  _from */\n      dup5\n        /* \"contracts/HwERC20.sol\":2355:2358  _to */\n      dup5\n        /* \"contracts/HwERC20.sol\":2360:2366  _value */\n      dup5\n        /* \"contracts/HwERC20.sol\":2338:2347  _transfer */\n      tag_119\n        /* \"contracts/HwERC20.sol\":2338:2367  _transfer(_from, _to, _value) */\n      jump\t// in\n    tag_118:\n        /* \"contracts/HwERC20.sol\":2411:2414  _to */\n      dup3\n      sub(shl(0xa0, 0x01), 0x01)\n        /* \"contracts/HwERC20.sol\":2383:2423  Transfer(msg.sender, _from, _to, _value) */\n      and\n        /* \"contracts/HwERC20.sol\":2404:2409  _from */\n      dup5\n      sub(shl(0xa0, 0x01), 0x01)\n        /* \"contracts/HwERC20.sol\":2383:2423  Transfer(msg.sender, _from, _to, _value) */\n      and\n        /* \"contracts/HwERC20.sol\":2392:2402  msg.sender */\n      caller\n      sub(shl(0xa0, 0x01), 0x01)\n        /* \"contracts/HwERC20.sol\":2383:2423  Transfer(msg.sender, _from, _to, _value) */\n      and\n      0xd1398bee19313d6bf672ccb116e51f4a1a947e91c757907f51fbb5b5e56c698f\n        /* \"contracts/HwERC20.sol\":2416:2422  _value */\n      dup6\n        /* \"contracts/HwERC20.sol\":2383:2423  Transfer(msg.sender, _from, _to, _value) */\n      mload(0x40)\n      tag_120\n      swap2\n        /* \"#utility.yul\":583:608   */\n      dup2\n      mstore\n        /* \"#utility.yul\":571:573   */\n      0x20\n        /* \"#utility.yul\":556:574   */\n      add\n      swap1\n        /* \"#utility.yul\":437:614   */\n      jump\n        /* \"contracts/HwERC20.sol\":2383:2423  Transfer(msg.sender, _from, _to, _value) */\n    tag_120:\n      mload(0x40)\n      dup1\n      swap2\n      sub\n      swap1\n      log4\n      pop\n        /* \"contracts/HwERC20.sol\":2443:2447  true */\n      0x01\n        /* \"contracts/HwERC20.sol\":1872:2455  function transferFrom(address _from, address _to, uint256 _value) external returns (bool success){... */\n    tag_113:\n      swap4\n      swap3\n      pop\n      pop\n      pop\n      jump\t// out\n        /* \"contracts/HwERC20.sol\":3719:4191  function withdraw(uint256 amount) external onlyOwnerToken{... */\n    tag_45:\n        /* \"contracts/HwERC20.sol\":1007:1017  ownerToken */\n      sload(0x04)\n      0x0100\n      swap1\n      div\n      sub(shl(0xa0, 0x01), 0x01)\n      and\n        /* \"contracts/HwERC20.sol\":993:1003  msg.sender */\n      caller\n        /* \"contracts/HwERC20.sol\":993:1017  msg.sender == ownerToken */\n      eq\n        /* \"contracts/HwERC20.sol\":985:1045  require(msg.sender == ownerToken, \"Not the owner of token!\") */\n      tag_122\n      jumpi\n      mload(0x40)\n      shl(0xe5, 0x461bcd)\n      dup2\n      mstore\n        /* \"#utility.yul\":6619:6621   */\n      0x20\n        /* \"contracts/HwERC20.sol\":985:1045  require(msg.sender == ownerToken, \"Not the owner of token!\") */\n      0x04\n      dup3\n      add\n        /* \"#utility.yul\":6601:6622   */\n      mstore\n        /* \"#utility.yul\":6658:6660   */\n      0x17\n        /* \"#utility.yul\":6638:6656   */\n      0x24\n      dup3\n      add\n        /* \"#utility.yul\":6631:6661   */\n      mstore\n      shl(0x48, 0x4e6f7420746865206f776e6572206f6620746f6b656e21)\n        /* \"#utility.yul\":6677:6695   */\n      0x44\n      dup3\n      add\n        /* \"#utility.yul\":6670:6723   */\n      mstore\n        /* \"#utility.yul\":6740:6758   */\n      0x64\n      add\n        /* \"contracts/HwERC20.sol\":985:1045  require(msg.sender == ownerToken, \"Not the owner of token!\") */\n      tag_116\n        /* \"#utility.yul\":6417:6764   */\n      jump\n        /* \"contracts/HwERC20.sol\":985:1045  require(msg.sender == ownerToken, \"Not the owner of token!\") */\n    tag_122:\n        /* \"contracts/HwERC20.sol\":3791:3797  amount */\n      dup1\n        /* \"contracts/HwERC20.sol\":3801:3802  0 */\n      0x00\n        /* \"contracts/HwERC20.sol\":3791:3802  amount == 0 */\n      sub\n        /* \"contracts/HwERC20.sol\":3787:3845  if (amount == 0){revert WithdrawalAmountZero(msg.sender);} */\n      tag_126\n      jumpi\n        /* \"contracts/HwERC20.sol\":3811:3843  WithdrawalAmountZero(msg.sender) */\n      mload(0x40)\n      shl(0xe0, 0x275e9c3f)\n      dup2\n      mstore\n        /* \"contracts/HwERC20.sol\":3832:3842  msg.sender */\n      caller\n        /* \"contracts/HwERC20.sol\":3811:3843  WithdrawalAmountZero(msg.sender) */\n      0x04\n      dup3\n      add\n        /* \"#utility.yul\":2633:2684   */\n      mstore\n        /* \"#utility.yul\":2606:2624   */\n      0x24\n      add\n        /* \"contracts/HwERC20.sol\":3811:3843  WithdrawalAmountZero(msg.sender) */\n      tag_116\n        /* \"#utility.yul\":2487:2690   */\n      jump\n        /* \"contracts/HwERC20.sol\":3787:3845  if (amount == 0){revert WithdrawalAmountZero(msg.sender);} */\n    tag_126:\n        /* \"contracts/HwERC20.sol\":3873:3894  address(this).balance */\n      selfbalance\n        /* \"contracts/HwERC20.sol\":3908:3924  balance < amount */\n      dup2\n      dup2\n      lt\n        /* \"contracts/HwERC20.sol\":3905:3995  if(balance < amount) {revert WithdrawalAmountExceedsBalance(msg.sender, amount, balance);} */\n      iszero\n      tag_128\n      jumpi\n        /* \"contracts/HwERC20.sol\":3934:3993  WithdrawalAmountExceedsBalance(msg.sender, amount, balance) */\n      mload(0x40)\n      shl(0xe3, 0x15e5cd3f)\n      dup2\n      mstore\n        /* \"contracts/HwERC20.sol\":3965:3975  msg.sender */\n      caller\n        /* \"contracts/HwERC20.sol\":3934:3993  WithdrawalAmountExceedsBalance(msg.sender, amount, balance) */\n      0x04\n      dup3\n      add\n        /* \"#utility.yul\":6269:6320   */\n      mstore\n        /* \"#utility.yul\":6336:6354   */\n      0x24\n      dup2\n      add\n        /* \"#utility.yul\":6329:6363   */\n      dup4\n      swap1\n      mstore\n        /* \"#utility.yul\":6379:6397   */\n      0x44\n      dup2\n      add\n        /* \"#utility.yul\":6372:6406   */\n      dup3\n      swap1\n      mstore\n        /* \"#utility.yul\":6242:6260   */\n      0x64\n      add\n        /* \"contracts/HwERC20.sol\":3934:3993  WithdrawalAmountExceedsBalance(msg.sender, amount, balance) */\n      tag_116\n        /* \"#utility.yul\":6067:6412   */\n      jump\n        /* \"contracts/HwERC20.sol\":3905:3995  if(balance < amount) {revert WithdrawalAmountExceedsBalance(msg.sender, amount, balance);} */\n    tag_128:\n        /* \"contracts/HwERC20.sol\":4024:4058  msg.sender.call{value: amount}(\"\") */\n      mload(0x40)\n        /* \"contracts/HwERC20.sol\":4006:4018  bool success */\n      0x00\n      swap1\n        /* \"contracts/HwERC20.sol\":4024:4034  msg.sender */\n      caller\n      swap1\n        /* \"contracts/HwERC20.sol\":4047:4053  amount */\n      dup5\n      swap1\n        /* \"contracts/HwERC20.sol\":4006:4018  bool success */\n      dup4\n        /* \"contracts/HwERC20.sol\":4024:4058  msg.sender.call{value: amount}(\"\") */\n      dup2\n        /* \"contracts/HwERC20.sol\":4006:4018  bool success */\n      dup2\n        /* \"contracts/HwERC20.sol\":4024:4058  msg.sender.call{value: amount}(\"\") */\n      dup2\n        /* \"contracts/HwERC20.sol\":4047:4053  amount */\n      dup6\n        /* \"contracts/HwERC20.sol\":4024:4034  msg.sender */\n      dup8\n        /* \"contracts/HwERC20.sol\":4024:4058  msg.sender.call{value: amount}(\"\") */\n      gas\n      call\n      swap3\n      pop\n      pop\n      pop\n      returndatasize\n      dup1\n      0x00\n      dup2\n      eq\n      tag_134\n      jumpi\n      mload(0x40)\n      swap2\n      pop\n      and(add(returndatasize, 0x3f), not(0x1f))\n      dup3\n      add\n      0x40\n      mstore\n      returndatasize\n      dup3\n      mstore\n      returndatasize\n      0x00\n      0x20\n      dup5\n      add\n      returndatacopy\n      jump(tag_133)\n    tag_134:\n      0x60\n      swap2\n      pop\n    tag_133:\n      pop\n        /* \"contracts/HwERC20.sol\":4005:4058  (bool success, ) = msg.sender.call{value: amount}(\"\") */\n      swap1\n      swap2\n      pop\n      pop\n        /* \"contracts/HwERC20.sol\":4072:4088  success == false */\n      dup1\n      iszero\n      iszero\n        /* \"contracts/HwERC20.sol\":4083:4088  false */\n      0x00\n        /* \"contracts/HwERC20.sol\":4072:4088  success == false */\n      sub\n        /* \"contracts/HwERC20.sol\":4069:4136  if(success == false){ revert CouldNotWithdraw(msg.sender, amount);} */\n      tag_135\n      jumpi\n        /* \"contracts/HwERC20.sol\":4098:4134  CouldNotWithdraw(msg.sender, amount) */\n      mload(0x40)\n      shl(0xe0, 0x1d39ebc3)\n      dup2\n      mstore\n        /* \"contracts/HwERC20.sol\":4115:4125  msg.sender */\n      caller\n        /* \"contracts/HwERC20.sol\":4098:4134  CouldNotWithdraw(msg.sender, amount) */\n      0x04\n      dup3\n      add\n        /* \"#utility.yul\":7153:7204   */\n      mstore\n        /* \"#utility.yul\":7220:7238   */\n      0x24\n      dup2\n      add\n        /* \"#utility.yul\":7213:7247   */\n      dup5\n      swap1\n      mstore\n        /* \"#utility.yul\":7126:7144   */\n      0x44\n      add\n        /* \"contracts/HwERC20.sol\":4098:4134  CouldNotWithdraw(msg.sender, amount) */\n      tag_116\n        /* \"#utility.yul\":6979:7253   */\n      jump\n        /* \"contracts/HwERC20.sol\":4069:4136  if(success == false){ revert CouldNotWithdraw(msg.sender, amount);} */\n    tag_135:\n        /* \"contracts/HwERC20.sol\":4151:4181  Withdrawal(msg.sender, amount) */\n      mload(0x40)\n        /* \"#utility.yul\":583:608   */\n      dup4\n      dup2\n      mstore\n        /* \"contracts/HwERC20.sol\":4162:4172  msg.sender */\n      caller\n      swap1\n        /* \"contracts/HwERC20.sol\":4151:4181  Withdrawal(msg.sender, amount) */\n      0x7fcf532c15f0a6db0bd6d0e038bea71d30d808c7d98cb3bf7268a95bf5081b65\n      swap1\n        /* \"#utility.yul\":571:573   */\n      0x20\n        /* \"#utility.yul\":556:574   */\n      add\n        /* \"contracts/HwERC20.sol\":4151:4181  Withdrawal(msg.sender, amount) */\n      mload(0x40)\n      dup1\n      swap2\n      sub\n      swap1\n      log2\n        /* \"contracts/HwERC20.sol\":3776:4191  {... */\n      pop\n      pop\n        /* \"contracts/HwERC20.sol\":3719:4191  function withdraw(uint256 amount) external onlyOwnerToken{... */\n      pop\n      jump\t// out\n        /* \"contracts/HwERC20.sol\":3010:3267  function setExchangeRate(uint8 _exchangeRate) external  onlyOwnerToken returns (bool success){... */\n    tag_50:\n        /* \"contracts/HwERC20.sol\":1007:1017  ownerToken */\n      sload(0x04)\n        /* \"contracts/HwERC20.sol\":3090:3102  bool success */\n      0x00\n      swap1\n        /* \"contracts/HwERC20.sol\":1007:1017  ownerToken */\n      0x0100\n      swap1\n      div\n      sub(shl(0xa0, 0x01), 0x01)\n      and\n        /* \"contracts/HwERC20.sol\":993:1003  msg.sender */\n      caller\n        /* \"contracts/HwERC20.sol\":993:1017  msg.sender == ownerToken */\n      eq\n        /* \"contracts/HwERC20.sol\":985:1045  require(msg.sender == ownerToken, \"Not the owner of token!\") */\n      tag_140\n      jumpi\n      mload(0x40)\n      shl(0xe5, 0x461bcd)\n      dup2\n      mstore\n        /* \"#utility.yul\":6619:6621   */\n      0x20\n        /* \"contracts/HwERC20.sol\":985:1045  require(msg.sender == ownerToken, \"Not the owner of token!\") */\n      0x04\n      dup3\n      add\n        /* \"#utility.yul\":6601:6622   */\n      mstore\n        /* \"#utility.yul\":6658:6660   */\n      0x17\n        /* \"#utility.yul\":6638:6656   */\n      0x24\n      dup3\n      add\n        /* \"#utility.yul\":6631:6661   */\n      mstore\n      shl(0x48, 0x4e6f7420746865206f776e6572206f6620746f6b656e21)\n        /* \"#utility.yul\":6677:6695   */\n      0x44\n      dup3\n      add\n        /* \"#utility.yul\":6670:6723   */\n      mstore\n        /* \"#utility.yul\":6740:6758   */\n      0x64\n      add\n        /* \"contracts/HwERC20.sol\":985:1045  require(msg.sender == ownerToken, \"Not the owner of token!\") */\n      tag_116\n        /* \"#utility.yul\":6417:6764   */\n      jump\n        /* \"contracts/HwERC20.sol\":985:1045  require(msg.sender == ownerToken, \"Not the owner of token!\") */\n    tag_140:\n        /* \"contracts/HwERC20.sol\":3117:3130  _exchangeRate */\n      dup2\n        /* \"contracts/HwERC20.sol\":3117:3135  _exchangeRate == 0 */\n      0xff\n      and\n        /* \"contracts/HwERC20.sol\":3134:3135  0 */\n      0x00\n        /* \"contracts/HwERC20.sol\":3117:3135  _exchangeRate == 0 */\n      sub\n        /* \"contracts/HwERC20.sol\":3114:3152  if(_exchangeRate == 0) {return false;} */\n      tag_143\n      jumpi\n      pop\n        /* \"contracts/HwERC20.sol\":3145:3150  false */\n      0x00\n        /* \"contracts/HwERC20.sol\":3010:3267  function setExchangeRate(uint8 _exchangeRate) external  onlyOwnerToken returns (bool success){... */\n      swap2\n      swap1\n      pop\n      jump\t// out\n        /* \"contracts/HwERC20.sol\":3114:3152  if(_exchangeRate == 0) {return false;} */\n    tag_143:\n        /* \"contracts/HwERC20.sol\":3162:3174  exchangeRate */\n      0x04\n        /* \"contracts/HwERC20.sol\":3162:3190  exchangeRate = _exchangeRate */\n      dup1\n      sload\n      not(0xff)\n      and\n      0xff\n      dup5\n      and\n      swap1\n      dup2\n      or\n      swap1\n      swap2\n      sstore\n        /* \"contracts/HwERC20.sol\":3206:3236  SetExchangeRate(_exchangeRate) */\n      mload(0x40)\n        /* \"#utility.yul\":2015:2051   */\n      swap1\n      dup2\n      mstore\n        /* \"contracts/HwERC20.sol\":3206:3236  SetExchangeRate(_exchangeRate) */\n      0x6424bf7fada081b86bc17d30f962bace2f65c81a0c0e245581ae605044698520\n      swap1\n        /* \"#utility.yul\":2003:2005   */\n      0x20\n        /* \"#utility.yul\":1988:2006   */\n      add\n        /* \"contracts/HwERC20.sol\":3206:3236  SetExchangeRate(_exchangeRate) */\n      mload(0x40)\n      dup1\n      swap2\n      sub\n      swap1\n      log1\n      pop\n        /* \"contracts/HwERC20.sol\":3254:3258  true */\n      0x01\n        /* \"contracts/HwERC20.sol\":1056:1057  _ */\n    tag_142:\n        /* \"contracts/HwERC20.sol\":3010:3267  function setExchangeRate(uint8 _exchangeRate) external  onlyOwnerToken returns (bool success){... */\n      swap2\n      swap1\n      pop\n      jump\t// out\n        /* \"contracts/HwERC20.sol\":2467:3002  function approve(address _spender, uint256 _currentValue, uint256 _value) external returns (bool success){... */\n    tag_65:\n        /* \"contracts/HwERC20.sol\":2559:2571  bool success */\n      0x00\n      sub(shl(0xa0, 0x01), 0x01)\n        /* \"contracts/HwERC20.sol\":2587:2609  _spender == address(0) */\n      dup5\n      and\n      iszero\n      dup1\n        /* \"contracts/HwERC20.sol\":2587:2635  _spender == address(0) || msg.sender == _spender */\n      tag_146\n      jumpi\n      pop\n        /* \"contracts/HwERC20.sol\":2613:2623  msg.sender */\n      caller\n      sub(shl(0xa0, 0x01), 0x01)\n        /* \"contracts/HwERC20.sol\":2613:2635  msg.sender == _spender */\n      dup6\n      and\n      eq\n        /* \"contracts/HwERC20.sol\":2587:2635  _spender == address(0) || msg.sender == _spender */\n    tag_146:\n        /* \"contracts/HwERC20.sol\":2583:2676  if (_spender == address(0) || msg.sender == _spender){ revert ERC20InvalidSpender(_spender);} */\n      iszero\n      tag_147\n      jumpi\n        /* \"contracts/HwERC20.sol\":2645:2674  ERC20InvalidSpender(_spender) */\n      mload(0x40)\n      shl(0xe1, 0x4a1406b1)\n      dup2\n      mstore\n      sub(shl(0xa0, 0x01), 0x01)\n        /* \"#utility.yul\":2651:2683   */\n      dup6\n      and\n        /* \"contracts/HwERC20.sol\":2645:2674  ERC20InvalidSpender(_spender) */\n      0x04\n      dup3\n      add\n        /* \"#utility.yul\":2633:2684   */\n      mstore\n        /* \"#utility.yul\":2606:2624   */\n      0x24\n      add\n        /* \"contracts/HwERC20.sol\":2645:2674  ERC20InvalidSpender(_spender) */\n      tag_116\n        /* \"#utility.yul\":2487:2690   */\n      jump\n        /* \"contracts/HwERC20.sol\":2583:2676  if (_spender == address(0) || msg.sender == _spender){ revert ERC20InvalidSpender(_spender);} */\n    tag_147:\n        /* \"contracts/HwERC20.sol\":2718:2728  msg.sender */\n      caller\n        /* \"contracts/HwERC20.sol\":2688:2705  uint256 _oldValue */\n      0x00\n        /* \"contracts/HwERC20.sol\":2708:2729  allowance[msg.sender] */\n      swap1\n      dup2\n      mstore\n        /* \"contracts/HwERC20.sol\":2708:2717  allowance */\n      0x06\n        /* \"contracts/HwERC20.sol\":2708:2729  allowance[msg.sender] */\n      0x20\n      swap1\n      dup2\n      mstore\n      0x40\n      dup1\n      dup4\n      keccak256\n      sub(shl(0xa0, 0x01), 0x01)\n        /* \"contracts/HwERC20.sol\":2708:2739  allowance[msg.sender][_spender] */\n      dup9\n      and\n      dup5\n      mstore\n      swap1\n      swap2\n      mstore\n      swap1\n      keccak256\n      sload\n        /* \"contracts/HwERC20.sol\":2754:2780  _oldValue != _currentValue */\n      dup4\n      dup2\n      eq\n        /* \"contracts/HwERC20.sol\":2750:2798  if (_oldValue != _currentValue) { return false;} */\n      tag_149\n      jumpi\n        /* \"contracts/HwERC20.sol\":2791:2796  false */\n      0x00\n        /* \"contracts/HwERC20.sol\":2784:2796  return false */\n      swap2\n      pop\n      pop\n      jump(tag_113)\n        /* \"contracts/HwERC20.sol\":2750:2798  if (_oldValue != _currentValue) { return false;} */\n    tag_149:\n        /* \"contracts/HwERC20.sol\":2821:2831  msg.sender */\n      caller\n        /* \"contracts/HwERC20.sol\":2811:2832  allowance[msg.sender] */\n      0x00\n      dup2\n      dup2\n      mstore\n        /* \"contracts/HwERC20.sol\":2811:2820  allowance */\n      0x06\n        /* \"contracts/HwERC20.sol\":2811:2832  allowance[msg.sender] */\n      0x20\n      swap1\n      dup2\n      mstore\n      0x40\n      dup1\n      dup4\n      keccak256\n      sub(shl(0xa0, 0x01), 0x01)\n        /* \"contracts/HwERC20.sol\":2811:2842  allowance[msg.sender][_spender] */\n      dup11\n      and\n      dup1\n      dup6\n      mstore\n      swap1\n      dup4\n      mstore\n      swap3\n      dup2\n      swap1\n      keccak256\n        /* \"contracts/HwERC20.sol\":2811:2851  allowance[msg.sender][_spender] = _value */\n      dup8\n      swap1\n      sstore\n        /* \"contracts/HwERC20.sol\":2867:2905  Approval(msg.sender, _spender, _value) */\n      mload\n        /* \"#utility.yul\":583:608   */\n      dup7\n      dup2\n      mstore\n        /* \"contracts/HwERC20.sol\":2811:2842  allowance[msg.sender][_spender] */\n      swap2\n      swap3\n        /* \"contracts/HwERC20.sol\":2821:2831  msg.sender */\n      swap2\n        /* \"contracts/HwERC20.sol\":2867:2905  Approval(msg.sender, _spender, _value) */\n      0x8c5be1e5ebec7d5bd14f71427d1e84f3dd0314c0f7b2291e5b200ac8c7c3b925\n      swap2\n        /* \"#utility.yul\":556:574   */\n      add\n        /* \"contracts/HwERC20.sol\":2867:2905  Approval(msg.sender, _spender, _value) */\n      mload(0x40)\n      dup1\n      swap2\n      sub\n      swap1\n      log3\n        /* \"contracts/HwERC20.sol\":2921:2970  Approval(msg.sender, _spender, _oldValue, _value) */\n      0x40\n      dup1\n      mload\n        /* \"#utility.yul\":7432:7457   */\n      dup3\n      dup2\n      mstore\n        /* \"#utility.yul\":7488:7490   */\n      0x20\n        /* \"#utility.yul\":7473:7491   */\n      dup2\n      add\n        /* \"#utility.yul\":7466:7500   */\n      dup6\n      swap1\n      mstore\n      sub(shl(0xa0, 0x01), 0x01)\n        /* \"contracts/HwERC20.sol\":2921:2970  Approval(msg.sender, _spender, _oldValue, _value) */\n      dup8\n      and\n      swap2\n        /* \"contracts/HwERC20.sol\":2930:2940  msg.sender */\n      caller\n      swap2\n        /* \"contracts/HwERC20.sol\":2921:2970  Approval(msg.sender, _spender, _oldValue, _value) */\n      0xb3fd5071835887567a0671151121894ddccc2842f1d10bedad13e0d17cace9a7\n      swap2\n        /* \"#utility.yul\":7405:7423   */\n      add\n        /* \"contracts/HwERC20.sol\":2921:2970  Approval(msg.sender, _spender, _oldValue, _value) */\n      mload(0x40)\n      dup1\n      swap2\n      sub\n      swap1\n      log3\n      pop\n        /* \"contracts/HwERC20.sol\":2990:2994  true */\n      0x01\n      swap5\n        /* \"contracts/HwERC20.sol\":2467:3002  function approve(address _spender, uint256 _currentValue, uint256 _value) external returns (bool success){... */\n      swap4\n      pop\n      pop\n      pop\n      pop\n      jump\t// out\n        /* \"contracts/HwERC20.sol\":179:208  string public override symbol */\n    tag_80:\n      0x01\n      dup1\n      sload\n      tag_107\n      swap1\n      tag_108\n      jump\t// in\n        /* \"contracts/HwERC20.sol\":3539:3625  function buy() external payable{   ... */\n    tag_83:\n        /* \"contracts/HwERC20.sol\":3584:3611  _buy(msg.sender, msg.value) */\n      tag_159\n        /* \"contracts/HwERC20.sol\":3589:3599  msg.sender */\n      caller\n        /* \"contracts/HwERC20.sol\":3601:3610  msg.value */\n      callvalue\n        /* \"contracts/HwERC20.sol\":3584:3588  _buy */\n      tag_23\n        /* \"contracts/HwERC20.sol\":3584:3611  _buy(msg.sender, msg.value) */\n      jump\t// in\n    tag_159:\n        /* \"contracts/HwERC20.sol\":3539:3625  function buy() external payable{   ... */\n      jump\t// out\n        /* \"contracts/HwERC20.sol\":1705:1860  function transfer(address _to, uint256 _value) external returns (bool success){... */\n    tag_88:\n        /* \"contracts/HwERC20.sol\":1770:1782  bool success */\n      0x00\n        /* \"contracts/HwERC20.sol\":1794:1828  _transfer(msg.sender, _to, _value) */\n      tag_161\n        /* \"contracts/HwERC20.sol\":1804:1814  msg.sender */\n      caller\n        /* \"contracts/HwERC20.sol\":1816:1819  _to */\n      dup5\n        /* \"contracts/HwERC20.sol\":1821:1827  _value */\n      dup5\n        /* \"contracts/HwERC20.sol\":1794:1803  _transfer */\n      tag_119\n        /* \"contracts/HwERC20.sol\":1794:1828  _transfer(msg.sender, _to, _value) */\n      jump\t// in\n    tag_161:\n      pop\n        /* \"contracts/HwERC20.sol\":1848:1852  true */\n      0x01\n        /* \"contracts/HwERC20.sol\":1705:1860  function transfer(address _to, uint256 _value) external returns (bool success){... */\n    tag_160:\n      swap3\n      swap2\n      pop\n      pop\n      jump\t// out\n        /* \"contracts/HwERC20.sol\":1071:1693  function _transfer(... */\n    tag_119:\n      sub(shl(0xa0, 0x01), 0x01)\n        /* \"contracts/HwERC20.sol\":1192:1211  _from == address(0) */\n      dup4\n      and\n        /* \"contracts/HwERC20.sol\":1188:1272  if (_from == address(0)) {... */\n      tag_163\n      jumpi\n        /* \"contracts/HwERC20.sol\":1235:1260  ERC20InvalidSender(_from) */\n      mload(0x40)\n      shl(0xe1, 0x4b637e8f)\n      dup2\n      mstore\n      sub(shl(0xa0, 0x01), 0x01)\n        /* \"#utility.yul\":2651:2683   */\n      dup5\n      and\n        /* \"contracts/HwERC20.sol\":1235:1260  ERC20InvalidSender(_from) */\n      0x04\n      dup3\n      add\n        /* \"#utility.yul\":2633:2684   */\n      mstore\n        /* \"#utility.yul\":2606:2624   */\n      0x24\n      add\n        /* \"contracts/HwERC20.sol\":1235:1260  ERC20InvalidSender(_from) */\n      tag_116\n        /* \"#utility.yul\":2487:2690   */\n      jump\n        /* \"contracts/HwERC20.sol\":1188:1272  if (_from == address(0)) {... */\n    tag_163:\n      sub(shl(0xa0, 0x01), 0x01)\n        /* \"contracts/HwERC20.sol\":1286:1303  _to == address(0) */\n      dup3\n      and\n        /* \"contracts/HwERC20.sol\":1282:1364  if (_to == address(0)) {... */\n      tag_165\n      jumpi\n        /* \"contracts/HwERC20.sol\":1327:1352  ERC20InvalidReceiver(_to) */\n      mload(0x40)\n      shl(0xe0, 0xec442f05)\n      dup2\n      mstore\n      sub(shl(0xa0, 0x01), 0x01)\n        /* \"#utility.yul\":2651:2683   */\n      dup4\n      and\n        /* \"contracts/HwERC20.sol\":1327:1352  ERC20InvalidReceiver(_to) */\n      0x04\n      dup3\n      add\n        /* \"#utility.yul\":2633:2684   */\n      mstore\n        /* \"#utility.yul\":2606:2624   */\n      0x24\n      add\n        /* \"contracts/HwERC20.sol\":1327:1352  ERC20InvalidReceiver(_to) */\n      tag_116\n        /* \"#utility.yul\":2487:2690   */\n      jump\n        /* \"contracts/HwERC20.sol\":1282:1364  if (_to == address(0)) {... */\n    tag_165:\n      sub(shl(0xa0, 0x01), 0x01)\n        /* \"contracts/HwERC20.sol\":1392:1408  balanceOf[_from] */\n      dup4\n      and\n        /* \"contracts/HwERC20.sol\":1374:1389  uint256 balance */\n      0x00\n        /* \"contracts/HwERC20.sol\":1392:1408  balanceOf[_from] */\n      swap1\n      dup2\n      mstore\n        /* \"contracts/HwERC20.sol\":1392:1401  balanceOf */\n      0x05\n        /* \"contracts/HwERC20.sol\":1392:1408  balanceOf[_from] */\n      0x20\n      mstore\n      0x40\n      swap1\n      keccak256\n      sload\n        /* \"contracts/HwERC20.sol\":1423:1439  balance < _value */\n      dup2\n      dup2\n      lt\n        /* \"contracts/HwERC20.sol\":1419:1523  if (balance < _value) {... */\n      iszero\n      tag_167\n      jumpi\n        /* \"contracts/HwERC20.sol\":1463:1511  ERC20InsufficientBalance(_from, balance, _value) */\n      mload(0x40)\n      shl(0xe2, 0x391434e3)\n      dup2\n      mstore\n      sub(shl(0xa0, 0x01), 0x01)\n        /* \"#utility.yul\":6287:6319   */\n      dup6\n      and\n        /* \"contracts/HwERC20.sol\":1463:1511  ERC20InsufficientBalance(_from, balance, _value) */\n      0x04\n      dup3\n      add\n        /* \"#utility.yul\":6269:6320   */\n      mstore\n        /* \"#utility.yul\":6336:6354   */\n      0x24\n      dup2\n      add\n        /* \"#utility.yul\":6329:6363   */\n      dup3\n      swap1\n      mstore\n        /* \"#utility.yul\":6379:6397   */\n      0x44\n      dup2\n      add\n        /* \"#utility.yul\":6372:6406   */\n      dup4\n      swap1\n      mstore\n        /* \"#utility.yul\":6242:6260   */\n      0x64\n      add\n        /* \"contracts/HwERC20.sol\":1463:1511  ERC20InsufficientBalance(_from, balance, _value) */\n      tag_116\n        /* \"#utility.yul\":6067:6412   */\n      jump\n        /* \"contracts/HwERC20.sol\":1419:1523  if (balance < _value) {... */\n    tag_167:\n      sub(shl(0xa0, 0x01), 0x01)\n        /* \"contracts/HwERC20.sol\":1558:1574  balanceOf[_from] */\n      dup1\n      dup6\n      and\n      0x00\n      swap1\n      dup2\n      mstore\n        /* \"contracts/HwERC20.sol\":1558:1567  balanceOf */\n      0x05\n        /* \"contracts/HwERC20.sol\":1558:1574  balanceOf[_from] */\n      0x20\n      mstore\n      0x40\n      dup1\n      dup3\n      keccak256\n        /* \"contracts/HwERC20.sol\":1577:1593  balance - _value */\n      dup6\n      dup6\n      sub\n        /* \"contracts/HwERC20.sol\":1558:1593  balanceOf[_from] = balance - _value */\n      swap1\n      sstore\n        /* \"contracts/HwERC20.sol\":1615:1629  balanceOf[_to] */\n      swap2\n      dup6\n      and\n      dup2\n      mstore\n      swap1\n      dup2\n      keccak256\n        /* \"contracts/HwERC20.sol\":1615:1639  balanceOf[_to] += _value */\n      dup1\n      sload\n        /* \"contracts/HwERC20.sol\":1587:1593  _value */\n      dup5\n      swap3\n        /* \"contracts/HwERC20.sol\":1558:1574  balanceOf[_from] */\n      swap1\n        /* \"contracts/HwERC20.sol\":1615:1639  balanceOf[_to] += _value */\n      tag_169\n      swap1\n        /* \"contracts/HwERC20.sol\":1587:1593  _value */\n      dup5\n      swap1\n        /* \"contracts/HwERC20.sol\":1615:1639  balanceOf[_to] += _value */\n      tag_103\n      jump\t// in\n    tag_169:\n      swap3\n      pop\n      pop\n      dup2\n      swap1\n      sstore\n      pop\n        /* \"contracts/HwERC20.sol\":1673:1676  _to */\n      dup3\n      sub(shl(0xa0, 0x01), 0x01)\n        /* \"contracts/HwERC20.sol\":1657:1685  Transfer(_from, _to, _value) */\n      and\n        /* \"contracts/HwERC20.sol\":1666:1671  _from */\n      dup5\n      sub(shl(0xa0, 0x01), 0x01)\n        /* \"contracts/HwERC20.sol\":1657:1685  Transfer(_from, _to, _value) */\n      and\n      0xddf252ad1be2c89b69c2b068fc378daa952ba7f163c4a11628f55a4df523b3ef\n        /* \"contracts/HwERC20.sol\":1678:1684  _value */\n      dup5\n        /* \"contracts/HwERC20.sol\":1657:1685  Transfer(_from, _to, _value) */\n      mload(0x40)\n      tag_170\n      swap2\n        /* \"#utility.yul\":583:608   */\n      dup2\n      mstore\n        /* \"#utility.yul\":571:573   */\n      0x20\n        /* \"#utility.yul\":556:574   */\n      add\n      swap1\n        /* \"#utility.yul\":437:614   */\n      jump\n        /* \"contracts/HwERC20.sol\":1657:1685  Transfer(_from, _to, _value) */\n    tag_170:\n      mload(0x40)\n      dup1\n      swap2\n      sub\n      swap1\n      log3\n        /* \"contracts/HwERC20.sol\":1177:1693  {... */\n      pop\n        /* \"contracts/HwERC20.sol\":1071:1693  function _transfer(... */\n      pop\n      pop\n      pop\n      jump\t// out\n        /* \"#utility.yul\":14:432   */\n    tag_28:\n        /* \"#utility.yul\":163:165   */\n      0x20\n        /* \"#utility.yul\":152:161   */\n      dup2\n        /* \"#utility.yul\":145:166   */\n      mstore\n        /* \"#utility.yul\":126:130   */\n      0x00\n        /* \"#utility.yul\":195:201   */\n      dup3\n        /* \"#utility.yul\":189:202   */\n      mload\n        /* \"#utility.yul\":238:244   */\n      dup1\n        /* \"#utility.yul\":233:235   */\n      0x20\n        /* \"#utility.yul\":222:231   */\n      dup5\n        /* \"#utility.yul\":218:236   */\n      add\n        /* \"#utility.yul\":211:245   */\n      mstore\n        /* \"#utility.yul\":297:303   */\n      dup1\n        /* \"#utility.yul\":292:294   */\n      0x20\n        /* \"#utility.yul\":284:290   */\n      dup6\n        /* \"#utility.yul\":280:295   */\n      add\n        /* \"#utility.yul\":275:277   */\n      0x40\n        /* \"#utility.yul\":264:273   */\n      dup6\n        /* \"#utility.yul\":260:278   */\n      add\n        /* \"#utility.yul\":254:304   */\n      mcopy\n        /* \"#utility.yul\":353:354   */\n      0x00\n        /* \"#utility.yul\":348:350   */\n      0x40\n        /* \"#utility.yul\":339:345   */\n      dup3\n        /* \"#utility.yul\":328:337   */\n      dup6\n        /* \"#utility.yul\":324:346   */\n      add\n        /* \"#utility.yul\":320:351   */\n      add\n        /* \"#utility.yul\":313:355   */\n      mstore\n        /* \"#utility.yul\":423:425   */\n      0x40\n        /* \"#utility.yul\":416:418   */\n      0x1f\n        /* \"#utility.yul\":412:419   */\n      not\n        /* \"#utility.yul\":407:409   */\n      0x1f\n        /* \"#utility.yul\":399:405   */\n      dup4\n        /* \"#utility.yul\":395:410   */\n      add\n        /* \"#utility.yul\":391:420   */\n      and\n        /* \"#utility.yul\":380:389   */\n      dup5\n        /* \"#utility.yul\":376:421   */\n      add\n        /* \"#utility.yul\":372:426   */\n      add\n        /* \"#utility.yul\":364:426   */\n      swap2\n      pop\n      pop\n        /* \"#utility.yul\":14:432   */\n      swap3\n      swap2\n      pop\n      pop\n      jump\t// out\n        /* \"#utility.yul\":619:792   */\n    tag_171:\n        /* \"#utility.yul\":687:707   */\n      dup1\n      calldataload\n      sub(shl(0xa0, 0x01), 0x01)\n        /* \"#utility.yul\":736:767   */\n      dup2\n      and\n        /* \"#utility.yul\":726:768   */\n      dup2\n      eq\n        /* \"#utility.yul\":716:786   */\n      tag_142\n      jumpi\n        /* \"#utility.yul\":782:783   */\n      0x00\n        /* \"#utility.yul\":779:780   */\n      0x00\n        /* \"#utility.yul\":772:784   */\n      revert\n        /* \"#utility.yul\":797:1171   */\n    tag_37:\n        /* \"#utility.yul\":874:880   */\n      0x00\n        /* \"#utility.yul\":882:888   */\n      0x00\n        /* \"#utility.yul\":890:896   */\n      0x00\n        /* \"#utility.yul\":943:945   */\n      0x60\n        /* \"#utility.yul\":931:940   */\n      dup5\n        /* \"#utility.yul\":922:929   */\n      dup7\n        /* \"#utility.yul\":918:941   */\n      sub\n        /* \"#utility.yul\":914:946   */\n      slt\n        /* \"#utility.yul\":911:963   */\n      iszero\n      tag_181\n      jumpi\n        /* \"#utility.yul\":959:960   */\n      0x00\n        /* \"#utility.yul\":956:957   */\n      0x00\n        /* \"#utility.yul\":949:961   */\n      revert\n        /* \"#utility.yul\":911:963   */\n    tag_181:\n        /* \"#utility.yul\":982:1011   */\n      tag_182\n        /* \"#utility.yul\":1001:1010   */\n      dup5\n        /* \"#utility.yul\":982:1011   */\n      tag_171\n      jump\t// in\n    tag_182:\n        /* \"#utility.yul\":972:1011   */\n      swap3\n      pop\n        /* \"#utility.yul\":1030:1068   */\n      tag_183\n        /* \"#utility.yul\":1064:1066   */\n      0x20\n        /* \"#utility.yul\":1053:1062   */\n      dup6\n        /* \"#utility.yul\":1049:1067   */\n      add\n        /* \"#utility.yul\":1030:1068   */\n      tag_171\n      jump\t// in\n    tag_183:\n        /* \"#utility.yul\":797:1171   */\n      swap3\n      swap6\n        /* \"#utility.yul\":1020:1068   */\n      swap3\n      swap5\n      pop\n      pop\n      pop\n        /* \"#utility.yul\":1137:1139   */\n      0x40\n        /* \"#utility.yul\":1122:1140   */\n      swap2\n      swap1\n      swap2\n      add\n        /* \"#utility.yul\":1109:1141   */\n      calldataload\n      swap1\n        /* \"#utility.yul\":797:1171   */\n      jump\t// out\n        /* \"#utility.yul\":1368:1594   */\n    tag_44:\n        /* \"#utility.yul\":1427:1433   */\n      0x00\n        /* \"#utility.yul\":1480:1482   */\n      0x20\n        /* \"#utility.yul\":1468:1477   */\n      dup3\n        /* \"#utility.yul\":1459:1466   */\n      dup5\n        /* \"#utility.yul\":1455:1478   */\n      sub\n        /* \"#utility.yul\":1451:1483   */\n      slt\n        /* \"#utility.yul\":1448:1500   */\n      iszero\n      tag_186\n      jumpi\n        /* \"#utility.yul\":1496:1497   */\n      0x00\n        /* \"#utility.yul\":1493:1494   */\n      0x00\n        /* \"#utility.yul\":1486:1498   */\n      revert\n        /* \"#utility.yul\":1448:1500   */\n    tag_186:\n      pop\n        /* \"#utility.yul\":1541:1564   */\n      calldataload\n      swap2\n        /* \"#utility.yul\":1368:1594   */\n      swap1\n      pop\n      jump\t// out\n        /* \"#utility.yul\":1599:1868   */\n    tag_49:\n        /* \"#utility.yul\":1656:1662   */\n      0x00\n        /* \"#utility.yul\":1709:1711   */\n      0x20\n        /* \"#utility.yul\":1697:1706   */\n      dup3\n        /* \"#utility.yul\":1688:1695   */\n      dup5\n        /* \"#utility.yul\":1684:1707   */\n      sub\n        /* \"#utility.yul\":1680:1712   */\n      slt\n        /* \"#utility.yul\":1677:1729   */\n      iszero\n      tag_188\n      jumpi\n        /* \"#utility.yul\":1725:1726   */\n      0x00\n        /* \"#utility.yul\":1722:1723   */\n      0x00\n        /* \"#utility.yul\":1715:1727   */\n      revert\n        /* \"#utility.yul\":1677:1729   */\n    tag_188:\n        /* \"#utility.yul\":1764:1773   */\n      dup2\n        /* \"#utility.yul\":1751:1774   */\n      calldataload\n        /* \"#utility.yul\":1814:1818   */\n      0xff\n        /* \"#utility.yul\":1807:1812   */\n      dup2\n        /* \"#utility.yul\":1803:1819   */\n      and\n        /* \"#utility.yul\":1796:1801   */\n      dup2\n        /* \"#utility.yul\":1793:1820   */\n      eq\n        /* \"#utility.yul\":1783:1838   */\n      tag_113\n      jumpi\n        /* \"#utility.yul\":1834:1835   */\n      0x00\n        /* \"#utility.yul\":1831:1832   */\n      0x00\n        /* \"#utility.yul\":1824:1836   */\n      revert\n        /* \"#utility.yul\":2062:2482   */\n    tag_64:\n        /* \"#utility.yul\":2139:2145   */\n      0x00\n        /* \"#utility.yul\":2147:2153   */\n      0x00\n        /* \"#utility.yul\":2155:2161   */\n      0x00\n        /* \"#utility.yul\":2208:2210   */\n      0x60\n        /* \"#utility.yul\":2196:2205   */\n      dup5\n        /* \"#utility.yul\":2187:2194   */\n      dup7\n        /* \"#utility.yul\":2183:2206   */\n      sub\n        /* \"#utility.yul\":2179:2211   */\n      slt\n        /* \"#utility.yul\":2176:2228   */\n      iszero\n      tag_192\n      jumpi\n        /* \"#utility.yul\":2224:2225   */\n      0x00\n        /* \"#utility.yul\":2221:2222   */\n      0x00\n        /* \"#utility.yul\":2214:2226   */\n      revert\n        /* \"#utility.yul\":2176:2228   */\n    tag_192:\n        /* \"#utility.yul\":2247:2276   */\n      tag_193\n        /* \"#utility.yul\":2266:2275   */\n      dup5\n        /* \"#utility.yul\":2247:2276   */\n      tag_171\n      jump\t// in\n    tag_193:\n        /* \"#utility.yul\":2237:2276   */\n      swap6\n        /* \"#utility.yul\":2345:2347   */\n      0x20\n        /* \"#utility.yul\":2330:2348   */\n      dup6\n      add\n        /* \"#utility.yul\":2317:2349   */\n      calldataload\n      swap6\n      pop\n        /* \"#utility.yul\":2446:2448   */\n      0x40\n        /* \"#utility.yul\":2431:2449   */\n      swap1\n      swap5\n      add\n        /* \"#utility.yul\":2418:2450   */\n      calldataload\n      swap4\n        /* \"#utility.yul\":2062:2482   */\n      swap3\n      pop\n      pop\n      pop\n      jump\t// out\n        /* \"#utility.yul\":2695:2881   */\n    tag_75:\n        /* \"#utility.yul\":2754:2760   */\n      0x00\n        /* \"#utility.yul\":2807:2809   */\n      0x20\n        /* \"#utility.yul\":2795:2804   */\n      dup3\n        /* \"#utility.yul\":2786:2793   */\n      dup5\n        /* \"#utility.yul\":2782:2805   */\n      sub\n        /* \"#utility.yul\":2778:2810   */\n      slt\n        /* \"#utility.yul\":2775:2827   */\n      iszero\n      tag_196\n      jumpi\n        /* \"#utility.yul\":2823:2824   */\n      0x00\n        /* \"#utility.yul\":2820:2821   */\n      0x00\n        /* \"#utility.yul\":2813:2825   */\n      revert\n        /* \"#utility.yul\":2775:2827   */\n    tag_196:\n        /* \"#utility.yul\":2846:2875   */\n      tag_113\n        /* \"#utility.yul\":2865:2874   */\n      dup3\n        /* \"#utility.yul\":2846:2875   */\n      tag_171\n      jump\t// in\n        /* \"#utility.yul\":2886:3186   */\n    tag_87:\n        /* \"#utility.yul\":2954:2960   */\n      0x00\n        /* \"#utility.yul\":2962:2968   */\n      0x00\n        /* \"#utility.yul\":3015:3017   */\n      0x40\n        /* \"#utility.yul\":3003:3012   */\n      dup4\n        /* \"#utility.yul\":2994:3001   */\n      dup6\n        /* \"#utility.yul\":2990:3013   */\n      sub\n        /* \"#utility.yul\":2986:3018   */\n      slt\n        /* \"#utility.yul\":2983:3035   */\n      iszero\n      tag_199\n      jumpi\n        /* \"#utility.yul\":3031:3032   */\n      0x00\n        /* \"#utility.yul\":3028:3029   */\n      0x00\n        /* \"#utility.yul\":3021:3033   */\n      revert\n        /* \"#utility.yul\":2983:3035   */\n    tag_199:\n        /* \"#utility.yul\":3054:3083   */\n      tag_200\n        /* \"#utility.yul\":3073:3082   */\n      dup4\n        /* \"#utility.yul\":3054:3083   */\n      tag_171\n      jump\t// in\n    tag_200:\n        /* \"#utility.yul\":3044:3083   */\n      swap5\n        /* \"#utility.yul\":3152:3154   */\n      0x20\n        /* \"#utility.yul\":3137:3155   */\n      swap4\n      swap1\n      swap4\n      add\n        /* \"#utility.yul\":3124:3156   */\n      calldataload\n      swap4\n      pop\n      pop\n      pop\n        /* \"#utility.yul\":2886:3186   */\n      jump\t// out\n        /* \"#utility.yul\":3191:3451   */\n    tag_93:\n        /* \"#utility.yul\":3259:3265   */\n      0x00\n        /* \"#utility.yul\":3267:3273   */\n      0x00\n        /* \"#utility.yul\":3320:3322   */\n      0x40\n        /* \"#utility.yul\":3308:3317   */\n      dup4\n        /* \"#utility.yul\":3299:3306   */\n      dup6\n        /* \"#utility.yul\":3295:3318   */\n      sub\n        /* \"#utility.yul\":3291:3323   */\n      slt\n        /* \"#utility.yul\":3288:3340   */\n      iszero\n      tag_202\n      jumpi\n        /* \"#utility.yul\":3336:3337   */\n      0x00\n        /* \"#utility.yul\":3333:3334   */\n      0x00\n        /* \"#utility.yul\":3326:3338   */\n      revert\n        /* \"#utility.yul\":3288:3340   */\n    tag_202:\n        /* \"#utility.yul\":3359:3388   */\n      tag_203\n        /* \"#utility.yul\":3378:3387   */\n      dup4\n        /* \"#utility.yul\":3359:3388   */\n      tag_171\n      jump\t// in\n    tag_203:\n        /* \"#utility.yul\":3349:3388   */\n      swap2\n      pop\n        /* \"#utility.yul\":3407:3445   */\n      tag_204\n        /* \"#utility.yul\":3441:3443   */\n      0x20\n        /* \"#utility.yul\":3430:3439   */\n      dup5\n        /* \"#utility.yul\":3426:3444   */\n      add\n        /* \"#utility.yul\":3407:3445   */\n      tag_171\n      jump\t// in\n    tag_204:\n        /* \"#utility.yul\":3397:3445   */\n      swap1\n      pop\n        /* \"#utility.yul\":3191:3451   */\n      swap3\n      pop\n      swap3\n      swap1\n      pop\n      jump\t// out\n        /* \"#utility.yul\":3456:3583   */\n    tag_172:\n        /* \"#utility.yul\":3517:3527   */\n      0x4e487b71\n        /* \"#utility.yul\":3512:3515   */\n      0xe0\n        /* \"#utility.yul\":3508:3528   */\n      shl\n        /* \"#utility.yul\":3505:3506   */\n      0x00\n        /* \"#utility.yul\":3498:3529   */\n      mstore\n        /* \"#utility.yul\":3548:3552   */\n      0x11\n        /* \"#utility.yul\":3545:3546   */\n      0x04\n        /* \"#utility.yul\":3538:3553   */\n      mstore\n        /* \"#utility.yul\":3572:3576   */\n      0x24\n        /* \"#utility.yul\":3569:3570   */\n      0x00\n        /* \"#utility.yul\":3562:3577   */\n      revert\n        /* \"#utility.yul\":3588:3963   */\n    tag_173:\n        /* \"#utility.yul\":3676:3677   */\n      0x01\n        /* \"#utility.yul\":3694:3699   */\n      dup2\n        /* \"#utility.yul\":3708:3957   */\n    tag_207:\n        /* \"#utility.yul\":3729:3730   */\n      0x01\n        /* \"#utility.yul\":3719:3727   */\n      dup5\n        /* \"#utility.yul\":3716:3731   */\n      gt\n        /* \"#utility.yul\":3708:3957   */\n      iszero\n      tag_209\n      jumpi\n        /* \"#utility.yul\":3779:3783   */\n      dup1\n        /* \"#utility.yul\":3774:3777   */\n      dup6\n        /* \"#utility.yul\":3770:3784   */\n      div\n        /* \"#utility.yul\":3764:3768   */\n      dup2\n        /* \"#utility.yul\":3761:3785   */\n      gt\n        /* \"#utility.yul\":3758:3808   */\n      iszero\n      tag_211\n      jumpi\n        /* \"#utility.yul\":3788:3806   */\n      tag_211\n      tag_172\n      jump\t// in\n    tag_211:\n        /* \"#utility.yul\":3838:3839   */\n      0x01\n        /* \"#utility.yul\":3828:3836   */\n      dup5\n        /* \"#utility.yul\":3824:3840   */\n      and\n        /* \"#utility.yul\":3821:3870   */\n      iszero\n      tag_212\n      jumpi\n        /* \"#utility.yul\":3852:3868   */\n      swap1\n      dup2\n      mul\n      swap1\n        /* \"#utility.yul\":3821:3870   */\n    tag_212:\n        /* \"#utility.yul\":3935:3936   */\n      0x01\n        /* \"#utility.yul\":3931:3947   */\n      swap4\n      swap1\n      swap4\n      shr\n      swap3\n        /* \"#utility.yul\":3891:3906   */\n      dup1\n      mul\n        /* \"#utility.yul\":3708:3957   */\n      jump(tag_207)\n    tag_209:\n        /* \"#utility.yul\":3588:3963   */\n      swap4\n      pop\n      swap4\n      swap2\n      pop\n      pop\n      jump\t// out\n        /* \"#utility.yul\":3968:4870   */\n    tag_174:\n        /* \"#utility.yul\":4017:4022   */\n      0x00\n        /* \"#utility.yul\":4047:4055   */\n      dup3\n        /* \"#utility.yul\":4037:4117   */\n      tag_214\n      jumpi\n      pop\n        /* \"#utility.yul\":4088:4089   */\n      0x01\n        /* \"#utility.yul\":4102:4107   */\n      jump(tag_160)\n        /* \"#utility.yul\":4037:4117   */\n    tag_214:\n        /* \"#utility.yul\":4136:4140   */\n      dup2\n        /* \"#utility.yul\":4126:4202   */\n      tag_215\n      jumpi\n      pop\n        /* \"#utility.yul\":4173:4174   */\n      0x00\n        /* \"#utility.yul\":4187:4192   */\n      jump(tag_160)\n        /* \"#utility.yul\":4126:4202   */\n    tag_215:\n        /* \"#utility.yul\":4218:4222   */\n      dup2\n        /* \"#utility.yul\":4236:4237   */\n      0x01\n        /* \"#utility.yul\":4231:4290   */\n      dup2\n      eq\n      tag_217\n      jumpi\n        /* \"#utility.yul\":4304:4305   */\n      0x02\n        /* \"#utility.yul\":4299:4473   */\n      dup2\n      eq\n      tag_218\n      jumpi\n        /* \"#utility.yul\":4211:4473   */\n      jump(tag_216)\n        /* \"#utility.yul\":4231:4290   */\n    tag_217:\n        /* \"#utility.yul\":4261:4262   */\n      0x01\n        /* \"#utility.yul\":4252:4262   */\n      swap2\n      pop\n        /* \"#utility.yul\":4275:4280   */\n      pop\n      jump(tag_160)\n        /* \"#utility.yul\":4299:4473   */\n    tag_218:\n        /* \"#utility.yul\":4336:4339   */\n      0xff\n        /* \"#utility.yul\":4326:4334   */\n      dup5\n        /* \"#utility.yul\":4323:4340   */\n      gt\n        /* \"#utility.yul\":4320:4363   */\n      iszero\n      tag_220\n      jumpi\n        /* \"#utility.yul\":4343:4361   */\n      tag_220\n      tag_172\n      jump\t// in\n    tag_220:\n      pop\n      pop\n        /* \"#utility.yul\":4399:4400   */\n      0x01\n        /* \"#utility.yul\":4385:4401   */\n      dup3\n      shl\n        /* \"#utility.yul\":4458:4463   */\n      jump(tag_160)\n        /* \"#utility.yul\":4211:4473   */\n    tag_216:\n      pop\n        /* \"#utility.yul\":4557:4559   */\n      0x20\n        /* \"#utility.yul\":4547:4555   */\n      dup4\n        /* \"#utility.yul\":4544:4560   */\n      lt\n        /* \"#utility.yul\":4538:4541   */\n      0x0133\n        /* \"#utility.yul\":4532:4536   */\n      dup4\n        /* \"#utility.yul\":4529:4542   */\n      lt\n        /* \"#utility.yul\":4525:4561   */\n      and\n        /* \"#utility.yul\":4519:4521   */\n      0x4e\n        /* \"#utility.yul\":4509:4517   */\n      dup5\n        /* \"#utility.yul\":4506:4522   */\n      lt\n        /* \"#utility.yul\":4501:4503   */\n      0x0b\n        /* \"#utility.yul\":4495:4499   */\n      dup5\n        /* \"#utility.yul\":4492:4504   */\n      lt\n        /* \"#utility.yul\":4488:4523   */\n      and\n        /* \"#utility.yul\":4485:4562   */\n      or\n        /* \"#utility.yul\":4482:4685   */\n      iszero\n      tag_221\n      jumpi\n      pop\n        /* \"#utility.yul\":4594:4613   */\n      dup2\n      dup2\n      exp\n        /* \"#utility.yul\":4670:4675   */\n      jump(tag_160)\n        /* \"#utility.yul\":4482:4685   */\n    tag_221:\n        /* \"#utility.yul\":4717:4759   */\n      tag_222\n      not(0x00)\n        /* \"#utility.yul\":4742:4750   */\n      dup5\n        /* \"#utility.yul\":4736:4740   */\n      dup5\n        /* \"#utility.yul\":4717:4759   */\n      tag_173\n      jump\t// in\n    tag_222:\n        /* \"#utility.yul\":4795:4801   */\n      dup1\n        /* \"#utility.yul\":4791:4792   */\n      0x00\n        /* \"#utility.yul\":4787:4793   */\n      not\n        /* \"#utility.yul\":4783:4802   */\n      div\n        /* \"#utility.yul\":4774:4781   */\n      dup3\n        /* \"#utility.yul\":4771:4803   */\n      gt\n        /* \"#utility.yul\":4768:4826   */\n      iszero\n      tag_224\n      jumpi\n        /* \"#utility.yul\":4806:4824   */\n      tag_224\n      tag_172\n      jump\t// in\n    tag_224:\n        /* \"#utility.yul\":4844:4864   */\n      mul\n      swap4\n        /* \"#utility.yul\":3968:4870   */\n      swap3\n      pop\n      pop\n      pop\n      jump\t// out\n        /* \"#utility.yul\":4875:5015   */\n    tag_98:\n        /* \"#utility.yul\":4933:4938   */\n      0x00\n        /* \"#utility.yul\":4962:5009   */\n      tag_113\n        /* \"#utility.yul\":5003:5007   */\n      0xff\n        /* \"#utility.yul\":4993:5001   */\n      dup5\n        /* \"#utility.yul\":4989:5008   */\n      and\n        /* \"#utility.yul\":4983:4987   */\n      dup4\n        /* \"#utility.yul\":4962:5009   */\n      tag_174\n      jump\t// in\n        /* \"#utility.yul\":5020:5188   */\n    tag_100:\n        /* \"#utility.yul\":5093:5102   */\n      dup1\n      dup3\n      mul\n        /* \"#utility.yul\":5124:5133   */\n      dup2\n      iszero\n        /* \"#utility.yul\":5141:5156   */\n      dup3\n      dup3\n      div\n        /* \"#utility.yul\":5135:5157   */\n      dup5\n      eq\n        /* \"#utility.yul\":5121:5158   */\n      or\n        /* \"#utility.yul\":5111:5182   */\n      tag_160\n      jumpi\n        /* \"#utility.yul\":5162:5180   */\n      tag_160\n      tag_172\n      jump\t// in\n        /* \"#utility.yul\":5193:5318   */\n    tag_103:\n        /* \"#utility.yul\":5258:5267   */\n      dup1\n      dup3\n      add\n        /* \"#utility.yul\":5279:5289   */\n      dup1\n      dup3\n      gt\n        /* \"#utility.yul\":5276:5312   */\n      iszero\n      tag_160\n      jumpi\n        /* \"#utility.yul\":5292:5310   */\n      tag_160\n      tag_172\n      jump\t// in\n        /* \"#utility.yul\":5682:6062   */\n    tag_108:\n        /* \"#utility.yul\":5761:5762   */\n      0x01\n        /* \"#utility.yul\":5757:5769   */\n      dup2\n      dup2\n      shr\n      swap1\n        /* \"#utility.yul\":5804:5816   */\n      dup3\n      and\n      dup1\n        /* \"#utility.yul\":5825:5886   */\n      tag_235\n      jumpi\n        /* \"#utility.yul\":5879:5883   */\n      0x7f\n        /* \"#utility.yul\":5871:5877   */\n      dup3\n        /* \"#utility.yul\":5867:5884   */\n      and\n        /* \"#utility.yul\":5857:5884   */\n      swap2\n      pop\n        /* \"#utility.yul\":5825:5886   */\n    tag_235:\n        /* \"#utility.yul\":5932:5934   */\n      0x20\n        /* \"#utility.yul\":5924:5930   */\n      dup3\n        /* \"#utility.yul\":5921:5935   */\n      lt\n        /* \"#utility.yul\":5901:5919   */\n      dup2\n        /* \"#utility.yul\":5898:5936   */\n      sub\n        /* \"#utility.yul\":5895:6056   */\n      tag_236\n      jumpi\n        /* \"#utility.yul\":5978:5988   */\n      0x4e487b71\n        /* \"#utility.yul\":5973:5976   */\n      0xe0\n        /* \"#utility.yul\":5969:5989   */\n      shl\n        /* \"#utility.yul\":5966:5967   */\n      0x00\n        /* \"#utility.yul\":5959:5990   */\n      mstore\n        /* \"#utility.yul\":6013:6017   */\n      0x22\n        /* \"#utility.yul\":6010:6011   */\n      0x04\n        /* \"#utility.yul\":6003:6018   */\n      mstore\n        /* \"#utility.yul\":6041:6045   */\n      0x24\n        /* \"#utility.yul\":6038:6039   */\n      0x00\n        /* \"#utility.yul\":6031:6046   */\n      revert\n        /* \"#utility.yul\":5895:6056   */\n    tag_236:\n      pop\n        /* \"#utility.yul\":5682:6062   */\n      swap2\n      swap1\n      pop\n      jump\t// out\n\n    auxdata: 0xa2646970667358221220005ab602d5531d6c5a59dc42e38120ed3288e0a3d2b1153270451e5413af84cc64736f6c634300081e0033\n}\n",
				"bytecode": {
					"linkReferences": {},
					"object": "608060405234801561000f575f5ffd5b5060405161112f38038061112f83398101604081905261002e9161014c565b5f610039868261025e565b506001610046858261025e565b506002805460ff191660ff851617905561006183600a610411565b61006b9083610426565b6003556004805460ff929092166001600160a81b03199092169190911761010033021790555061043d92505050565b634e487b7160e01b5f52604160045260245ffd5b5f82601f8301126100bd575f5ffd5b81516001600160401b038111156100d6576100d661009a565b604051601f8201601f19908116603f011681016001600160401b03811182821017156101045761010461009a565b60405281815283820160200185101561011b575f5ffd5b8160208501602083015e5f918101602001919091529392505050565b805160ff81168114610147575f5ffd5b919050565b5f5f5f5f5f60a08688031215610160575f5ffd5b85516001600160401b03811115610175575f5ffd5b610181888289016100ae565b602088015190965090506001600160401b0381111561019e575f5ffd5b6101aa888289016100ae565b9450506101b960408701610137565b9250606086015191506101ce60808701610137565b90509295509295909350565b600181811c908216806101ee57607f821691505b60208210810361020c57634e487b7160e01b5f52602260045260245ffd5b50919050565b601f82111561025957805f5260205f20601f840160051c810160208510156102375750805b601f840160051c820191505b81811015610256575f8155600101610243565b50505b505050565b81516001600160401b038111156102775761027761009a565b61028b8161028584546101da565b84610212565b6020601f8211600181146102bd575f83156102a65750848201515b5f19600385901b1c1916600184901b178455610256565b5f84815260208120601f198516915b828110156102ec57878501518255602094850194600190920191016102cc565b508482101561030957868401515f19600387901b60f8161c191681555b50505050600190811b01905550565b634e487b7160e01b5f52601160045260245ffd5b6001815b60018411156103675780850481111561034b5761034b610318565b600184161561035957908102905b60019390931c928002610330565b935093915050565b5f8261037d5750600161040b565b8161038957505f61040b565b816001811461039f57600281146103a9576103c5565b600191505061040b565b60ff8411156103ba576103ba610318565b50506001821b61040b565b5060208310610133831016604e8410600b84101617156103e8575081810a61040b565b6103f45f19848461032c565b805f190482111561040757610407610318565b0290505b92915050565b5f61041f60ff84168361036f565b9392505050565b808202811582820484141761040b5761040b610318565b610ce58061044a5f395ff3fe6080604052600436106100dc575f3560e01c8063426a84931161007c57806395d89b411161005757806395d89b4114610275578063a6f2ae3a14610289578063a9059cbb14610291578063dd62ed3e146102b0575f5ffd5b8063426a8493146101ef578063653718831461020e57806370a082311461024a575f5ffd5b80632e1a7d4d116100b75780632e1a7d4d1461016d57806330b1921d1461018c578063313ce567146101ab5780633ba0b9a9146101d6575f5ffd5b806306fdde03146100f157806318160ddd1461011b57806323b872dd1461013e575f5ffd5b366100ed576100eb33346102e6565b005b5f5ffd5b3480156100fc575f5ffd5b506101056103af565b60405161011291906109ea565b60405180910390f35b348015610126575f5ffd5b5061013060035481565b604051908152602001610112565b348015610149575f5ffd5b5061015d610158366004610a35565b61043a565b6040519015158152602001610112565b348015610178575f5ffd5b506100eb610187366004610a6f565b61053a565b348015610197575f5ffd5b5061015d6101a6366004610a86565b610695565b3480156101b6575f5ffd5b506002546101c49060ff1681565b60405160ff9091168152602001610112565b3480156101e1575f5ffd5b506004546101c49060ff1681565b3480156101fa575f5ffd5b5061015d610209366004610aa6565b61074f565b348015610219575f5ffd5b506004546102329061010090046001600160a01b031681565b6040516001600160a01b039091168152602001610112565b348015610255575f5ffd5b50610130610264366004610ad6565b60056020525f908152604090205481565b348015610280575f5ffd5b50610105610875565b6100eb610882565b34801561029c575f5ffd5b5061015d6102ab366004610aef565b61088e565b3480156102bb575f5ffd5b506101306102ca366004610b17565b600660209081525f928352604080842090915290825290205481565b6002545f906102f99060ff16600a610c3f565b6004546103099060ff1684610c4d565b6103139190610c4d565b6001600160a01b0384165f9081526005602052604081208054929350839290919061033f908490610c64565b925050819055508060035f8282546103579190610c64565b9091555050600454604080516001600160a01b03861681526020810184905260ff90921682820152517f1cbc5ab135991bd2b6a4b034a04aa2aa086dac1371cb9b16b8b5e2ed6b036bed9181900360600190a1505050565b5f80546103bb90610c77565b80601f01602080910402602001604051908101604052809291908181526020018280546103e790610c77565b80156104325780601f1061040957610100808354040283529160200191610432565b820191905f5260205f20905b81548152906001019060200180831161041557829003601f168201915b505050505081565b5f6001600160a01b03841633146104cd576001600160a01b0384165f908152600660209081526040808320338452909152902054828110156104a457604051637dc7a0d960e11b815233600482015260248101829052604481018490526064015b60405180910390fd5b6001600160a01b0385165f90815260066020908152604080832033845290915290209083900390555b6104d88484846108a4565b826001600160a01b0316846001600160a01b0316336001600160a01b03167fd1398bee19313d6bf672ccb116e51f4a1a947e91c757907f51fbb5b5e56c698f8560405161052791815260200190565b60405180910390a45060015b9392505050565b60045461010090046001600160a01b031633146105935760405162461bcd60e51b81526020600482015260176024820152764e6f7420746865206f776e6572206f6620746f6b656e2160481b604482015260640161049b565b805f036105b55760405163275e9c3f60e01b815233600482015260240161049b565b47818110156105e7576040516315e5cd3f60e31b8152336004820152602481018390526044810182905260640161049b565b6040515f90339084908381818185875af1925050503d805f8114610626576040519150601f19603f3d011682016040523d82523d5f602084013e61062b565b606091505b50909150508015155f0361065b57604051631d39ebc360e01b81523360048201526024810184905260440161049b565b60405183815233907f7fcf532c15f0a6db0bd6d0e038bea71d30d808c7d98cb3bf7268a95bf5081b659060200160405180910390a2505050565b6004545f9061010090046001600160a01b031633146106f05760405162461bcd60e51b81526020600482015260176024820152764e6f7420746865206f776e6572206f6620746f6b656e2160481b604482015260640161049b565b8160ff165f0361070157505f919050565b6004805460ff191660ff84169081179091556040519081527f6424bf7fada081b86bc17d30f962bace2f65c81a0c0e245581ae6050446985209060200160405180910390a15060015b919050565b5f6001600160a01b038416158061076e5750336001600160a01b038516145b1561079757604051634a1406b160e11b81526001600160a01b038516600482015260240161049b565b335f9081526006602090815260408083206001600160a01b03881684529091529020548381146107ca575f915050610533565b335f8181526006602090815260408083206001600160a01b038a1680855290835292819020879055518681529192917f8c5be1e5ebec7d5bd14f71427d1e84f3dd0314c0f7b2291e5b200ac8c7c3b925910160405180910390a360408051828152602081018590526001600160a01b0387169133917fb3fd5071835887567a0671151121894ddccc2842f1d10bedad13e0d17cace9a7910160405180910390a3506001949350505050565b600180546103bb90610c77565b61088c33346102e6565b565b5f61089a3384846108a4565b5060015b92915050565b6001600160a01b0383166108d657604051634b637e8f60e11b81526001600160a01b038416600482015260240161049b565b6001600160a01b0382166109085760405163ec442f0560e01b81526001600160a01b038316600482015260240161049b565b6001600160a01b0383165f908152600560205260409020548181101561095a5760405163391434e360e21b81526001600160a01b0385166004820152602481018290526044810183905260640161049b565b6001600160a01b038085165f90815260056020526040808220858503905591851681529081208054849290610990908490610c64565b92505081905550826001600160a01b0316846001600160a01b03167fddf252ad1be2c89b69c2b068fc378daa952ba7f163c4a11628f55a4df523b3ef846040516109dc91815260200190565b60405180910390a350505050565b602081525f82518060208401528060208501604085015e5f604082850101526040601f19601f83011684010191505092915050565b80356001600160a01b038116811461074a575f5ffd5b5f5f5f60608486031215610a47575f5ffd5b610a5084610a1f565b9250610a5e60208501610a1f565b929592945050506040919091013590565b5f60208284031215610a7f575f5ffd5b5035919050565b5f60208284031215610a96575f5ffd5b813560ff81168114610533575f5ffd5b5f5f5f60608486031215610ab8575f5ffd5b610ac184610a1f565b95602085013595506040909401359392505050565b5f60208284031215610ae6575f5ffd5b61053382610a1f565b5f5f60408385031215610b00575f5ffd5b610b0983610a1f565b946020939093013593505050565b5f5f60408385031215610b28575f5ffd5b610b3183610a1f565b9150610b3f60208401610a1f565b90509250929050565b634e487b7160e01b5f52601160045260245ffd5b6001815b6001841115610b9757808504811115610b7b57610b7b610b48565b6001841615610b8957908102905b60019390931c928002610b60565b935093915050565b5f82610bad5750600161089e565b81610bb957505f61089e565b8160018114610bcf5760028114610bd957610bf5565b600191505061089e565b60ff841115610bea57610bea610b48565b50506001821b61089e565b5060208310610133831016604e8410600b8410161715610c18575081810a61089e565b610c245f198484610b5c565b805f1904821115610c3757610c37610b48565b029392505050565b5f61053360ff841683610b9f565b808202811582820484141761089e5761089e610b48565b8082018082111561089e5761089e610b48565b600181811c90821680610c8b57607f821691505b602082108103610ca957634e487b7160e01b5f52602260045260245ffd5b5091905056fea2646970667358221220005ab602d5531d6c5a59dc42e38120ed3288e0a3d2b1153270451e5413af84cc64736f6c634300081e0033",
					"opcodes": "PUSH1 0x80 PUSH1 0x40 MSTORE CALLVALUE DUP1 ISZERO PUSH2 0xF JUMPI PUSH0 PUSH0 REVERT JUMPDEST POP PUSH1 0x40 MLOAD PUSH2 0x112F CODESIZE SUB DUP1 PUSH2 0x112F DUP4 CODECOPY DUP2 ADD PUSH1 0x40 DUP2 SWAP1 MSTORE PUSH2 0x2E SWAP2 PUSH2 0x14C JUMP JUMPDEST PUSH0 PUSH2 0x39 DUP7 DUP3 PUSH2 0x25E JUMP JUMPDEST POP PUSH1 0x1 PUSH2 0x46 DUP6 DUP3 PUSH2 0x25E JUMP JUMPDEST POP PUSH1 0x2 DUP1 SLOAD PUSH1 0xFF NOT AND PUSH1 0xFF DUP6 AND OR SWAP1 SSTORE PUSH2 0x61 DUP4 PUSH1 0xA PUSH2 0x411 JUMP JUMPDEST PUSH2 0x6B SWAP1 DUP4 PUSH2 0x426 JUMP JUMPDEST PUSH1 0x3 SSTORE PUSH1 0x4 DUP1 SLOAD PUSH1 0xFF SWAP3 SWAP1 SWAP3 AND PUSH1 0x1 PUSH1 0x1 PUSH1 0xA8 SHL SUB NOT SWAP1 SWAP3 AND SWAP2 SWAP1 SWAP2 OR PUSH2 0x100 CALLER MUL OR SWAP1 SSTORE POP PUSH2 0x43D SWAP3 POP POP POP JUMP JUMPDEST PUSH4 0x4E487B71 PUSH1 0xE0 SHL PUSH0 MSTORE PUSH1 0x41 PUSH1 0x4 MSTORE PUSH1 0x24 PUSH0 REVERT JUMPDEST PUSH0 DUP3 PUSH1 0x1F DUP4 ADD SLT PUSH2 0xBD JUMPI PUSH0 PUSH0 REVERT JUMPDEST DUP2 MLOAD PUSH1 0x1 PUSH1 0x1 PUSH1 0x40 SHL SUB DUP2 GT ISZERO PUSH2 0xD6 JUMPI PUSH2 0xD6 PUSH2 0x9A JUMP JUMPDEST PUSH1 0x40 MLOAD PUSH1 0x1F DUP3 ADD PUSH1 0x1F NOT SWAP1 DUP2 AND PUSH1 0x3F ADD AND DUP2 ADD PUSH1 0x1 PUSH1 0x1 PUSH1 0x40 SHL SUB DUP2 GT DUP3 DUP3 LT OR ISZERO PUSH2 0x104 JUMPI PUSH2 0x104 PUSH2 0x9A JUMP JUMPDEST PUSH1 0x40 MSTORE DUP2 DUP2 MSTORE DUP4 DUP3 ADD PUSH1 0x20 ADD DUP6 LT ISZERO PUSH2 0x11B JUMPI PUSH0 PUSH0 REVERT JUMPDEST DUP2 PUSH1 0x20 DUP6 ADD PUSH1 0x20 DUP4 ADD MCOPY PUSH0 SWAP2 DUP2 ADD PUSH1 0x20 ADD SWAP2 SWAP1 SWAP2 MSTORE SWAP4 SWAP3 POP POP POP JUMP JUMPDEST DUP1 MLOAD PUSH1 0xFF DUP2 AND DUP2 EQ PUSH2 0x147 JUMPI PUSH0 PUSH0 REVERT JUMPDEST SWAP2 SWAP1 POP JUMP JUMPDEST PUSH0 PUSH0 PUSH0 PUSH0 PUSH0 PUSH1 0xA0 DUP7 DUP9 SUB SLT ISZERO PUSH2 0x160 JUMPI PUSH0 PUSH0 REVERT JUMPDEST DUP6 MLOAD PUSH1 0x1 PUSH1 0x1 PUSH1 0x40 SHL SUB DUP2 GT ISZERO PUSH2 0x175 JUMPI PUSH0 PUSH0 REVERT JUMPDEST PUSH2 0x181 DUP9 DUP3 DUP10 ADD PUSH2 0xAE JUMP JUMPDEST PUSH1 0x20 DUP9 ADD MLOAD SWAP1 SWAP7 POP SWAP1 POP PUSH1 0x1 PUSH1 0x1 PUSH1 0x40 SHL SUB DUP2 GT ISZERO PUSH2 0x19E JUMPI PUSH0 PUSH0 REVERT JUMPDEST PUSH2 0x1AA DUP9 DUP3 DUP10 ADD PUSH2 0xAE JUMP JUMPDEST SWAP5 POP POP PUSH2 0x1B9 PUSH1 0x40 DUP8 ADD PUSH2 0x137 JUMP JUMPDEST SWAP3 POP PUSH1 0x60 DUP7 ADD MLOAD SWAP2 POP PUSH2 0x1CE PUSH1 0x80 DUP8 ADD PUSH2 0x137 JUMP JUMPDEST SWAP1 POP SWAP3 SWAP6 POP SWAP3 SWAP6 SWAP1 SWAP4 POP JUMP JUMPDEST PUSH1 0x1 DUP2 DUP2 SHR SWAP1 DUP3 AND DUP1 PUSH2 0x1EE JUMPI PUSH1 0x7F DUP3 AND SWAP2 POP JUMPDEST PUSH1 0x20 DUP3 LT DUP2 SUB PUSH2 0x20C JUMPI PUSH4 0x4E487B71 PUSH1 0xE0 SHL PUSH0 MSTORE PUSH1 0x22 PUSH1 0x4 MSTORE PUSH1 0x24 PUSH0 REVERT JUMPDEST POP SWAP2 SWAP1 POP JUMP JUMPDEST PUSH1 0x1F DUP3 GT ISZERO PUSH2 0x259 JUMPI DUP1 PUSH0 MSTORE PUSH1 0x20 PUSH0 KECCAK256 PUSH1 0x1F DUP5 ADD PUSH1 0x5 SHR DUP2 ADD PUSH1 0x20 DUP6 LT ISZERO PUSH2 0x237 JUMPI POP DUP1 JUMPDEST PUSH1 0x1F DUP5 ADD PUSH1 0x5 SHR DUP3 ADD SWAP2 POP JUMPDEST DUP2 DUP2 LT ISZERO PUSH2 0x256 JUMPI PUSH0 DUP2 SSTORE PUSH1 0x1 ADD PUSH2 0x243 JUMP JUMPDEST POP POP JUMPDEST POP POP POP JUMP JUMPDEST DUP2 MLOAD PUSH1 0x1 PUSH1 0x1 PUSH1 0x40 SHL SUB DUP2 GT ISZERO PUSH2 0x277 JUMPI PUSH2 0x277 PUSH2 0x9A JUMP JUMPDEST PUSH2 0x28B DUP2 PUSH2 0x285 DUP5 SLOAD PUSH2 0x1DA JUMP JUMPDEST DUP5 PUSH2 0x212 JUMP JUMPDEST PUSH1 0x20 PUSH1 0x1F DUP3 GT PUSH1 0x1 DUP2 EQ PUSH2 0x2BD JUMPI PUSH0 DUP4 ISZERO PUSH2 0x2A6 JUMPI POP DUP5 DUP3 ADD MLOAD JUMPDEST PUSH0 NOT PUSH1 0x3 DUP6 SWAP1 SHL SHR NOT AND PUSH1 0x1 DUP5 SWAP1 SHL OR DUP5 SSTORE PUSH2 0x256 JUMP JUMPDEST PUSH0 DUP5 DUP2 MSTORE PUSH1 0x20 DUP2 KECCAK256 PUSH1 0x1F NOT DUP6 AND SWAP2 JUMPDEST DUP3 DUP2 LT ISZERO PUSH2 0x2EC JUMPI DUP8 DUP6 ADD MLOAD DUP3 SSTORE PUSH1 0x20 SWAP5 DUP6 ADD SWAP5 PUSH1 0x1 SWAP1 SWAP3 ADD SWAP2 ADD PUSH2 0x2CC JUMP JUMPDEST POP DUP5 DUP3 LT ISZERO PUSH2 0x309 JUMPI DUP7 DUP5 ADD MLOAD PUSH0 NOT PUSH1 0x3 DUP8 SWAP1 SHL PUSH1 0xF8 AND SHR NOT AND DUP2 SSTORE JUMPDEST POP POP POP POP PUSH1 0x1 SWAP1 DUP2 SHL ADD SWAP1 SSTORE POP JUMP JUMPDEST PUSH4 0x4E487B71 PUSH1 0xE0 SHL PUSH0 MSTORE PUSH1 0x11 PUSH1 0x4 MSTORE PUSH1 0x24 PUSH0 REVERT JUMPDEST PUSH1 0x1 DUP2 JUMPDEST PUSH1 0x1 DUP5 GT ISZERO PUSH2 0x367 JUMPI DUP1 DUP6 DIV DUP2 GT ISZERO PUSH2 0x34B JUMPI PUSH2 0x34B PUSH2 0x318 JUMP JUMPDEST PUSH1 0x1 DUP5 AND ISZERO PUSH2 0x359 JUMPI SWAP1 DUP2 MUL SWAP1 JUMPDEST PUSH1 0x1 SWAP4 SWAP1 SWAP4 SHR SWAP3 DUP1 MUL PUSH2 0x330 JUMP JUMPDEST SWAP4 POP SWAP4 SWAP2 POP POP JUMP JUMPDEST PUSH0 DUP3 PUSH2 0x37D JUMPI POP PUSH1 0x1 PUSH2 0x40B JUMP JUMPDEST DUP2 PUSH2 0x389 JUMPI POP PUSH0 PUSH2 0x40B JUMP JUMPDEST DUP2 PUSH1 0x1 DUP2 EQ PUSH2 0x39F JUMPI PUSH1 0x2 DUP2 EQ PUSH2 0x3A9 JUMPI PUSH2 0x3C5 JUMP JUMPDEST PUSH1 0x1 SWAP2 POP POP PUSH2 0x40B JUMP JUMPDEST PUSH1 0xFF DUP5 GT ISZERO PUSH2 0x3BA JUMPI PUSH2 0x3BA PUSH2 0x318 JUMP JUMPDEST POP POP PUSH1 0x1 DUP3 SHL PUSH2 0x40B JUMP JUMPDEST POP PUSH1 0x20 DUP4 LT PUSH2 0x133 DUP4 LT AND PUSH1 0x4E DUP5 LT PUSH1 0xB DUP5 LT AND OR ISZERO PUSH2 0x3E8 JUMPI POP DUP2 DUP2 EXP PUSH2 0x40B JUMP JUMPDEST PUSH2 0x3F4 PUSH0 NOT DUP5 DUP5 PUSH2 0x32C JUMP JUMPDEST DUP1 PUSH0 NOT DIV DUP3 GT ISZERO PUSH2 0x407 JUMPI PUSH2 0x407 PUSH2 0x318 JUMP JUMPDEST MUL SWAP1 POP JUMPDEST SWAP3 SWAP2 POP POP JUMP JUMPDEST PUSH0 PUSH2 0x41F PUSH1 0xFF DUP5 AND DUP4 PUSH2 0x36F JUMP JUMPDEST SWAP4 SWAP3 POP POP POP JUMP JUMPDEST DUP1 DUP3 MUL DUP2 ISZERO DUP3 DUP3 DIV DUP5 EQ OR PUSH2 0x40B JUMPI PUSH2 0x40B PUSH2 0x318 JUMP JUMPDEST PUSH2 0xCE5 DUP1 PUSH2 0x44A PUSH0 CODECOPY PUSH0 RETURN INVALID PUSH1 0x80 PUSH1 0x40 MSTORE PUSH1 0x4 CALLDATASIZE LT PUSH2 0xDC JUMPI PUSH0 CALLDATALOAD PUSH1 0xE0 SHR DUP1 PUSH4 0x426A8493 GT PUSH2 0x7C JUMPI DUP1 PUSH4 0x95D89B41 GT PUSH2 0x57 JUMPI DUP1 PUSH4 0x95D89B41 EQ PUSH2 0x275 JUMPI DUP1 PUSH4 0xA6F2AE3A EQ PUSH2 0x289 JUMPI DUP1 PUSH4 0xA9059CBB EQ PUSH2 0x291 JUMPI DUP1 PUSH4 0xDD62ED3E EQ PUSH2 0x2B0 JUMPI PUSH0 PUSH0 REVERT JUMPDEST DUP1 PUSH4 0x426A8493 EQ PUSH2 0x1EF JUMPI DUP1 PUSH4 0x65371883 EQ PUSH2 0x20E JUMPI DUP1 PUSH4 0x70A08231 EQ PUSH2 0x24A JUMPI PUSH0 PUSH0 REVERT JUMPDEST DUP1 PUSH4 0x2E1A7D4D GT PUSH2 0xB7 JUMPI DUP1 PUSH4 0x2E1A7D4D EQ PUSH2 0x16D JUMPI DUP1 PUSH4 0x30B1921D EQ PUSH2 0x18C JUMPI DUP1 PUSH4 0x313CE567 EQ PUSH2 0x1AB JUMPI DUP1 PUSH4 0x3BA0B9A9 EQ PUSH2 0x1D6 JUMPI PUSH0 PUSH0 REVERT JUMPDEST DUP1 PUSH4 0x6FDDE03 EQ PUSH2 0xF1 JUMPI DUP1 PUSH4 0x18160DDD EQ PUSH2 0x11B JUMPI DUP1 PUSH4 0x23B872DD EQ PUSH2 0x13E JUMPI PUSH0 PUSH0 REVERT JUMPDEST CALLDATASIZE PUSH2 0xED JUMPI PUSH2 0xEB CALLER CALLVALUE PUSH2 0x2E6 JUMP JUMPDEST STOP JUMPDEST PUSH0 PUSH0 REVERT JUMPDEST CALLVALUE DUP1 ISZERO PUSH2 0xFC JUMPI PUSH0 PUSH0 REVERT JUMPDEST POP PUSH2 0x105 PUSH2 0x3AF JUMP JUMPDEST PUSH1 0x40 MLOAD PUSH2 0x112 SWAP2 SWAP1 PUSH2 0x9EA JUMP JUMPDEST PUSH1 0x40 MLOAD DUP1 SWAP2 SUB SWAP1 RETURN JUMPDEST CALLVALUE DUP1 ISZERO PUSH2 0x126 JUMPI PUSH0 PUSH0 REVERT JUMPDEST POP PUSH2 0x130 PUSH1 0x3 SLOAD DUP2 JUMP JUMPDEST PUSH1 0x40 MLOAD SWAP1 DUP2 MSTORE PUSH1 0x20 ADD PUSH2 0x112 JUMP JUMPDEST CALLVALUE DUP1 ISZERO PUSH2 0x149 JUMPI PUSH0 PUSH0 REVERT JUMPDEST POP PUSH2 0x15D PUSH2 0x158 CALLDATASIZE PUSH1 0x4 PUSH2 0xA35 JUMP JUMPDEST PUSH2 0x43A JUMP JUMPDEST PUSH1 0x40 MLOAD SWAP1 ISZERO ISZERO DUP2 MSTORE PUSH1 0x20 ADD PUSH2 0x112 JUMP JUMPDEST CALLVALUE DUP1 ISZERO PUSH2 0x178 JUMPI PUSH0 PUSH0 REVERT JUMPDEST POP PUSH2 0xEB PUSH2 0x187 CALLDATASIZE PUSH1 0x4 PUSH2 0xA6F JUMP JUMPDEST PUSH2 0x53A JUMP JUMPDEST CALLVALUE DUP1 ISZERO PUSH2 0x197 JUMPI PUSH0 PUSH0 REVERT JUMPDEST POP PUSH2 0x15D PUSH2 0x1A6 CALLDATASIZE PUSH1 0x4 PUSH2 0xA86 JUMP JUMPDEST PUSH2 0x695 JUMP JUMPDEST CALLVALUE DUP1 ISZERO PUSH2 0x1B6 JUMPI PUSH0 PUSH0 REVERT JUMPDEST POP PUSH1 0x2 SLOAD PUSH2 0x1C4 SWAP1 PUSH1 0xFF AND DUP2 JUMP JUMPDEST PUSH1 0x40 MLOAD PUSH1 0xFF SWAP1 SWAP2 AND DUP2 MSTORE PUSH1 0x20 ADD PUSH2 0x112 JUMP JUMPDEST CALLVALUE DUP1 ISZERO PUSH2 0x1E1 JUMPI PUSH0 PUSH0 REVERT JUMPDEST POP PUSH1 0x4 SLOAD PUSH2 0x1C4 SWAP1 PUSH1 0xFF AND DUP2 JUMP JUMPDEST CALLVALUE DUP1 ISZERO PUSH2 0x1FA JUMPI PUSH0 PUSH0 REVERT JUMPDEST POP PUSH2 0x15D PUSH2 0x209 CALLDATASIZE PUSH1 0x4 PUSH2 0xAA6 JUMP JUMPDEST PUSH2 0x74F JUMP JUMPDEST CALLVALUE DUP1 ISZERO PUSH2 0x219 JUMPI PUSH0 PUSH0 REVERT JUMPDEST POP PUSH1 0x4 SLOAD PUSH2 0x232 SWAP1 PUSH2 0x100 SWAP1 DIV PUSH1 0x1 PUSH1 0x1 PUSH1 0xA0 SHL SUB AND DUP2 JUMP JUMPDEST PUSH1 0x40 MLOAD PUSH1 0x1 PUSH1 0x1 PUSH1 0xA0 SHL SUB SWAP1 SWAP2 AND DUP2 MSTORE PUSH1 0x20 ADD PUSH2 0x112 JUMP JUMPDEST CALLVALUE DUP1 ISZERO PUSH2 0x255 JUMPI PUSH0 PUSH0 REVERT JUMPDEST POP PUSH2 0x130 PUSH2 0x264 CALLDATASIZE PUSH1 0x4 PUSH2 0xAD6 JUMP JUMPDEST PUSH1 0x5 PUSH1 0x20 MSTORE PUSH0 SWAP1 DUP2 MSTORE PUSH1 0x40 SWAP1 KECCAK256 SLOAD DUP2 JUMP JUMPDEST CALLVALUE DUP1 ISZERO PUSH2 0x280 JUMPI PUSH0 PUSH0 REVERT JUMPDEST POP PUSH2 0x105 PUSH2 0x875 JUMP JUMPDEST PUSH2 0xEB PUSH2 0x882 JUMP JUMPDEST CALLVALUE DUP1 ISZERO PUSH2 0x29C JUMPI PUSH0 PUSH0 REVERT JUMPDEST POP PUSH2 0x15D PUSH2 0x2AB CALLDATASIZE PUSH1 0x4 PUSH2 0xAEF JUMP JUMPDEST PUSH2 0x88E JUMP JUMPDEST CALLVALUE DUP1 ISZERO PUSH2 0x2BB JUMPI PUSH0 PUSH0 REVERT JUMPDEST POP PUSH2 0x130 PUSH2 0x2CA CALLDATASIZE PUSH1 0x4 PUSH2 0xB17 JUMP JUMPDEST PUSH1 0x6 PUSH1 0x20 SWAP1 DUP2 MSTORE PUSH0 SWAP3 DUP4 MSTORE PUSH1 0x40 DUP1 DUP5 KECCAK256 SWAP1 SWAP2 MSTORE SWAP1 DUP3 MSTORE SWAP1 KECCAK256 SLOAD DUP2 JUMP JUMPDEST PUSH1 0x2 SLOAD PUSH0 SWAP1 PUSH2 0x2F9 SWAP1 PUSH1 0xFF AND PUSH1 0xA PUSH2 0xC3F JUMP JUMPDEST PUSH1 0x4 SLOAD PUSH2 0x309 SWAP1 PUSH1 0xFF AND DUP5 PUSH2 0xC4D JUMP JUMPDEST PUSH2 0x313 SWAP2 SWAP1 PUSH2 0xC4D JUMP JUMPDEST PUSH1 0x1 PUSH1 0x1 PUSH1 0xA0 SHL SUB DUP5 AND PUSH0 SWAP1 DUP2 MSTORE PUSH1 0x5 PUSH1 0x20 MSTORE PUSH1 0x40 DUP2 KECCAK256 DUP1 SLOAD SWAP3 SWAP4 POP DUP4 SWAP3 SWAP1 SWAP2 SWAP1 PUSH2 0x33F SWAP1 DUP5 SWAP1 PUSH2 0xC64 JUMP JUMPDEST SWAP3 POP POP DUP2 SWAP1 SSTORE POP DUP1 PUSH1 0x3 PUSH0 DUP3 DUP3 SLOAD PUSH2 0x357 SWAP2 SWAP1 PUSH2 0xC64 JUMP JUMPDEST SWAP1 SWAP2 SSTORE POP POP PUSH1 0x4 SLOAD PUSH1 0x40 DUP1 MLOAD PUSH1 0x1 PUSH1 0x1 PUSH1 0xA0 SHL SUB DUP7 AND DUP2 MSTORE PUSH1 0x20 DUP2 ADD DUP5 SWAP1 MSTORE PUSH1 0xFF SWAP1 SWAP3 AND DUP3 DUP3 ADD MSTORE MLOAD PUSH32 0x1CBC5AB135991BD2B6A4B034A04AA2AA086DAC1371CB9B16B8B5E2ED6B036BED SWAP2 DUP2 SWAP1 SUB PUSH1 0x60 ADD SWAP1 LOG1 POP POP POP JUMP JUMPDEST PUSH0 DUP1 SLOAD PUSH2 0x3BB SWAP1 PUSH2 0xC77 JUMP JUMPDEST DUP1 PUSH1 0x1F ADD PUSH1 0x20 DUP1 SWAP2 DIV MUL PUSH1 0x20 ADD PUSH1 0x40 MLOAD SWAP1 DUP2 ADD PUSH1 0x40 MSTORE DUP1 SWAP3 SWAP2 SWAP1 DUP2 DUP2 MSTORE PUSH1 0x20 ADD DUP3 DUP1 SLOAD PUSH2 0x3E7 SWAP1 PUSH2 0xC77 JUMP JUMPDEST DUP1 ISZERO PUSH2 0x432 JUMPI DUP1 PUSH1 0x1F LT PUSH2 0x409 JUMPI PUSH2 0x100 DUP1 DUP4 SLOAD DIV MUL DUP4 MSTORE SWAP2 PUSH1 0x20 ADD SWAP2 PUSH2 0x432 JUMP JUMPDEST DUP3 ADD SWAP2 SWAP1 PUSH0 MSTORE PUSH1 0x20 PUSH0 KECCAK256 SWAP1 JUMPDEST DUP2 SLOAD DUP2 MSTORE SWAP1 PUSH1 0x1 ADD SWAP1 PUSH1 0x20 ADD DUP1 DUP4 GT PUSH2 0x415 JUMPI DUP3 SWAP1 SUB PUSH1 0x1F AND DUP3 ADD SWAP2 JUMPDEST POP POP POP POP POP DUP2 JUMP JUMPDEST PUSH0 PUSH1 0x1 PUSH1 0x1 PUSH1 0xA0 SHL SUB DUP5 AND CALLER EQ PUSH2 0x4CD JUMPI PUSH1 0x1 PUSH1 0x1 PUSH1 0xA0 SHL SUB DUP5 AND PUSH0 SWAP1 DUP2 MSTORE PUSH1 0x6 PUSH1 0x20 SWAP1 DUP2 MSTORE PUSH1 0x40 DUP1 DUP4 KECCAK256 CALLER DUP5 MSTORE SWAP1 SWAP2 MSTORE SWAP1 KECCAK256 SLOAD DUP3 DUP2 LT ISZERO PUSH2 0x4A4 JUMPI PUSH1 0x40 MLOAD PUSH4 0x7DC7A0D9 PUSH1 0xE1 SHL DUP2 MSTORE CALLER PUSH1 0x4 DUP3 ADD MSTORE PUSH1 0x24 DUP2 ADD DUP3 SWAP1 MSTORE PUSH1 0x44 DUP2 ADD DUP5 SWAP1 MSTORE PUSH1 0x64 ADD JUMPDEST PUSH1 0x40 MLOAD DUP1 SWAP2 SUB SWAP1 REVERT JUMPDEST PUSH1 0x1 PUSH1 0x1 PUSH1 0xA0 SHL SUB DUP6 AND PUSH0 SWAP1 DUP2 MSTORE PUSH1 0x6 PUSH1 0x20 SWAP1 DUP2 MSTORE PUSH1 0x40 DUP1 DUP4 KECCAK256 CALLER DUP5 MSTORE SWAP1 SWAP2 MSTORE SWAP1 KECCAK256 SWAP1 DUP4 SWAP1 SUB SWAP1 SSTORE JUMPDEST PUSH2 0x4D8 DUP5 DUP5 DUP5 PUSH2 0x8A4 JUMP JUMPDEST DUP3 PUSH1 0x1 PUSH1 0x1 PUSH1 0xA0 SHL SUB AND DUP5 PUSH1 0x1 PUSH1 0x1 PUSH1 0xA0 SHL SUB AND CALLER PUSH1 0x1 PUSH1 0x1 PUSH1 0xA0 SHL SUB AND PUSH32 0xD1398BEE19313D6BF672CCB116E51F4A1A947E91C757907F51FBB5B5E56C698F DUP6 PUSH1 0x40 MLOAD PUSH2 0x527 SWAP2 DUP2 MSTORE PUSH1 0x20 ADD SWAP1 JUMP JUMPDEST PUSH1 0x40 MLOAD DUP1 SWAP2 SUB SWAP1 LOG4 POP PUSH1 0x1 JUMPDEST SWAP4 SWAP3 POP POP POP JUMP JUMPDEST PUSH1 0x4 SLOAD PUSH2 0x100 SWAP1 DIV PUSH1 0x1 PUSH1 0x1 PUSH1 0xA0 SHL SUB AND CALLER EQ PUSH2 0x593 JUMPI PUSH1 0x40 MLOAD PUSH3 0x461BCD PUSH1 0xE5 SHL DUP2 MSTORE PUSH1 0x20 PUSH1 0x4 DUP3 ADD MSTORE PUSH1 0x17 PUSH1 0x24 DUP3 ADD MSTORE PUSH23 0x4E6F7420746865206F776E6572206F6620746F6B656E21 PUSH1 0x48 SHL PUSH1 0x44 DUP3 ADD MSTORE PUSH1 0x64 ADD PUSH2 0x49B JUMP JUMPDEST DUP1 PUSH0 SUB PUSH2 0x5B5 JUMPI PUSH1 0x40 MLOAD PUSH4 0x275E9C3F PUSH1 0xE0 SHL DUP2 MSTORE CALLER PUSH1 0x4 DUP3 ADD MSTORE PUSH1 0x24 ADD PUSH2 0x49B JUMP JUMPDEST SELFBALANCE DUP2 DUP2 LT ISZERO PUSH2 0x5E7 JUMPI PUSH1 0x40 MLOAD PUSH4 0x15E5CD3F PUSH1 0xE3 SHL DUP2 MSTORE CALLER PUSH1 0x4 DUP3 ADD MSTORE PUSH1 0x24 DUP2 ADD DUP4 SWAP1 MSTORE PUSH1 0x44 DUP2 ADD DUP3 SWAP1 MSTORE PUSH1 0x64 ADD PUSH2 0x49B JUMP JUMPDEST PUSH1 0x40 MLOAD PUSH0 SWAP1 CALLER SWAP1 DUP5 SWAP1 DUP4 DUP2 DUP2 DUP2 DUP6 DUP8 GAS CALL SWAP3 POP POP POP RETURNDATASIZE DUP1 PUSH0 DUP2 EQ PUSH2 0x626 JUMPI PUSH1 0x40 MLOAD SWAP2 POP PUSH1 0x1F NOT PUSH1 0x3F RETURNDATASIZE ADD AND DUP3 ADD PUSH1 0x40 MSTORE RETURNDATASIZE DUP3 MSTORE RETURNDATASIZE PUSH0 PUSH1 0x20 DUP5 ADD RETURNDATACOPY PUSH2 0x62B JUMP JUMPDEST PUSH1 0x60 SWAP2 POP JUMPDEST POP SWAP1 SWAP2 POP POP DUP1 ISZERO ISZERO PUSH0 SUB PUSH2 0x65B JUMPI PUSH1 0x40 MLOAD PUSH4 0x1D39EBC3 PUSH1 0xE0 SHL DUP2 MSTORE CALLER PUSH1 0x4 DUP3 ADD MSTORE PUSH1 0x24 DUP2 ADD DUP5 SWAP1 MSTORE PUSH1 0x44 ADD PUSH2 0x49B JUMP JUMPDEST PUSH1 0x40 MLOAD DUP4 DUP2 MSTORE CALLER SWAP1 PUSH32 0x7FCF532C15F0A6DB0BD6D0E038BEA71D30D808C7D98CB3BF7268A95BF5081B65 SWAP1 PUSH1 0x20 ADD PUSH1 0x40 MLOAD DUP1 SWAP2 SUB SWAP1 LOG2 POP POP POP JUMP JUMPDEST PUSH1 0x4 SLOAD PUSH0 SWAP1 PUSH2 0x100 SWAP1 DIV PUSH1 0x1 PUSH1 0x1 PUSH1 0xA0 SHL SUB AND CALLER EQ PUSH2 0x6F0 JUMPI PUSH1 0x40 MLOAD PUSH3 0x461BCD PUSH1 0xE5 SHL DUP2 MSTORE PUSH1 0x20 PUSH1 0x4 DUP3 ADD MSTORE PUSH1 0x17 PUSH1 0x24 DUP3 ADD MSTORE PUSH23 0x4E6F7420746865206F776E6572206F6620746F6B656E21 PUSH1 0x48 SHL PUSH1 0x44 DUP3 ADD MSTORE PUSH1 0x64 ADD PUSH2 0x49B JUMP JUMPDEST DUP2 PUSH1 0xFF AND PUSH0 SUB PUSH2 0x701 JUMPI POP PUSH0 SWAP2 SWAP1 POP JUMP JUMPDEST PUSH1 0x4 DUP1 SLOAD PUSH1 0xFF NOT AND PUSH1 0xFF DUP5 AND SWAP1 DUP2 OR SWAP1 SWAP2 SSTORE PUSH1 0x40 MLOAD SWAP1 DUP2 MSTORE PUSH32 0x6424BF7FADA081B86BC17D30F962BACE2F65C81A0C0E245581AE605044698520 SWAP1 PUSH1 0x20 ADD PUSH1 0x40 MLOAD DUP1 SWAP2 SUB SWAP1 LOG1 POP PUSH1 0x1 JUMPDEST SWAP2 SWAP1 POP JUMP JUMPDEST PUSH0 PUSH1 0x1 PUSH1 0x1 PUSH1 0xA0 SHL SUB DUP5 AND ISZERO DUP1 PUSH2 0x76E JUMPI POP CALLER PUSH1 0x1 PUSH1 0x1 PUSH1 0xA0 SHL SUB DUP6 AND EQ JUMPDEST ISZERO PUSH2 0x797 JUMPI PUSH1 0x40 MLOAD PUSH4 0x4A1406B1 PUSH1 0xE1 SHL DUP2 MSTORE PUSH1 0x1 PUSH1 0x1 PUSH1 0xA0 SHL SUB DUP6 AND PUSH1 0x4 DUP3 ADD MSTORE PUSH1 0x24 ADD PUSH2 0x49B JUMP JUMPDEST CALLER PUSH0 SWAP1 DUP2 MSTORE PUSH1 0x6 PUSH1 0x20 SWAP1 DUP2 MSTORE PUSH1 0x40 DUP1 DUP4 KECCAK256 PUSH1 0x1 PUSH1 0x1 PUSH1 0xA0 SHL SUB DUP9 AND DUP5 MSTORE SWAP1 SWAP2 MSTORE SWAP1 KECCAK256 SLOAD DUP4 DUP2 EQ PUSH2 0x7CA JUMPI PUSH0 SWAP2 POP POP PUSH2 0x533 JUMP JUMPDEST CALLER PUSH0 DUP2 DUP2 MSTORE PUSH1 0x6 PUSH1 0x20 SWAP1 DUP2 MSTORE PUSH1 0x40 DUP1 DUP4 KECCAK256 PUSH1 0x1 PUSH1 0x1 PUSH1 0xA0 SHL SUB DUP11 AND DUP1 DUP6 MSTORE SWAP1 DUP4 MSTORE SWAP3 DUP2 SWAP1 KECCAK256 DUP8 SWAP1 SSTORE MLOAD DUP7 DUP2 MSTORE SWAP2 SWAP3 SWAP2 PUSH32 0x8C5BE1E5EBEC7D5BD14F71427D1E84F3DD0314C0F7B2291E5B200AC8C7C3B925 SWAP2 ADD PUSH1 0x40 MLOAD DUP1 SWAP2 SUB SWAP1 LOG3 PUSH1 0x40 DUP1 MLOAD DUP3 DUP2 MSTORE PUSH1 0x20 DUP2 ADD DUP6 SWAP1 MSTORE PUSH1 0x1 PUSH1 0x1 PUSH1 0xA0 SHL SUB DUP8 AND SWAP2 CALLER SWAP2 PUSH32 0xB3FD5071835887567A0671151121894DDCCC2842F1D10BEDAD13E0D17CACE9A7 SWAP2 ADD PUSH1 0x40 MLOAD DUP1 SWAP2 SUB SWAP1 LOG3 POP PUSH1 0x1 SWAP5 SWAP4 POP POP POP POP JUMP JUMPDEST PUSH1 0x1 DUP1 SLOAD PUSH2 0x3BB SWAP1 PUSH2 0xC77 JUMP JUMPDEST PUSH2 0x88C CALLER CALLVALUE PUSH2 0x2E6 JUMP JUMPDEST JUMP JUMPDEST PUSH0 PUSH2 0x89A CALLER DUP5 DUP5 PUSH2 0x8A4 JUMP JUMPDEST POP PUSH1 0x1 JUMPDEST SWAP3 SWAP2 POP POP JUMP JUMPDEST PUSH1 0x1 PUSH1 0x1 PUSH1 0xA0 SHL SUB DUP4 AND PUSH2 0x8D6 JUMPI PUSH1 0x40 MLOAD PUSH4 0x4B637E8F PUSH1 0xE1 SHL DUP2 MSTORE PUSH1 0x1 PUSH1 0x1 PUSH1 0xA0 SHL SUB DUP5 AND PUSH1 0x4 DUP3 ADD MSTORE PUSH1 0x24 ADD PUSH2 0x49B JUMP JUMPDEST PUSH1 0x1 PUSH1 0x1 PUSH1 0xA0 SHL SUB DUP3 AND PUSH2 0x908 JUMPI PUSH1 0x40 MLOAD PUSH4 0xEC442F05 PUSH1 0xE0 SHL DUP2 MSTORE PUSH1 0x1 PUSH1 0x1 PUSH1 0xA0 SHL SUB DUP4 AND PUSH1 0x4 DUP3 ADD MSTORE PUSH1 0x24 ADD PUSH2 0x49B JUMP JUMPDEST PUSH1 0x1 PUSH1 0x1 PUSH1 0xA0 SHL SUB DUP4 AND PUSH0 SWAP1 DUP2 MSTORE PUSH1 0x5 PUSH1 0x20 MSTORE PUSH1 0x40 SWAP1 KECCAK256 SLOAD DUP2 DUP2 LT ISZERO PUSH2 0x95A JUMPI PUSH1 0x40 MLOAD PUSH4 0x391434E3 PUSH1 0xE2 SHL DUP2 MSTORE PUSH1 0x1 PUSH1 0x1 PUSH1 0xA0 SHL SUB DUP6 AND PUSH1 0x4 DUP3 ADD MSTORE PUSH1 0x24 DUP2 ADD DUP3 SWAP1 MSTORE PUSH1 0x44 DUP2 ADD DUP4 SWAP1 MSTORE PUSH1 0x64 ADD PUSH2 0x49B JUMP JUMPDEST PUSH1 0x1 PUSH1 0x1 PUSH1 0xA0 SHL SUB DUP1 DUP6 AND PUSH0 SWAP1 DUP2 MSTORE PUSH1 0x5 PUSH1 0x20 MSTORE PUSH1 0x40 DUP1 DUP3 KECCAK256 DUP6 DUP6 SUB SWAP1 SSTORE SWAP2 DUP6 AND DUP2 MSTORE SWAP1 DUP2 KECCAK256 DUP1 SLOAD DUP5 SWAP3 SWAP1 PUSH2 0x990 SWAP1 DUP5 SWAP1 PUSH2 0xC64 JUMP JUMPDEST SWAP3 POP POP DUP2 SWAP1 SSTORE POP DUP3 PUSH1 0x1 PUSH1 0x1 PUSH1 0xA0 SHL SUB AND DUP5 PUSH1 0x1 PUSH1 0x1 PUSH1 0xA0 SHL SUB AND PUSH32 0xDDF252AD1BE2C89B69C2B068FC378DAA952BA7F163C4A11628F55A4DF523B3EF DUP5 PUSH1 0x40 MLOAD PUSH2 0x9DC SWAP2 DUP2 MSTORE PUSH1 0x20 ADD SWAP1 JUMP JUMPDEST PUSH1 0x40 MLOAD DUP1 SWAP2 SUB SWAP1 LOG3 POP POP POP POP JUMP JUMPDEST PUSH1 0x20 DUP2 MSTORE PUSH0 DUP3 MLOAD DUP1 PUSH1 0x20 DUP5 ADD MSTORE DUP1 PUSH1 0x20 DUP6 ADD PUSH1 0x40 DUP6 ADD MCOPY PUSH0 PUSH1 0x40 DUP3 DUP6 ADD ADD MSTORE PUSH1 0x40 PUSH1 0x1F NOT PUSH1 0x1F DUP4 ADD AND DUP5 ADD ADD SWAP2 POP POP SWAP3 SWAP2 POP POP JUMP JUMPDEST DUP1 CALLDATALOAD PUSH1 0x1 PUSH1 0x1 PUSH1 0xA0 SHL SUB DUP2 AND DUP2 EQ PUSH2 0x74A JUMPI PUSH0 PUSH0 REVERT JUMPDEST PUSH0 PUSH0 PUSH0 PUSH1 0x60 DUP5 DUP7 SUB SLT ISZERO PUSH2 0xA47 JUMPI PUSH0 PUSH0 REVERT JUMPDEST PUSH2 0xA50 DUP5 PUSH2 0xA1F JUMP JUMPDEST SWAP3 POP PUSH2 0xA5E PUSH1 0x20 DUP6 ADD PUSH2 0xA1F JUMP JUMPDEST SWAP3 SWAP6 SWAP3 SWAP5 POP POP POP PUSH1 0x40 SWAP2 SWAP1 SWAP2 ADD CALLDATALOAD SWAP1 JUMP JUMPDEST PUSH0 PUSH1 0x20 DUP3 DUP5 SUB SLT ISZERO PUSH2 0xA7F JUMPI PUSH0 PUSH0 REVERT JUMPDEST POP CALLDATALOAD SWAP2 SWAP1 POP JUMP JUMPDEST PUSH0 PUSH1 0x20 DUP3 DUP5 SUB SLT ISZERO PUSH2 0xA96 JUMPI PUSH0 PUSH0 REVERT JUMPDEST DUP2 CALLDATALOAD PUSH1 0xFF DUP2 AND DUP2 EQ PUSH2 0x533 JUMPI PUSH0 PUSH0 REVERT JUMPDEST PUSH0 PUSH0 PUSH0 PUSH1 0x60 DUP5 DUP7 SUB SLT ISZERO PUSH2 0xAB8 JUMPI PUSH0 PUSH0 REVERT JUMPDEST PUSH2 0xAC1 DUP5 PUSH2 0xA1F JUMP JUMPDEST SWAP6 PUSH1 0x20 DUP6 ADD CALLDATALOAD SWAP6 POP PUSH1 0x40 SWAP1 SWAP5 ADD CALLDATALOAD SWAP4 SWAP3 POP POP POP JUMP JUMPDEST PUSH0 PUSH1 0x20 DUP3 DUP5 SUB SLT ISZERO PUSH2 0xAE6 JUMPI PUSH0 PUSH0 REVERT JUMPDEST PUSH2 0x533 DUP3 PUSH2 0xA1F JUMP JUMPDEST PUSH0 PUSH0 PUSH1 0x40 DUP4 DUP6 SUB SLT ISZERO PUSH2 0xB00 JUMPI PUSH0 PUSH0 REVERT JUMPDEST PUSH2 0xB09 DUP4 PUSH2 0xA1F JUMP JUMPDEST SWAP5 PUSH1 0x20 SWAP4 SWAP1 SWAP4 ADD CALLDATALOAD SWAP4 POP POP POP JUMP JUMPDEST PUSH0 PUSH0 PUSH1 0x40 DUP4 DUP6 SUB SLT ISZERO PUSH2 0xB28 JUMPI PUSH0 PUSH0 REVERT JUMPDEST PUSH2 0xB31 DUP4 PUSH2 0xA1F JUMP JUMPDEST SWAP2 POP PUSH2 0xB3F PUSH1 0x20 DUP5 ADD PUSH2 0xA1F JUMP JUMPDEST SWAP1 POP SWAP3 POP SWAP3 SWAP1 POP JUMP JUMPDEST PUSH4 0x4E487B71 PUSH1 0xE0 SHL PUSH0 MSTORE PUSH1 0x11 PUSH1 0x4 MSTORE PUSH1 0x24 PUSH0 REVERT JUMPDEST PUSH1 0x1 DUP2 JUMPDEST PUSH1 0x1 DUP5 GT ISZERO PUSH2 0xB97 JUMPI DUP1 DUP6 DIV DUP2 GT ISZERO PUSH2 0xB7B JUMPI PUSH2 0xB7B PUSH2 0xB48 JUMP JUMPDEST PUSH1 0x1 DUP5 AND ISZERO PUSH2 0xB89 JUMPI SWAP1 DUP2 MUL SWAP1 JUMPDEST PUSH1 0x1 SWAP4 SWAP1 SWAP4 SHR SWAP3 DUP1 MUL PUSH2 0xB60 JUMP JUMPDEST SWAP4 POP SWAP4 SWAP2 POP POP JUMP JUMPDEST PUSH0 DUP3 PUSH2 0xBAD JUMPI POP PUSH1 0x1 PUSH2 0x89E JUMP JUMPDEST DUP2 PUSH2 0xBB9 JUMPI POP PUSH0 PUSH2 0x89E JUMP JUMPDEST DUP2 PUSH1 0x1 DUP2 EQ PUSH2 0xBCF JUMPI PUSH1 0x2 DUP2 EQ PUSH2 0xBD9 JUMPI PUSH2 0xBF5 JUMP JUMPDEST PUSH1 0x1 SWAP2 POP POP PUSH2 0x89E JUMP JUMPDEST PUSH1 0xFF DUP5 GT ISZERO PUSH2 0xBEA JUMPI PUSH2 0xBEA PUSH2 0xB48 JUMP JUMPDEST POP POP PUSH1 0x1 DUP3 SHL PUSH2 0x89E JUMP JUMPDEST POP PUSH1 0x20 DUP4 LT PUSH2 0x133 DUP4 LT AND PUSH1 0x4E DUP5 LT PUSH1 0xB DUP5 LT AND OR ISZERO PUSH2 0xC18 JUMPI POP DUP2 DUP2 EXP PUSH2 0x89E JUMP JUMPDEST PUSH2 0xC24 PUSH0 NOT DUP5 DUP5 PUSH2 0xB5C JUMP JUMPDEST DUP1 PUSH0 NOT DIV DUP3 GT ISZERO PUSH2 0xC37 JUMPI PUSH2 0xC37 PUSH2 0xB48 JUMP JUMPDEST MUL SWAP4 SWAP3 POP POP POP JUMP JUMPDEST PUSH0 PUSH2 0x533 PUSH1 0xFF DUP5 AND DUP4 PUSH2 0xB9F JUMP JUMPDEST DUP1 DUP3 MUL DUP2 ISZERO DUP3 DUP3 DIV DUP5 EQ OR PUSH2 0x89E JUMPI PUSH2 0x89E PUSH2 0xB48 JUMP JUMPDEST DUP1 DUP3 ADD DUP1 DUP3 GT ISZERO PUSH2 0x89E JUMPI PUSH2 0x89E PUSH2 0xB48 JUMP JUMPDEST PUSH1 0x1 DUP2 DUP2 SHR SWAP1 DUP3 AND DUP1 PUSH2 0xC8B JUMPI PUSH1 0x7F DUP3 AND SWAP2 POP JUMPDEST PUSH1 0x20 DUP3 LT DUP2 SUB PUSH2 0xCA9 JUMPI PUSH4 0x4E487B71 PUSH1 0xE0 SHL PUSH0 MSTORE PUSH1 0x22 PUSH1 0x4 MSTORE PUSH1 0x24 PUSH0 REVERT JUMPDEST POP SWAP2 SWAP1 POP JUMP INVALID LOG2 PUSH5 0x6970667358 0x22 SLT KECCAK256 STOP GAS 0xB6 MUL 0xD5 MSTORE8 SAR PUSH13 0x5A59DC42E38120ED3288E0A3D2 0xB1 ISZERO ORIGIN PUSH17 0x451E5413AF84CC64736F6C634300081E00 CALLER "
				},
				"gasEstimates": {
					"creation": {
						"codeDepositCost": "660200",
						"executionCost": "infinite",
						"totalCost": "infinite"
					},
					"external": {
						"allowance(address,address)": "infinite",
						"approve(address,uint256,uint256)": "29001",
						"balanceOf(address)": "2583",
						"buy()": "infinite",
						"decimals()": "2379",
						"exchangeRate()": "2401",
						"name()": "infinite",
						"ownerToken()": "2392",
						"setExchangeRate(uint8)": "27849",
						"symbol()": "infinite",
						"totalSupply()": "2340",
						"transfer(address,uint256)": "infinite",
						"transferFrom(address,address,uint256)": "infinite",
						"withdraw(uint256)": "infinite"
					},
					"internal": {
						"_buy(address,uint256)": "infinite",
						"_transfer(address,address,uint256)": "infinite"
					}
				},
				"methodIdentifiers": {
					"allowance(address,address)": "dd62ed3e",
					"approve(address,uint256,uint256)": "426a8493",
					"balanceOf(address)": "70a08231",
					"buy()": "a6f2ae3a",
					"decimals()": "313ce567",
					"exchangeRate()": "3ba0b9a9",
					"name()": "06fdde03",
					"ownerToken()": "65371883",
					"setExchangeRate(uint8)": "30b1921d",
					"symbol()": "95d89b41",
					"totalSupply()": "18160ddd",
					"transfer(address,uint256)": "a9059cbb",
					"transferFrom(address,address,uint256)": "23b872dd",
					"withdraw(uint256)": "2e1a7d4d"
				}
			},
			"storageLayout": {
				"storage": [
					{
						"astId": 7,
						"contract": "contracts/HwERC20.sol:HwERC6093",
						"label": "name",
						"offset": 0,
						"slot": "0",
						"type": "t_string_storage"
					},
					{
						"astId": 10,
						"contract": "contracts/HwERC20.sol:HwERC6093",
						"label": "symbol",
						"offset": 0,
						"slot": "1",
						"type": "t_string_storage"
					},
					{
						"astId": 13,
						"contract": "contracts/HwERC20.sol:HwERC6093",
						"label": "decimals",
						"offset": 0,
						"slot": "2",
						"type": "t_uint8"
					},
					{
						"astId": 16,
						"contract": "contracts/HwERC20.sol:HwERC6093",
						"label": "totalSupply",
						"offset": 0,
						"slot": "3",
						"type": "t_uint256"
					},
					{
						"astId": 19,
						"contract": "contracts/HwERC20.sol:HwERC6093",
						"label": "exchangeRate",
						"offset": 0,
						"slot": "4",
						"type": "t_uint8"
					},
					{
						"astId": 22,
						"contract": "contracts/HwERC20.sol:HwERC6093",
						"label": "ownerToken",
						"offset": 1,
						"slot": "4",
						"type": "t_address"
					},
					{
						"astId": 27,
						"contract": "contracts/HwERC20.sol:HwERC6093",
						"label": "balanceOf",
						"offset": 0,
						"slot": "5",
						"type": "t_mapping(t_address,t_uint256)"
					},
					{
						"astId": 34,
						"contract": "contracts/HwERC20.sol:HwERC6093",
						"label": "allowance",
						"offset": 0,
						"slot": "6",
						"type": "t_mapping(t_address,t_mapping(t_address,t_uint256))"
					}
				],
				"types": {
					"t_address": {
						"encoding": "inplace",
						"label": "address",
						"numberOfBytes": "20"
					},
					"t_mapping(t_address,t_mapping(t_address,t_uint256))": {
						"encoding": "mapping",
						"key": "t_address",
						"label": "mapping(address => mapping(address => uint256))",
						"numberOfBytes": "32",
						"value": "t_mapping(t_address,t_uint256)"
					},
					"t_mapping(t_address,t_uint256)": {
						"encoding": "mapping",
						"key": "t_address",
						"label": "mapping(address => uint256)",
						"numberOfBytes": "32",
						"value": "t_uint256"
					},
					"t_string_storage": {
						"encoding": "bytes",
						"label": "string",
						"numberOfBytes": "32"
					},
					"t_uint256": {
						"encoding": "inplace",
						"label": "uint256",
						"numberOfBytes": "32"
					},
					"t_uint8": {
						"encoding": "inplace",
						"label": "uint8",
						"numberOfBytes": "1"
					}
				}
			},
			"userdoc": {
				"kind": "user",
				"methods": {},
				"version": 1
			}
		}
	}
}