{
	"contracts/Bank.sol": {
		"Bank": {
			"abi": [
				{
					"inputs": [],
					"stateMutability": "nonpayable",
					"type": "constructor"
				},
				{
					"inputs": [
						{
							"internalType": "address",
							"name": "account",
							"type": "address"
						},
						{
							"internalType": "uint256",
							"name": "amount",
							"type": "uint256"
						},
						{
							"internalType": "uint256",
							"name": "balance",
							"type": "uint256"
						}
					],
					"name": "WithdrawalAmountExceedsBalance",
					"type": "error"
				},
				{
					"inputs": [
						{
							"internalType": "address",
							"name": "account",
							"type": "address"
						}
					],
					"name": "WithdrawalAmountZero",
					"type": "error"
				},
				{
					"anonymous": false,
					"inputs": [
						{
							"indexed": true,
							"internalType": "address",
							"name": "account",
							"type": "address"
						},
						{
							"indexed": false,
							"internalType": "uint256",
							"name": "amount",
							"type": "uint256"
						}
					],
					"name": "Deposit",
					"type": "event"
				},
				{
					"anonymous": false,
					"inputs": [
						{
							"indexed": true,
							"internalType": "address",
							"name": "account",
							"type": "address"
						},
						{
							"indexed": false,
							"internalType": "uint256",
							"name": "amount",
							"type": "uint256"
						}
					],
					"name": "Withdrawal",
					"type": "event"
				},
				{
					"stateMutability": "payable",
					"type": "fallback"
				},
				{
					"inputs": [
						{
							"internalType": "address",
							"name": "account",
							"type": "address"
						}
					],
					"name": "balanceOf",
					"outputs": [
						{
							"internalType": "uint256",
							"name": "",
							"type": "uint256"
						}
					],
					"stateMutability": "view",
					"type": "function"
				},
				{
					"inputs": [
						{
							"internalType": "address",
							"name": "",
							"type": "address"
						}
					],
					"name": "balances",
					"outputs": [
						{
							"internalType": "uint256",
							"name": "",
							"type": "uint256"
						}
					],
					"stateMutability": "view",
					"type": "function"
				},
				{
					"inputs": [],
					"name": "deposit",
					"outputs": [],
					"stateMutability": "payable",
					"type": "function"
				},
				{
					"inputs": [
						{
							"internalType": "address payable",
							"name": "account",
							"type": "address"
						}
					],
					"name": "escape",
					"outputs": [],
					"stateMutability": "payable",
					"type": "function"
				},
				{
					"inputs": [
						{
							"internalType": "address",
							"name": "",
							"type": "address"
						}
					],
					"name": "locked",
					"outputs": [
						{
							"internalType": "bool",
							"name": "",
							"type": "bool"
						}
					],
					"stateMutability": "view",
					"type": "function"
				},
				{
					"inputs": [
						{
							"internalType": "address payable",
							"name": "account",
							"type": "address"
						},
						{
							"internalType": "uint256",
							"name": "amount",
							"type": "uint256"
						}
					],
					"name": "withdraw",
					"outputs": [],
					"stateMutability": "payable",
					"type": "function"
				},
				{
					"stateMutability": "payable",
					"type": "receive"
				}
			],
			"devdoc": {
				"errors": {
					"WithdrawalAmountExceedsBalance(address,uint256,uint256)": [
						{
							"details": "Генерируется, когда сумма снятия превышает баланс счёта.",
							"params": {
								"account": "Адрес аккаунта, который пытался снять средства.",
								"amount": "Сумма, которую пытались снять.",
								"balance": "Текущий баланс аккаунта."
							}
						}
					],
					"WithdrawalAmountZero(address)": [
						{
							"details": "Генерируется, когда пытаются снять нулевую сумму.",
							"params": {
								"account": "Адрес аккаунта, который пытался снять средства."
							}
						}
					]
				},
				"events": {
					"Deposit(address,uint256)": {
						"details": "Генерируется, когда на счёт аккаунта поступает депозит.",
						"params": {
							"account": "Адрес аккаунта, на который был сделан депозит.",
							"amount": "Сумма, которая была внесена."
						}
					},
					"Withdrawal(address,uint256)": {
						"details": "Генерируется, когда со счёта снимаются средства.",
						"params": {
							"account": "Адрес счёта, с которого произошло снятие.",
							"amount": "Сумма, которая была снята."
						}
					}
				},
				"kind": "dev",
				"methods": {
					"balanceOf(address)": {
						"details": "Возвращает баланс счёта.",
						"params": {
							"account": "Адрес счёта."
						},
						"returns": {
							"_0": "Баланс счёта."
						}
					},
					"deposit()": {
						"details": "Вносит средства на счёт."
					},
					"escape(address)": {
						"details": "Владелец выводит все средства.",
						"params": {
							"account": "Адрес, на который выводятся средства."
						}
					},
					"withdraw(address,uint256)": {
						"details": "Снимает средства со счёта, вызвавшего функцию.",
						"params": {
							"account": "Адрес, на который выводятся средства.",
							"amount": "Сумма, которую нужно снять."
						}
					}
				},
				"version": 1
			},
			"evm": {
				"assembly": "    /* \"contracts/Bank.sol\":100:1787  contract Bank is INativeBank {... */\n  mstore(0x40, 0x80)\n    /* \"contracts/Bank.sol\":287:342  constructor() {... */\n  callvalue\n  dup1\n  iszero\n  tag_1\n  jumpi\n  revert(0x00, 0x00)\ntag_1:\n  pop\n    /* \"contracts/Bank.sol\":312:317  owner */\n  0x00\n    /* \"contracts/Bank.sol\":312:330  owner = msg.sender */\n  dup1\n  sload\n  not(sub(shl(0xa0, 0x01), 0x01))\n  and\n    /* \"contracts/Bank.sol\":320:330  msg.sender */\n  caller\n    /* \"contracts/Bank.sol\":312:330  owner = msg.sender */\n  or\n  swap1\n  sstore\n    /* \"contracts/Bank.sol\":100:1787  contract Bank is INativeBank {... */\n  dataSize(sub_0)\n  dup1\n  dataOffset(sub_0)\n  0x00\n  codecopy\n  0x00\n  return\nstop\n\nsub_0: assembly {\n        /* \"contracts/Bank.sol\":100:1787  contract Bank is INativeBank {... */\n      mstore(0x40, 0x80)\n      jumpi(tag_1, lt(calldatasize, 0x04))\n      shr(0xe0, calldataload(0x00))\n      dup1\n      0x27e235e3\n      eq\n      tag_3\n      jumpi\n      dup1\n      0x70a08231\n      eq\n      tag_4\n      jumpi\n      dup1\n      0x9cb6ed7e\n      eq\n      tag_5\n      jumpi\n      dup1\n      0xcbf9fe5f\n      eq\n      tag_6\n      jumpi\n      dup1\n      0xd0e30db0\n      eq\n      tag_7\n      jumpi\n      dup1\n      0xf3fef3a3\n      eq\n      tag_8\n      jumpi\n      jump(tag_2)\n    tag_1:\n      jumpi(tag_2, calldatasize)\n        /* \"contracts/Bank.sol\":553:559  save() */\n      tag_11\n        /* \"contracts/Bank.sol\":553:557  save */\n      tag_12\n        /* \"contracts/Bank.sol\":553:559  save() */\n      jump\t// in\n    tag_11:\n        /* \"contracts/Bank.sol\":100:1787  contract Bank is INativeBank {... */\n      stop\n    tag_2:\n        /* \"contracts/Bank.sol\":494:500  save() */\n      tag_11\n        /* \"contracts/Bank.sol\":494:498  save */\n      tag_12\n        /* \"contracts/Bank.sol\":494:500  save() */\n      jump\t// in\n        /* \"contracts/Bank.sol\":180:224  mapping (address => uint256) public balances */\n    tag_3:\n      callvalue\n      dup1\n      iszero\n      tag_16\n      jumpi\n      revert(0x00, 0x00)\n    tag_16:\n      pop\n      tag_17\n      tag_18\n      calldatasize\n      0x04\n      tag_19\n      jump\t// in\n    tag_18:\n      mstore(0x20, 0x01)\n      0x00\n      swap1\n      dup2\n      mstore\n      0x40\n      swap1\n      keccak256\n      sload\n      dup2\n      jump\n    tag_17:\n      mload(0x40)\n        /* \"#utility.yul\":548:573   */\n      swap1\n      dup2\n      mstore\n        /* \"#utility.yul\":536:538   */\n      0x20\n        /* \"#utility.yul\":521:539   */\n      add\n        /* \"contracts/Bank.sol\":180:224  mapping (address => uint256) public balances */\n    tag_21:\n      mload(0x40)\n      dup1\n      swap2\n      sub\n      swap1\n      return\n        /* \"contracts/Bank.sol\":579:692  function balanceOf(address account) external view returns(uint256){... */\n    tag_4:\n      callvalue\n      dup1\n      iszero\n      tag_23\n      jumpi\n      revert(0x00, 0x00)\n    tag_23:\n      pop\n      tag_17\n      tag_25\n      calldatasize\n      0x04\n      tag_19\n      jump\t// in\n    tag_25:\n      sub(shl(0xa0, 0x01), 0x01)\n        /* \"contracts/Bank.sol\":667:684  balances[account] */\n      and\n        /* \"contracts/Bank.sol\":637:644  uint256 */\n      0x00\n        /* \"contracts/Bank.sol\":667:684  balances[account] */\n      swap1\n      dup2\n      mstore\n        /* \"contracts/Bank.sol\":667:675  balances */\n      0x01\n        /* \"contracts/Bank.sol\":667:684  balances[account] */\n      0x20\n      mstore\n      0x40\n      swap1\n      keccak256\n      sload\n      swap1\n        /* \"contracts/Bank.sol\":579:692  function balanceOf(address account) external view returns(uint256){... */\n      jump\n        /* \"contracts/Bank.sol\":1657:1784  function escape(address payable account) external payable OnlyOwner {... */\n    tag_5:\n      tag_11\n      tag_29\n      calldatasize\n      0x04\n      tag_19\n      jump\t// in\n    tag_29:\n      tag_31\n      jump\t// in\n        /* \"contracts/Bank.sol\":231:270  mapping (address => bool) public locked */\n    tag_6:\n      callvalue\n      dup1\n      iszero\n      tag_32\n      jumpi\n      revert(0x00, 0x00)\n    tag_32:\n      pop\n      tag_33\n      tag_34\n      calldatasize\n      0x04\n      tag_19\n      jump\t// in\n    tag_34:\n      mstore(0x20, 0x02)\n      0x00\n      swap1\n      dup2\n      mstore\n      0x40\n      swap1\n      keccak256\n      sload\n      0xff\n      and\n      dup2\n      jump\n    tag_33:\n      mload(0x40)\n        /* \"#utility.yul\":1009:1023   */\n      swap1\n      iszero\n        /* \"#utility.yul\":1002:1024   */\n      iszero\n        /* \"#utility.yul\":984:1025   */\n      dup2\n      mstore\n        /* \"#utility.yul\":972:974   */\n      0x20\n        /* \"#utility.yul\":957:975   */\n      add\n        /* \"contracts/Bank.sol\":231:270  mapping (address => bool) public locked */\n      tag_21\n        /* \"#utility.yul\":844:1031   */\n      jump\n        /* \"contracts/Bank.sol\":700:764  function deposit() external payable{... */\n    tag_7:\n      tag_11\n      tag_39\n      jump\t// in\n        /* \"contracts/Bank.sol\":982:1649  function withdraw(address payable account, uint256 amount) external payable {... */\n    tag_8:\n      tag_11\n      tag_41\n      calldatasize\n      0x04\n      tag_42\n      jump\t// in\n    tag_41:\n      tag_43\n      jump\t// in\n        /* \"contracts/Bank.sol\":772:970  function save() private {... */\n    tag_12:\n        /* \"contracts/Bank.sol\":827:828  0 */\n      0x00\n        /* \"contracts/Bank.sol\":815:824  msg.value */\n      callvalue\n        /* \"contracts/Bank.sol\":815:828  msg.value > 0 */\n      gt\n        /* \"contracts/Bank.sol\":807:862  require(msg.value > 0, \"Amount should be more than 0!\") */\n      tag_45\n      jumpi\n      mload(0x40)\n      shl(0xe5, 0x461bcd)\n      dup2\n      mstore\n        /* \"#utility.yul\":1566:1568   */\n      0x20\n        /* \"contracts/Bank.sol\":807:862  require(msg.value > 0, \"Amount should be more than 0!\") */\n      0x04\n      dup3\n      add\n        /* \"#utility.yul\":1548:1569   */\n      mstore\n        /* \"#utility.yul\":1605:1607   */\n      0x1d\n        /* \"#utility.yul\":1585:1603   */\n      0x24\n      dup3\n      add\n        /* \"#utility.yul\":1578:1608   */\n      mstore\n        /* \"#utility.yul\":1644:1675   */\n      0x416d6f756e742073686f756c64206265206d6f7265207468616e203021000000\n        /* \"#utility.yul\":1624:1642   */\n      0x44\n      dup3\n      add\n        /* \"#utility.yul\":1617:1676   */\n      mstore\n        /* \"#utility.yul\":1693:1711   */\n      0x64\n      add\n        /* \"contracts/Bank.sol\":807:862  require(msg.value > 0, \"Amount should be more than 0!\") */\n    tag_46:\n      mload(0x40)\n      dup1\n      swap2\n      sub\n      swap1\n      revert\n    tag_45:\n        /* \"contracts/Bank.sol\":887:897  msg.sender */\n      caller\n        /* \"contracts/Bank.sol\":878:898  balances[msg.sender] */\n      0x00\n      swap1\n      dup2\n      mstore\n        /* \"contracts/Bank.sol\":878:886  balances */\n      0x01\n        /* \"contracts/Bank.sol\":878:898  balances[msg.sender] */\n      0x20\n      mstore\n      0x40\n      dup2\n      keccak256\n        /* \"contracts/Bank.sol\":878:911  balances[msg.sender] += msg.value */\n      dup1\n      sload\n        /* \"contracts/Bank.sol\":902:911  msg.value */\n      callvalue\n      swap3\n        /* \"contracts/Bank.sol\":878:898  balances[msg.sender] */\n      swap1\n        /* \"contracts/Bank.sol\":878:911  balances[msg.sender] += msg.value */\n      tag_48\n      swap1\n        /* \"contracts/Bank.sol\":902:911  msg.value */\n      dup5\n      swap1\n        /* \"contracts/Bank.sol\":878:911  balances[msg.sender] += msg.value */\n      tag_49\n      jump\t// in\n    tag_48:\n      swap1\n      swap2\n      sstore\n      pop\n      pop\n        /* \"contracts/Bank.sol\":932:962  Deposit(msg.sender, msg.value) */\n      mload(0x40)\n        /* \"contracts/Bank.sol\":952:961  msg.value */\n      callvalue\n        /* \"#utility.yul\":548:573   */\n      dup2\n      mstore\n        /* \"contracts/Bank.sol\":940:950  msg.sender */\n      caller\n      swap1\n        /* \"contracts/Bank.sol\":932:962  Deposit(msg.sender, msg.value) */\n      0xe1fffcc4923d04b559f4d29a8bfc6cda04eb5b0d3c460751c2402c5c5cc9109c\n      swap1\n        /* \"#utility.yul\":536:538   */\n      0x20\n        /* \"#utility.yul\":521:539   */\n      add\n        /* \"contracts/Bank.sol\":932:962  Deposit(msg.sender, msg.value) */\n      mload(0x40)\n      dup1\n      swap2\n      sub\n      swap1\n      log2\n        /* \"contracts/Bank.sol\":772:970  function save() private {... */\n      jump\t// out\n        /* \"contracts/Bank.sol\":1657:1784  function escape(address payable account) external payable OnlyOwner {... */\n    tag_31:\n        /* \"contracts/Bank.sol\":402:407  owner */\n      and(sub(shl(0xa0, 0x01), 0x01), sload(0x00))\n        /* \"contracts/Bank.sol\":388:398  msg.sender */\n      caller\n        /* \"contracts/Bank.sol\":388:407  msg.sender == owner */\n      eq\n        /* \"contracts/Bank.sol\":380:426  require(msg.sender == owner, \"Not the owner!\") */\n      tag_53\n      jumpi\n      mload(0x40)\n      shl(0xe5, 0x461bcd)\n      dup2\n      mstore\n        /* \"#utility.yul\":2186:2188   */\n      0x20\n        /* \"contracts/Bank.sol\":380:426  require(msg.sender == owner, \"Not the owner!\") */\n      0x04\n      dup3\n      add\n        /* \"#utility.yul\":2168:2189   */\n      mstore\n        /* \"#utility.yul\":2225:2227   */\n      0x0e\n        /* \"#utility.yul\":2205:2223   */\n      0x24\n      dup3\n      add\n        /* \"#utility.yul\":2198:2228   */\n      mstore\n      shl(0x90, 0x4e6f7420746865206f776e657221)\n        /* \"#utility.yul\":2244:2262   */\n      0x44\n      dup3\n      add\n        /* \"#utility.yul\":2237:2281   */\n      mstore\n        /* \"#utility.yul\":2298:2316   */\n      0x64\n      add\n        /* \"contracts/Bank.sol\":380:426  require(msg.sender == owner, \"Not the owner!\") */\n      tag_46\n        /* \"#utility.yul\":1984:2322   */\n      jump\n        /* \"contracts/Bank.sol\":380:426  require(msg.sender == owner, \"Not the owner!\") */\n    tag_53:\n        /* \"contracts/Bank.sol\":1736:1775  account.transfer(address(this).balance) */\n      mload(0x40)\n      sub(shl(0xa0, 0x01), 0x01)\n        /* \"contracts/Bank.sol\":1736:1752  account.transfer */\n      dup3\n      and\n      swap1\n        /* \"contracts/Bank.sol\":1753:1774  address(this).balance */\n      selfbalance\n        /* \"contracts/Bank.sol\":1736:1775  account.transfer(address(this).balance) */\n      dup1\n      iszero\n      0x08fc\n      mul\n      swap2\n      0x00\n      dup2\n      dup2\n      dup2\n        /* \"contracts/Bank.sol\":1753:1774  address(this).balance */\n      dup6\n        /* \"contracts/Bank.sol\":1736:1752  account.transfer */\n      dup9\n        /* \"contracts/Bank.sol\":1736:1775  account.transfer(address(this).balance) */\n      dup9\n      call\n      swap4\n      pop\n      pop\n      pop\n      pop\n      iszero\n      dup1\n      iszero\n      tag_58\n      jumpi\n      returndatacopy(0x00, 0x00, returndatasize)\n      revert(0x00, returndatasize)\n    tag_58:\n      pop\n        /* \"contracts/Bank.sol\":1657:1784  function escape(address payable account) external payable OnlyOwner {... */\n      pop\n      jump\t// out\n        /* \"contracts/Bank.sol\":700:764  function deposit() external payable{... */\n    tag_39:\n        /* \"contracts/Bank.sol\":750:756  save() */\n      tag_60\n        /* \"contracts/Bank.sol\":750:754  save */\n      tag_12\n        /* \"contracts/Bank.sol\":750:756  save() */\n      jump\t// in\n    tag_60:\n        /* \"contracts/Bank.sol\":700:764  function deposit() external payable{... */\n      jump\t// out\n        /* \"contracts/Bank.sol\":982:1649  function withdraw(address payable account, uint256 amount) external payable {... */\n    tag_43:\n      sub(shl(0xa0, 0x01), 0x01)\n        /* \"contracts/Bank.sol\":1077:1098  account == msg.sender */\n      dup3\n      and\n        /* \"contracts/Bank.sol\":1088:1098  msg.sender */\n      caller\n        /* \"contracts/Bank.sol\":1077:1098  account == msg.sender */\n      eq\n        /* \"contracts/Bank.sol\":1069:1118  require(account == msg.sender,\"Not your wallet!\") */\n      tag_62\n      jumpi\n      mload(0x40)\n      shl(0xe5, 0x461bcd)\n      dup2\n      mstore\n        /* \"#utility.yul\":2529:2531   */\n      0x20\n        /* \"contracts/Bank.sol\":1069:1118  require(account == msg.sender,\"Not your wallet!\") */\n      0x04\n      dup3\n      add\n        /* \"#utility.yul\":2511:2532   */\n      mstore\n        /* \"#utility.yul\":2568:2570   */\n      0x10\n        /* \"#utility.yul\":2548:2566   */\n      0x24\n      dup3\n      add\n        /* \"#utility.yul\":2541:2571   */\n      mstore\n      shl(0x80, 0x4e6f7420796f75722077616c6c657421)\n        /* \"#utility.yul\":2587:2605   */\n      0x44\n      dup3\n      add\n        /* \"#utility.yul\":2580:2626   */\n      mstore\n        /* \"#utility.yul\":2643:2661   */\n      0x64\n      add\n        /* \"contracts/Bank.sol\":1069:1118  require(account == msg.sender,\"Not your wallet!\") */\n      tag_46\n        /* \"#utility.yul\":2327:2667   */\n      jump\n        /* \"contracts/Bank.sol\":1069:1118  require(account == msg.sender,\"Not your wallet!\") */\n    tag_62:\n        /* \"contracts/Bank.sol\":1132:1138  amount */\n      dup1\n        /* \"contracts/Bank.sol\":1142:1143  0 */\n      0x00\n        /* \"contracts/Bank.sol\":1132:1143  amount == 0 */\n      sub\n        /* \"contracts/Bank.sol\":1129:1184  if(amount == 0){ revert WithdrawalAmountZero(account);} */\n      tag_65\n      jumpi\n        /* \"contracts/Bank.sol\":1153:1182  WithdrawalAmountZero(account) */\n      mload(0x40)\n      shl(0xe0, 0x275e9c3f)\n      dup2\n      mstore\n      sub(shl(0xa0, 0x01), 0x01)\n        /* \"#utility.yul\":2844:2876   */\n      dup4\n      and\n        /* \"contracts/Bank.sol\":1153:1182  WithdrawalAmountZero(account) */\n      0x04\n      dup3\n      add\n        /* \"#utility.yul\":2826:2877   */\n      mstore\n        /* \"#utility.yul\":2799:2817   */\n      0x24\n      add\n        /* \"contracts/Bank.sol\":1153:1182  WithdrawalAmountZero(account) */\n      tag_46\n        /* \"#utility.yul\":2672:2883   */\n      jump\n        /* \"contracts/Bank.sol\":1129:1184  if(amount == 0){ revert WithdrawalAmountZero(account);} */\n    tag_65:\n        /* \"contracts/Bank.sol\":1211:1212  0 */\n      0x00\n        /* \"contracts/Bank.sol\":1202:1208  amount */\n      dup2\n        /* \"contracts/Bank.sol\":1202:1212  amount > 0 */\n      gt\n        /* \"contracts/Bank.sol\":1194:1246  require(amount > 0, \"Amount should be more than 0!\") */\n      tag_68\n      jumpi\n      mload(0x40)\n      shl(0xe5, 0x461bcd)\n      dup2\n      mstore\n        /* \"#utility.yul\":1566:1568   */\n      0x20\n        /* \"contracts/Bank.sol\":1194:1246  require(amount > 0, \"Amount should be more than 0!\") */\n      0x04\n      dup3\n      add\n        /* \"#utility.yul\":1548:1569   */\n      mstore\n        /* \"#utility.yul\":1605:1607   */\n      0x1d\n        /* \"#utility.yul\":1585:1603   */\n      0x24\n      dup3\n      add\n        /* \"#utility.yul\":1578:1608   */\n      mstore\n        /* \"#utility.yul\":1644:1675   */\n      0x416d6f756e742073686f756c64206265206d6f7265207468616e203021000000\n        /* \"#utility.yul\":1624:1642   */\n      0x44\n      dup3\n      add\n        /* \"#utility.yul\":1617:1676   */\n      mstore\n        /* \"#utility.yul\":1693:1711   */\n      0x64\n      add\n        /* \"contracts/Bank.sol\":1194:1246  require(amount > 0, \"Amount should be more than 0!\") */\n      tag_46\n        /* \"#utility.yul\":1364:1717   */\n      jump\n        /* \"contracts/Bank.sol\":1194:1246  require(amount > 0, \"Amount should be more than 0!\") */\n    tag_68:\n      sub(shl(0xa0, 0x01), 0x01)\n        /* \"contracts/Bank.sol\":1266:1281  locked[account] */\n      dup3\n      and\n      0x00\n      swap1\n      dup2\n      mstore\n        /* \"contracts/Bank.sol\":1266:1272  locked */\n      0x02\n        /* \"contracts/Bank.sol\":1266:1281  locked[account] */\n      0x20\n      mstore\n      0x40\n      swap1\n      keccak256\n      sload\n      0xff\n      and\n        /* \"contracts/Bank.sol\":1265:1281  !locked[account] */\n      iszero\n        /* \"contracts/Bank.sol\":1257:1309  require(!locked[account], \"Sumultaneouse withdraw!\") */\n      tag_70\n      jumpi\n      mload(0x40)\n      shl(0xe5, 0x461bcd)\n      dup2\n      mstore\n        /* \"#utility.yul\":3090:3092   */\n      0x20\n        /* \"contracts/Bank.sol\":1257:1309  require(!locked[account], \"Sumultaneouse withdraw!\") */\n      0x04\n      dup3\n      add\n        /* \"#utility.yul\":3072:3093   */\n      mstore\n        /* \"#utility.yul\":3129:3131   */\n      0x17\n        /* \"#utility.yul\":3109:3127   */\n      0x24\n      dup3\n      add\n        /* \"#utility.yul\":3102:3132   */\n      mstore\n        /* \"#utility.yul\":3168:3193   */\n      0x53756d756c74616e656f75736520776974686472617721000000000000000000\n        /* \"#utility.yul\":3148:3166   */\n      0x44\n      dup3\n      add\n        /* \"#utility.yul\":3141:3194   */\n      mstore\n        /* \"#utility.yul\":3211:3229   */\n      0x64\n      add\n        /* \"contracts/Bank.sol\":1257:1309  require(!locked[account], \"Sumultaneouse withdraw!\") */\n      tag_46\n        /* \"#utility.yul\":2888:3235   */\n      jump\n        /* \"contracts/Bank.sol\":1257:1309  require(!locked[account], \"Sumultaneouse withdraw!\") */\n    tag_70:\n      sub(shl(0xa0, 0x01), 0x01)\n        /* \"contracts/Bank.sol\":1323:1340  balances[account] */\n      dup3\n      and\n      0x00\n      swap1\n      dup2\n      mstore\n        /* \"contracts/Bank.sol\":1323:1331  balances */\n      0x01\n        /* \"contracts/Bank.sol\":1323:1340  balances[account] */\n      0x20\n      mstore\n      0x40\n      swap1\n      keccak256\n      sload\n        /* \"contracts/Bank.sol\":1323:1349  balances[account] < amount */\n      dup2\n      gt\n        /* \"contracts/Bank.sol\":1320:1452  if(balances[account] < amount) {... */\n      iszero\n      tag_73\n      jumpi\n      sub(shl(0xa0, 0x01), 0x01)\n        /* \"contracts/Bank.sol\":1422:1439  balances[account] */\n      dup3\n      and\n      0x00\n      dup2\n      dup2\n      mstore\n        /* \"contracts/Bank.sol\":1422:1430  balances */\n      0x01\n        /* \"contracts/Bank.sol\":1422:1439  balances[account] */\n      0x20\n      mstore\n      0x40\n      swap1\n      dup2\n      swap1\n      keccak256\n      sload\n        /* \"contracts/Bank.sol\":1374:1440  WithdrawalAmountExceedsBalance(account, amount, balances[account]) */\n      swap1\n      mload\n      shl(0xe3, 0x15e5cd3f)\n      dup2\n      mstore\n      0x04\n      dup2\n      add\n        /* \"#utility.yul\":3450:3501   */\n      swap3\n      swap1\n      swap3\n      mstore\n        /* \"#utility.yul\":3517:3535   */\n      0x24\n      dup3\n      add\n        /* \"#utility.yul\":3510:3544   */\n      dup4\n      swap1\n      mstore\n        /* \"#utility.yul\":3560:3578   */\n      0x44\n      dup3\n      add\n        /* \"#utility.yul\":3553:3587   */\n      mstore\n        /* \"#utility.yul\":3423:3441   */\n      0x64\n      add\n        /* \"contracts/Bank.sol\":1374:1440  WithdrawalAmountExceedsBalance(account, amount, balances[account]) */\n      tag_46\n        /* \"#utility.yul\":3240:3593   */\n      jump\n        /* \"contracts/Bank.sol\":1320:1452  if(balances[account] < amount) {... */\n    tag_73:\n      sub(shl(0xa0, 0x01), 0x01)\n        /* \"contracts/Bank.sol\":1464:1479  locked[account] */\n      dup3\n      and\n      0x00\n      dup2\n      dup2\n      mstore\n        /* \"contracts/Bank.sol\":1464:1470  locked */\n      0x02\n        /* \"contracts/Bank.sol\":1464:1479  locked[account] */\n      0x20\n      mstore\n      0x40\n      dup1\n      dup3\n      keccak256\n        /* \"contracts/Bank.sol\":1464:1486  locked[account] = true */\n      dup1\n      sload\n      not(0xff)\n      and\n        /* \"contracts/Bank.sol\":1482:1486  true */\n      0x01\n        /* \"contracts/Bank.sol\":1464:1486  locked[account] = true */\n      or\n      swap1\n      sstore\n        /* \"contracts/Bank.sol\":1501:1525  account.transfer(amount) */\n      mload\n      dup4\n      iszero\n      0x08fc\n      mul\n      swap2\n        /* \"contracts/Bank.sol\":1518:1524  amount */\n      dup5\n      swap2\n        /* \"contracts/Bank.sol\":1501:1525  account.transfer(amount) */\n      swap1\n      dup2\n        /* \"contracts/Bank.sol\":1464:1479  locked[account] */\n      dup2\n        /* \"contracts/Bank.sol\":1501:1525  account.transfer(amount) */\n      dup2\n        /* \"contracts/Bank.sol\":1518:1524  amount */\n      dup6\n        /* \"contracts/Bank.sol\":1464:1479  locked[account] */\n      dup9\n        /* \"contracts/Bank.sol\":1501:1525  account.transfer(amount) */\n      dup9\n      call\n      swap4\n      pop\n      pop\n      pop\n      pop\n      iszero\n      dup1\n      iszero\n      tag_77\n      jumpi\n      returndatacopy(0x00, 0x00, returndatasize)\n      revert(0x00, returndatasize)\n    tag_77:\n      pop\n      sub(shl(0xa0, 0x01), 0x01)\n        /* \"contracts/Bank.sol\":1536:1553  balances[account] */\n      dup3\n      and\n      0x00\n      swap1\n      dup2\n      mstore\n        /* \"contracts/Bank.sol\":1536:1544  balances */\n      0x01\n        /* \"contracts/Bank.sol\":1536:1553  balances[account] */\n      0x20\n      mstore\n      0x40\n      dup2\n      keccak256\n        /* \"contracts/Bank.sol\":1536:1563  balances[account] -= amount */\n      dup1\n      sload\n        /* \"contracts/Bank.sol\":1557:1563  amount */\n      dup4\n      swap3\n        /* \"contracts/Bank.sol\":1536:1553  balances[account] */\n      swap1\n        /* \"contracts/Bank.sol\":1536:1563  balances[account] -= amount */\n      tag_78\n      swap1\n        /* \"contracts/Bank.sol\":1557:1563  amount */\n      dup5\n      swap1\n        /* \"contracts/Bank.sol\":1536:1563  balances[account] -= amount */\n      tag_79\n      jump\t// in\n    tag_78:\n      swap1\n      swap2\n      sstore\n      pop\n      pop\n      sub(shl(0xa0, 0x01), 0x01)\n        /* \"contracts/Bank.sol\":1574:1589  locked[account] */\n      dup3\n      and\n        /* \"contracts/Bank.sol\":1592:1597  false */\n      0x00\n        /* \"contracts/Bank.sol\":1574:1589  locked[account] */\n      dup2\n      dup2\n      mstore\n        /* \"contracts/Bank.sol\":1574:1580  locked */\n      0x02\n        /* \"contracts/Bank.sol\":1574:1589  locked[account] */\n      0x20\n      mstore\n      0x40\n      swap1\n      dup2\n      swap1\n      keccak256\n        /* \"contracts/Bank.sol\":1574:1597  locked[account] = false */\n      dup1\n      sload\n      not(0xff)\n      and\n      swap1\n      sstore\n        /* \"contracts/Bank.sol\":1613:1640  Withdrawal(account, amount) */\n      mload\n      0x7fcf532c15f0a6db0bd6d0e038bea71d30d808c7d98cb3bf7268a95bf5081b65\n      swap1\n      tag_80\n      swap1\n        /* \"contracts/Bank.sol\":1633:1639  amount */\n      dup5\n        /* \"#utility.yul\":548:573   */\n      dup2\n      mstore\n        /* \"#utility.yul\":536:538   */\n      0x20\n        /* \"#utility.yul\":521:539   */\n      add\n      swap1\n        /* \"#utility.yul\":402:579   */\n      jump\n        /* \"contracts/Bank.sol\":1613:1640  Withdrawal(account, amount) */\n    tag_80:\n      mload(0x40)\n      dup1\n      swap2\n      sub\n      swap1\n      log2\n        /* \"contracts/Bank.sol\":982:1649  function withdraw(address payable account, uint256 amount) external payable {... */\n      pop\n      pop\n      jump\t// out\n        /* \"#utility.yul\":14:145   */\n    tag_81:\n      sub(shl(0xa0, 0x01), 0x01)\n        /* \"#utility.yul\":89:120   */\n      dup2\n      and\n        /* \"#utility.yul\":79:121   */\n      dup2\n      eq\n        /* \"#utility.yul\":69:139   */\n      tag_85\n      jumpi\n        /* \"#utility.yul\":135:136   */\n      0x00\n        /* \"#utility.yul\":132:133   */\n      0x00\n        /* \"#utility.yul\":125:137   */\n      revert\n        /* \"#utility.yul\":69:139   */\n    tag_85:\n        /* \"#utility.yul\":14:145   */\n      pop\n      jump\t// out\n        /* \"#utility.yul\":150:397   */\n    tag_19:\n        /* \"#utility.yul\":209:215   */\n      0x00\n        /* \"#utility.yul\":262:264   */\n      0x20\n        /* \"#utility.yul\":250:259   */\n      dup3\n        /* \"#utility.yul\":241:248   */\n      dup5\n        /* \"#utility.yul\":237:260   */\n      sub\n        /* \"#utility.yul\":233:265   */\n      slt\n        /* \"#utility.yul\":230:282   */\n      iszero\n      tag_87\n      jumpi\n        /* \"#utility.yul\":278:279   */\n      0x00\n        /* \"#utility.yul\":275:276   */\n      0x00\n        /* \"#utility.yul\":268:280   */\n      revert\n        /* \"#utility.yul\":230:282   */\n    tag_87:\n        /* \"#utility.yul\":317:326   */\n      dup2\n        /* \"#utility.yul\":304:327   */\n      calldataload\n        /* \"#utility.yul\":336:367   */\n      tag_88\n        /* \"#utility.yul\":361:366   */\n      dup2\n        /* \"#utility.yul\":336:367   */\n      tag_81\n      jump\t// in\n    tag_88:\n        /* \"#utility.yul\":386:391   */\n      swap4\n        /* \"#utility.yul\":150:397   */\n      swap3\n      pop\n      pop\n      pop\n      jump\t// out\n        /* \"#utility.yul\":1036:1359   */\n    tag_42:\n        /* \"#utility.yul\":1112:1118   */\n      0x00\n        /* \"#utility.yul\":1120:1126   */\n      0x00\n        /* \"#utility.yul\":1173:1175   */\n      0x40\n        /* \"#utility.yul\":1161:1170   */\n      dup4\n        /* \"#utility.yul\":1152:1159   */\n      dup6\n        /* \"#utility.yul\":1148:1171   */\n      sub\n        /* \"#utility.yul\":1144:1176   */\n      slt\n        /* \"#utility.yul\":1141:1193   */\n      iszero\n      tag_95\n      jumpi\n        /* \"#utility.yul\":1189:1190   */\n      0x00\n        /* \"#utility.yul\":1186:1187   */\n      0x00\n        /* \"#utility.yul\":1179:1191   */\n      revert\n        /* \"#utility.yul\":1141:1193   */\n    tag_95:\n        /* \"#utility.yul\":1228:1237   */\n      dup3\n        /* \"#utility.yul\":1215:1238   */\n      calldataload\n        /* \"#utility.yul\":1247:1278   */\n      tag_96\n        /* \"#utility.yul\":1272:1277   */\n      dup2\n        /* \"#utility.yul\":1247:1278   */\n      tag_81\n      jump\t// in\n    tag_96:\n        /* \"#utility.yul\":1297:1302   */\n      swap5\n        /* \"#utility.yul\":1349:1351   */\n      0x20\n        /* \"#utility.yul\":1334:1352   */\n      swap4\n      swap1\n      swap4\n      add\n        /* \"#utility.yul\":1321:1353   */\n      calldataload\n      swap4\n      pop\n      pop\n      pop\n        /* \"#utility.yul\":1036:1359   */\n      jump\t// out\n        /* \"#utility.yul\":1722:1849   */\n    tag_82:\n        /* \"#utility.yul\":1783:1793   */\n      0x4e487b71\n        /* \"#utility.yul\":1778:1781   */\n      0xe0\n        /* \"#utility.yul\":1774:1794   */\n      shl\n        /* \"#utility.yul\":1771:1772   */\n      0x00\n        /* \"#utility.yul\":1764:1795   */\n      mstore\n        /* \"#utility.yul\":1814:1818   */\n      0x11\n        /* \"#utility.yul\":1811:1812   */\n      0x04\n        /* \"#utility.yul\":1804:1819   */\n      mstore\n        /* \"#utility.yul\":1838:1842   */\n      0x24\n        /* \"#utility.yul\":1835:1836   */\n      0x00\n        /* \"#utility.yul\":1828:1843   */\n      revert\n        /* \"#utility.yul\":1854:1979   */\n    tag_49:\n        /* \"#utility.yul\":1919:1928   */\n      dup1\n      dup3\n      add\n        /* \"#utility.yul\":1940:1950   */\n      dup1\n      dup3\n      gt\n        /* \"#utility.yul\":1937:1973   */\n      iszero\n      tag_101\n      jumpi\n        /* \"#utility.yul\":1953:1971   */\n      tag_101\n      tag_82\n      jump\t// in\n    tag_101:\n        /* \"#utility.yul\":1854:1979   */\n      swap3\n      swap2\n      pop\n      pop\n      jump\t// out\n        /* \"#utility.yul\":3598:3726   */\n    tag_79:\n        /* \"#utility.yul\":3665:3674   */\n      dup2\n      dup2\n      sub\n        /* \"#utility.yul\":3686:3697   */\n      dup2\n      dup2\n      gt\n        /* \"#utility.yul\":3683:3720   */\n      iszero\n      tag_101\n      jumpi\n        /* \"#utility.yul\":3700:3718   */\n      tag_101\n      tag_82\n      jump\t// in\n\n    auxdata: 0xa26469706673582212205276ffb5300abad76bd117cf3063d8f8d1af9e70f3ed332ded3b7d08beb1257d64736f6c634300081c0033\n}\n",
				"bytecode": {
					"linkReferences": {},
					"object": "6080604052348015600e575f5ffd5b505f80546001600160a01b031916331790556105bf8061002d5f395ff3fe608060405260043610610058575f3560e01c806327e235e31461006f57806370a08231146100ad5780639cb6ed7e146100e1578063cbf9fe5f146100f4578063d0e30db014610132578063f3fef3a31461013a57610067565b366100675761006561014d565b005b61006561014d565b34801561007a575f5ffd5b5061009a6100893660046104fd565b60016020525f908152604090205481565b6040519081526020015b60405180910390f35b3480156100b8575f5ffd5b5061009a6100c73660046104fd565b6001600160a01b03165f9081526001602052604090205490565b6100656100ef3660046104fd565b6101fb565b3480156100ff575f5ffd5b5061012261010e3660046104fd565b60026020525f908152604090205460ff1681565b60405190151581526020016100a4565b61006561027b565b61006561014836600461051f565b610285565b5f34116101a15760405162461bcd60e51b815260206004820152601d60248201527f416d6f756e742073686f756c64206265206d6f7265207468616e20302100000060448201526064015b60405180910390fd5b335f90815260016020526040812080543492906101bf90849061055d565b909155505060405134815233907fe1fffcc4923d04b559f4d29a8bfc6cda04eb5b0d3c460751c2402c5c5cc9109c9060200160405180910390a2565b5f546001600160a01b031633146102455760405162461bcd60e51b815260206004820152600e60248201526d4e6f7420746865206f776e65722160901b6044820152606401610198565b6040516001600160a01b038216904780156108fc02915f818181858888f19350505050158015610277573d5f5f3e3d5ffd5b5050565b61028361014d565b565b6001600160a01b03821633146102d05760405162461bcd60e51b815260206004820152601060248201526f4e6f7420796f75722077616c6c65742160801b6044820152606401610198565b805f036102fb5760405163275e9c3f60e01b81526001600160a01b0383166004820152602401610198565b5f811161034a5760405162461bcd60e51b815260206004820152601d60248201527f416d6f756e742073686f756c64206265206d6f7265207468616e2030210000006044820152606401610198565b6001600160a01b0382165f9081526002602052604090205460ff16156103b25760405162461bcd60e51b815260206004820152601760248201527f53756d756c74616e656f757365207769746864726177210000000000000000006044820152606401610198565b6001600160a01b0382165f90815260016020526040902054811115610413576001600160a01b0382165f81815260016020526040908190205490516315e5cd3f60e31b81526004810192909252602482018390526044820152606401610198565b6001600160a01b0382165f81815260026020526040808220805460ff191660011790555183156108fc0291849190818181858888f1935050505015801561045c573d5f5f3e3d5ffd5b506001600160a01b0382165f9081526001602052604081208054839290610484908490610576565b90915550506001600160a01b0382165f8181526002602052604090819020805460ff19169055517f7fcf532c15f0a6db0bd6d0e038bea71d30d808c7d98cb3bf7268a95bf5081b65906104da9084815260200190565b60405180910390a25050565b6001600160a01b03811681146104fa575f5ffd5b50565b5f6020828403121561050d575f5ffd5b8135610518816104e6565b9392505050565b5f5f60408385031215610530575f5ffd5b823561053b816104e6565b946020939093013593505050565b634e487b7160e01b5f52601160045260245ffd5b8082018082111561057057610570610549565b92915050565b818103818111156105705761057061054956fea26469706673582212205276ffb5300abad76bd117cf3063d8f8d1af9e70f3ed332ded3b7d08beb1257d64736f6c634300081c0033",
					"opcodes": "PUSH1 0x80 PUSH1 0x40 MSTORE CALLVALUE DUP1 ISZERO PUSH1 0xE JUMPI PUSH0 PUSH0 REVERT JUMPDEST POP PUSH0 DUP1 SLOAD PUSH1 0x1 PUSH1 0x1 PUSH1 0xA0 SHL SUB NOT AND CALLER OR SWAP1 SSTORE PUSH2 0x5BF DUP1 PUSH2 0x2D PUSH0 CODECOPY PUSH0 RETURN INVALID PUSH1 0x80 PUSH1 0x40 MSTORE PUSH1 0x4 CALLDATASIZE LT PUSH2 0x58 JUMPI PUSH0 CALLDATALOAD PUSH1 0xE0 SHR DUP1 PUSH4 0x27E235E3 EQ PUSH2 0x6F JUMPI DUP1 PUSH4 0x70A08231 EQ PUSH2 0xAD JUMPI DUP1 PUSH4 0x9CB6ED7E EQ PUSH2 0xE1 JUMPI DUP1 PUSH4 0xCBF9FE5F EQ PUSH2 0xF4 JUMPI DUP1 PUSH4 0xD0E30DB0 EQ PUSH2 0x132 JUMPI DUP1 PUSH4 0xF3FEF3A3 EQ PUSH2 0x13A JUMPI PUSH2 0x67 JUMP JUMPDEST CALLDATASIZE PUSH2 0x67 JUMPI PUSH2 0x65 PUSH2 0x14D JUMP JUMPDEST STOP JUMPDEST PUSH2 0x65 PUSH2 0x14D JUMP JUMPDEST CALLVALUE DUP1 ISZERO PUSH2 0x7A JUMPI PUSH0 PUSH0 REVERT JUMPDEST POP PUSH2 0x9A PUSH2 0x89 CALLDATASIZE PUSH1 0x4 PUSH2 0x4FD JUMP JUMPDEST PUSH1 0x1 PUSH1 0x20 MSTORE PUSH0 SWAP1 DUP2 MSTORE PUSH1 0x40 SWAP1 KECCAK256 SLOAD DUP2 JUMP JUMPDEST PUSH1 0x40 MLOAD SWAP1 DUP2 MSTORE PUSH1 0x20 ADD JUMPDEST PUSH1 0x40 MLOAD DUP1 SWAP2 SUB SWAP1 RETURN JUMPDEST CALLVALUE DUP1 ISZERO PUSH2 0xB8 JUMPI PUSH0 PUSH0 REVERT JUMPDEST POP PUSH2 0x9A PUSH2 0xC7 CALLDATASIZE PUSH1 0x4 PUSH2 0x4FD JUMP JUMPDEST PUSH1 0x1 PUSH1 0x1 PUSH1 0xA0 SHL SUB AND PUSH0 SWAP1 DUP2 MSTORE PUSH1 0x1 PUSH1 0x20 MSTORE PUSH1 0x40 SWAP1 KECCAK256 SLOAD SWAP1 JUMP JUMPDEST PUSH2 0x65 PUSH2 0xEF CALLDATASIZE PUSH1 0x4 PUSH2 0x4FD JUMP JUMPDEST PUSH2 0x1FB JUMP JUMPDEST CALLVALUE DUP1 ISZERO PUSH2 0xFF JUMPI PUSH0 PUSH0 REVERT JUMPDEST POP PUSH2 0x122 PUSH2 0x10E CALLDATASIZE PUSH1 0x4 PUSH2 0x4FD JUMP JUMPDEST PUSH1 0x2 PUSH1 0x20 MSTORE PUSH0 SWAP1 DUP2 MSTORE PUSH1 0x40 SWAP1 KECCAK256 SLOAD PUSH1 0xFF AND DUP2 JUMP JUMPDEST PUSH1 0x40 MLOAD SWAP1 ISZERO ISZERO DUP2 MSTORE PUSH1 0x20 ADD PUSH2 0xA4 JUMP JUMPDEST PUSH2 0x65 PUSH2 0x27B JUMP JUMPDEST PUSH2 0x65 PUSH2 0x148 CALLDATASIZE PUSH1 0x4 PUSH2 0x51F JUMP JUMPDEST PUSH2 0x285 JUMP JUMPDEST PUSH0 CALLVALUE GT PUSH2 0x1A1 JUMPI PUSH1 0x40 MLOAD PUSH3 0x461BCD PUSH1 0xE5 SHL DUP2 MSTORE PUSH1 0x20 PUSH1 0x4 DUP3 ADD MSTORE PUSH1 0x1D PUSH1 0x24 DUP3 ADD MSTORE PUSH32 0x416D6F756E742073686F756C64206265206D6F7265207468616E203021000000 PUSH1 0x44 DUP3 ADD MSTORE PUSH1 0x64 ADD JUMPDEST PUSH1 0x40 MLOAD DUP1 SWAP2 SUB SWAP1 REVERT JUMPDEST CALLER PUSH0 SWAP1 DUP2 MSTORE PUSH1 0x1 PUSH1 0x20 MSTORE PUSH1 0x40 DUP2 KECCAK256 DUP1 SLOAD CALLVALUE SWAP3 SWAP1 PUSH2 0x1BF SWAP1 DUP5 SWAP1 PUSH2 0x55D JUMP JUMPDEST SWAP1 SWAP2 SSTORE POP POP PUSH1 0x40 MLOAD CALLVALUE DUP2 MSTORE CALLER SWAP1 PUSH32 0xE1FFFCC4923D04B559F4D29A8BFC6CDA04EB5B0D3C460751C2402C5C5CC9109C SWAP1 PUSH1 0x20 ADD PUSH1 0x40 MLOAD DUP1 SWAP2 SUB SWAP1 LOG2 JUMP JUMPDEST PUSH0 SLOAD PUSH1 0x1 PUSH1 0x1 PUSH1 0xA0 SHL SUB AND CALLER EQ PUSH2 0x245 JUMPI PUSH1 0x40 MLOAD PUSH3 0x461BCD PUSH1 0xE5 SHL DUP2 MSTORE PUSH1 0x20 PUSH1 0x4 DUP3 ADD MSTORE PUSH1 0xE PUSH1 0x24 DUP3 ADD MSTORE PUSH14 0x4E6F7420746865206F776E657221 PUSH1 0x90 SHL PUSH1 0x44 DUP3 ADD MSTORE PUSH1 0x64 ADD PUSH2 0x198 JUMP JUMPDEST PUSH1 0x40 MLOAD PUSH1 0x1 PUSH1 0x1 PUSH1 0xA0 SHL SUB DUP3 AND SWAP1 SELFBALANCE DUP1 ISZERO PUSH2 0x8FC MUL SWAP2 PUSH0 DUP2 DUP2 DUP2 DUP6 DUP9 DUP9 CALL SWAP4 POP POP POP POP ISZERO DUP1 ISZERO PUSH2 0x277 JUMPI RETURNDATASIZE PUSH0 PUSH0 RETURNDATACOPY RETURNDATASIZE PUSH0 REVERT JUMPDEST POP POP JUMP JUMPDEST PUSH2 0x283 PUSH2 0x14D JUMP JUMPDEST JUMP JUMPDEST PUSH1 0x1 PUSH1 0x1 PUSH1 0xA0 SHL SUB DUP3 AND CALLER EQ PUSH2 0x2D0 JUMPI PUSH1 0x40 MLOAD PUSH3 0x461BCD PUSH1 0xE5 SHL DUP2 MSTORE PUSH1 0x20 PUSH1 0x4 DUP3 ADD MSTORE PUSH1 0x10 PUSH1 0x24 DUP3 ADD MSTORE PUSH16 0x4E6F7420796F75722077616C6C657421 PUSH1 0x80 SHL PUSH1 0x44 DUP3 ADD MSTORE PUSH1 0x64 ADD PUSH2 0x198 JUMP JUMPDEST DUP1 PUSH0 SUB PUSH2 0x2FB JUMPI PUSH1 0x40 MLOAD PUSH4 0x275E9C3F PUSH1 0xE0 SHL DUP2 MSTORE PUSH1 0x1 PUSH1 0x1 PUSH1 0xA0 SHL SUB DUP4 AND PUSH1 0x4 DUP3 ADD MSTORE PUSH1 0x24 ADD PUSH2 0x198 JUMP JUMPDEST PUSH0 DUP2 GT PUSH2 0x34A JUMPI PUSH1 0x40 MLOAD PUSH3 0x461BCD PUSH1 0xE5 SHL DUP2 MSTORE PUSH1 0x20 PUSH1 0x4 DUP3 ADD MSTORE PUSH1 0x1D PUSH1 0x24 DUP3 ADD MSTORE PUSH32 0x416D6F756E742073686F756C64206265206D6F7265207468616E203021000000 PUSH1 0x44 DUP3 ADD MSTORE PUSH1 0x64 ADD PUSH2 0x198 JUMP JUMPDEST PUSH1 0x1 PUSH1 0x1 PUSH1 0xA0 SHL SUB DUP3 AND PUSH0 SWAP1 DUP2 MSTORE PUSH1 0x2 PUSH1 0x20 MSTORE PUSH1 0x40 SWAP1 KECCAK256 SLOAD PUSH1 0xFF AND ISZERO PUSH2 0x3B2 JUMPI PUSH1 0x40 MLOAD PUSH3 0x461BCD PUSH1 0xE5 SHL DUP2 MSTORE PUSH1 0x20 PUSH1 0x4 DUP3 ADD MSTORE PUSH1 0x17 PUSH1 0x24 DUP3 ADD MSTORE PUSH32 0x53756D756C74616E656F75736520776974686472617721000000000000000000 PUSH1 0x44 DUP3 ADD MSTORE PUSH1 0x64 ADD PUSH2 0x198 JUMP JUMPDEST PUSH1 0x1 PUSH1 0x1 PUSH1 0xA0 SHL SUB DUP3 AND PUSH0 SWAP1 DUP2 MSTORE PUSH1 0x1 PUSH1 0x20 MSTORE PUSH1 0x40 SWAP1 KECCAK256 SLOAD DUP2 GT ISZERO PUSH2 0x413 JUMPI PUSH1 0x1 PUSH1 0x1 PUSH1 0xA0 SHL SUB DUP3 AND PUSH0 DUP2 DUP2 MSTORE PUSH1 0x1 PUSH1 0x20 MSTORE PUSH1 0x40 SWAP1 DUP2 SWAP1 KECCAK256 SLOAD SWAP1 MLOAD PUSH4 0x15E5CD3F PUSH1 0xE3 SHL DUP2 MSTORE PUSH1 0x4 DUP2 ADD SWAP3 SWAP1 SWAP3 MSTORE PUSH1 0x24 DUP3 ADD DUP4 SWAP1 MSTORE PUSH1 0x44 DUP3 ADD MSTORE PUSH1 0x64 ADD PUSH2 0x198 JUMP JUMPDEST PUSH1 0x1 PUSH1 0x1 PUSH1 0xA0 SHL SUB DUP3 AND PUSH0 DUP2 DUP2 MSTORE PUSH1 0x2 PUSH1 0x20 MSTORE PUSH1 0x40 DUP1 DUP3 KECCAK256 DUP1 SLOAD PUSH1 0xFF NOT AND PUSH1 0x1 OR SWAP1 SSTORE MLOAD DUP4 ISZERO PUSH2 0x8FC MUL SWAP2 DUP5 SWAP2 SWAP1 DUP2 DUP2 DUP2 DUP6 DUP9 DUP9 CALL SWAP4 POP POP POP POP ISZERO DUP1 ISZERO PUSH2 0x45C JUMPI RETURNDATASIZE PUSH0 PUSH0 RETURNDATACOPY RETURNDATASIZE PUSH0 REVERT JUMPDEST POP PUSH1 0x1 PUSH1 0x1 PUSH1 0xA0 SHL SUB DUP3 AND PUSH0 SWAP1 DUP2 MSTORE PUSH1 0x1 PUSH1 0x20 MSTORE PUSH1 0x40 DUP2 KECCAK256 DUP1 SLOAD DUP4 SWAP3 SWAP1 PUSH2 0x484 SWAP1 DUP5 SWAP1 PUSH2 0x576 JUMP JUMPDEST SWAP1 SWAP2 SSTORE POP POP PUSH1 0x1 PUSH1 0x1 PUSH1 0xA0 SHL SUB DUP3 AND PUSH0 DUP2 DUP2 MSTORE PUSH1 0x2 PUSH1 0x20 MSTORE PUSH1 0x40 SWAP1 DUP2 SWAP1 KECCAK256 DUP1 SLOAD PUSH1 0xFF NOT AND SWAP1 SSTORE MLOAD PUSH32 0x7FCF532C15F0A6DB0BD6D0E038BEA71D30D808C7D98CB3BF7268A95BF5081B65 SWAP1 PUSH2 0x4DA SWAP1 DUP5 DUP2 MSTORE PUSH1 0x20 ADD SWAP1 JUMP JUMPDEST PUSH1 0x40 MLOAD DUP1 SWAP2 SUB SWAP1 LOG2 POP POP JUMP JUMPDEST PUSH1 0x1 PUSH1 0x1 PUSH1 0xA0 SHL SUB DUP2 AND DUP2 EQ PUSH2 0x4FA JUMPI PUSH0 PUSH0 REVERT JUMPDEST POP JUMP JUMPDEST PUSH0 PUSH1 0x20 DUP3 DUP5 SUB SLT ISZERO PUSH2 0x50D JUMPI PUSH0 PUSH0 REVERT JUMPDEST DUP2 CALLDATALOAD PUSH2 0x518 DUP2 PUSH2 0x4E6 JUMP JUMPDEST SWAP4 SWAP3 POP POP POP JUMP JUMPDEST PUSH0 PUSH0 PUSH1 0x40 DUP4 DUP6 SUB SLT ISZERO PUSH2 0x530 JUMPI PUSH0 PUSH0 REVERT JUMPDEST DUP3 CALLDATALOAD PUSH2 0x53B DUP2 PUSH2 0x4E6 JUMP JUMPDEST SWAP5 PUSH1 0x20 SWAP4 SWAP1 SWAP4 ADD CALLDATALOAD SWAP4 POP POP POP JUMP JUMPDEST PUSH4 0x4E487B71 PUSH1 0xE0 SHL PUSH0 MSTORE PUSH1 0x11 PUSH1 0x4 MSTORE PUSH1 0x24 PUSH0 REVERT JUMPDEST DUP1 DUP3 ADD DUP1 DUP3 GT ISZERO PUSH2 0x570 JUMPI PUSH2 0x570 PUSH2 0x549 JUMP JUMPDEST SWAP3 SWAP2 POP POP JUMP JUMPDEST DUP2 DUP2 SUB DUP2 DUP2 GT ISZERO PUSH2 0x570 JUMPI PUSH2 0x570 PUSH2 0x549 JUMP INVALID LOG2 PUSH5 0x6970667358 0x22 SLT KECCAK256 MSTORE PUSH23 0xFFB5300ABAD76BD117CF3063D8F8D1AF9E70F3ED332DED EXTCODESIZE PUSH30 0x8BEB1257D64736F6C634300081C00330000000000000000000000000000 "
				},
				"gasEstimates": {
					"creation": {
						"codeDepositCost": "294200",
						"executionCost": "24563",
						"totalCost": "318763"
					},
					"external": {
						"": "26044",
						"balanceOf(address)": "2517",
						"balances(address)": "2477",
						"deposit()": "26035",
						"escape(address)": "infinite",
						"locked(address)": "2566",
						"withdraw(address,uint256)": "infinite"
					},
					"internal": {
						"save()": "infinite"
					}
				},
				"methodIdentifiers": {
					"balanceOf(address)": "70a08231",
					"balances(address)": "27e235e3",
					"deposit()": "d0e30db0",
					"escape(address)": "9cb6ed7e",
					"locked(address)": "cbf9fe5f",
					"withdraw(address,uint256)": "f3fef3a3"
				}
			},
			"storageLayout": {
				"storage": [
					{
						"astId": 6,
						"contract": "contracts/Bank.sol:Bank",
						"label": "owner",
						"offset": 0,
						"slot": "0",
						"type": "t_address"
					},
					{
						"astId": 10,
						"contract": "contracts/Bank.sol:Bank",
						"label": "balances",
						"offset": 0,
						"slot": "1",
						"type": "t_mapping(t_address,t_uint256)"
					},
					{
						"astId": 14,
						"contract": "contracts/Bank.sol:Bank",
						"label": "locked",
						"offset": 0,
						"slot": "2",
						"type": "t_mapping(t_address,t_bool)"
					}
				],
				"types": {
					"t_address": {
						"encoding": "inplace",
						"label": "address",
						"numberOfBytes": "20"
					},
					"t_bool": {
						"encoding": "inplace",
						"label": "bool",
						"numberOfBytes": "1"
					},
					"t_mapping(t_address,t_bool)": {
						"encoding": "mapping",
						"key": "t_address",
						"label": "mapping(address => bool)",
						"numberOfBytes": "32",
						"value": "t_bool"
					},
					"t_mapping(t_address,t_uint256)": {
						"encoding": "mapping",
						"key": "t_address",
						"label": "mapping(address => uint256)",
						"numberOfBytes": "32",
						"value": "t_uint256"
					},
					"t_uint256": {
						"encoding": "inplace",
						"label": "uint256",
						"numberOfBytes": "32"
					}
				}
			},
			"userdoc": {
				"kind": "user",
				"methods": {},
				"version": 1
			}
		}
	}
}