{
	"data": {
		"bytecode": {
			"linkReferences": {},
			"object": "608060405234801561000f575f5ffd5b506040516115b93803806115b983398101604081905261002e91610252565b5f6100398482610365565b5060016100468382610365565b5060026100538282610365565b5060038054336001600160a01b03199182168117909255600480549091169091178155604080516080810182525f80825282518084018452601381527f526f6f6d206f6620526571756972656d656e740000000000000000000000000060208083019190915280840191825284518086018652601581527f4f70656e206f6e6c79207768656e206e6565646564000000000000000000000091810191909152938301939093526060820181905260058054600181018255915281517f036b6384b5eca791c62761152d0c79bb0604c104a5fb6f4eb0703f3154bb3db091909402908101805460ff191660ff90951694909417845591519092917f036b6384b5eca791c62761152d0c79bb0604c104a5fb6f4eb0703f3154bb3db101906101799082610365565b506040820151600282019061018e9082610365565b50606091909101516003909101805460ff191660ff9092169190911790555061041f915050565b634e487b7160e01b5f52604160045260245ffd5b5f82601f8301126101d8575f5ffd5b81516001600160401b038111156101f1576101f16101b5565b604051601f8201601f19908116603f011681016001600160401b038111828210171561021f5761021f6101b5565b604052818152838201602001851015610236575f5ffd5b8160208501602083015e5f918101602001919091529392505050565b5f5f5f60608486031215610264575f5ffd5b83516001600160401b03811115610279575f5ffd5b610285868287016101c9565b602086015190945090506001600160401b038111156102a2575f5ffd5b6102ae868287016101c9565b604086015190935090506001600160401b038111156102cb575f5ffd5b6102d7868287016101c9565b9150509250925092565b600181811c908216806102f557607f821691505b60208210810361031357634e487b7160e01b5f52602260045260245ffd5b50919050565b601f82111561036057805f5260205f20601f840160051c8101602085101561033e5750805b601f840160051c820191505b8181101561035d575f815560010161034a565b50505b505050565b81516001600160401b0381111561037e5761037e6101b5565b6103928161038c84546102e1565b84610319565b6020601f8211600181146103c4575f83156103ad5750848201515b5f19600385901b1c1916600184901b17845561035d565b5f84815260208120601f198516915b828110156103f357878501518255602094850194600190920191016103d3565b508482101561041057868401515f19600387901b60f8161c191681555b50505050600190811b01905550565b61118d8061042c5f395ff3fe6080604052600436106100fa575f3560e01c806361ff10ce1161009257806395d89b411161006257806395d89b41146102b8578063a22cb465146102cc578063dd726de1146102eb578063df8089ef1461030a578063e985e9c514610329575f5ffd5b806361ff10ce146102165780636352211e1461022a5780636d8a74cb1461025e57806370a082311461028d575f5ffd5b806323b872dd116100cd57806323b872dd146101ab5780632945677e146101be578063313ce567146101dd578063448a8e2b146101f7575f5ffd5b806306fdde03146100fe578063081812fc14610128578063095ea7b31461017457806318160ddd14610189575b5f5ffd5b348015610109575f5ffd5b50610112610372565b60405161011f9190610d0c565b60405180910390f35b348015610133575f5ffd5b5061015c610142366004610d25565b60086020525f90815260409020546001600160a01b031681565b6040516001600160a01b03909116815260200161011f565b610187610182366004610d57565b6103fd565b005b348015610194575f5ffd5b5061019d61052e565b60405190815260200161011f565b6101876101b9366004610d7f565b610544565b3480156101c9575f5ffd5b5060045461015c906001600160a01b031681565b3480156101e8575f5ffd5b506040515f815260200161011f565b348015610202575f5ffd5b5061019d610211366004610e0e565b61079b565b348015610221575f5ffd5b50610112610a02565b348015610235575f5ffd5b5061015c610244366004610d25565b60076020525f90815260409020546001600160a01b031681565b348015610269575f5ffd5b5061027d610278366004610d25565b610a0f565b60405161011f9493929190610e9d565b348015610298575f5ffd5b5061019d6102a7366004610edf565b60066020525f908152604090205481565b3480156102c3575f5ffd5b50610112610ba1565b3480156102d7575f5ffd5b506101876102e6366004610ef8565b610bae565b3480156102f6575f5ffd5b5060035461015c906001600160a01b031681565b348015610315575f5ffd5b50610187610324366004610edf565b610c62565b348015610334575f5ffd5b50610362610343366004610f31565b600960209081525f928352604080842090915290825290205460ff1681565b604051901515815260200161011f565b5f805461037e90610f62565b80601f01602080910402602001604051908101604052809291908181526020018280546103aa90610f62565b80156103f55780601f106103cc576101008083540402835291602001916103f5565b820191905f5260205f20905b8154815290600101906020018083116103d857829003601f168201915b505050505081565b5f8181526007602052604090205481906001600160a01b03163381148061043957505f828152600860205260409020546001600160a01b031633145b8061046657506001600160a01b0381165f90815260096020908152604080832033845290915290205460ff165b61048b5760405162461bcd60e51b815260040161048290610f9a565b60405180910390fd5b6001600160a01b0384166104d45760405162461bcd60e51b815260206004820152601060248201526f125b9d985b1a5908185c1c1c9bdd995960821b6044820152606401610482565b5f8381526008602052604080822080546001600160a01b0319166001600160a01b0388169081179091559051859233917f8c5be1e5ebec7d5bd14f71427d1e84f3dd0314c0f7b2291e5b200ac8c7c3b9259190a450505050565b6005545f9061053f90600190610ffc565b905090565b5f8181526007602052604090205481906001600160a01b03163381148061058057505f828152600860205260409020546001600160a01b031633145b806105ad57506001600160a01b0381165f90815260096020908152604080832033845290915290205460ff165b6105c95760405162461bcd60e51b815260040161048290610f9a565b6001600160a01b0385166106165760405162461bcd60e51b8152602060048201526014602482015273496e76616c696420616464726573732066726f6d60601b6044820152606401610482565b6001600160a01b0384166106615760405162461bcd60e51b8152602060048201526012602482015271496e76616c6964206164647265737320746f60701b6044820152606401610482565b5f838152600760205260409020546001600160a01b038681169116146106d95760405162461bcd60e51b815260206004820152602760248201527f416464726573732066726f6d2069736e277420616e206f776e6572206f6620746044820152666865204e46542160c81b6064820152608401610482565b6001600160a01b0385165f9081526006602052604081208054916106fd8380611015565b90915550506001600160a01b0384165f9081526006602052604081208054916107268380611015565b90915550505f83815260076020908152604080832080546001600160a01b03808a166001600160a01b031992831681179093556008909452828520805490911690559051869391928916917fddf252ad1be2c89b69c2b068fc378daa952ba7f163c4a11628f55a4df523b3ef91a45050505050565b6003545f906001600160a01b03163314806107c057506004546001600160a01b031633145b6108225760405162461bcd60e51b815260206004820152602d60248201527f4e6f7420746865206f776e6572206f72207468652061646d696e69737472617460448201526c6f72206f66206f626a6563742160981b6064820152608401610482565b5f60405180608001604052808960ff16815260200188888080601f0160208091040260200160405190810160405280939291908181526020018383808284375f92019190915250505090825250604080516020601f8901819004810282018101909252878152918101919088908890819084018382808284375f92018290525093855250505060ff86811660209384015260058054600181018255925283517f036b6384b5eca791c62761152d0c79bb0604c104a5fb6f4eb0703f3154bb3db06004909302928301805460ff1916919092161781559183015192935083927f036b6384b5eca791c62761152d0c79bb0604c104a5fb6f4eb0703f3154bb3db19091019061092f9082611088565b50604082015160028201906109449082611088565b50606091909101516003909101805460ff191660ff9092169190911790555f61096b61052e565b600380545f83815260076020908152604080832080546001600160a01b0319166001600160a01b039586161790559354909216815260069091529081208054929350906109b88380611015565b909155505060035460405182916001600160a01b0316905f907fddf252ad1be2c89b69c2b068fc378daa952ba7f163c4a11628f55a4df523b3ef908290a498975050505050505050565b6002805461037e90610f62565b5f6060805f5f60058681548110610a2857610a28611143565b5f9182526020918290206040805160808101909152600490920201805460ff1682526001810180549293919291840191610a6190610f62565b80601f0160208091040260200160405190810160405280929190818152602001828054610a8d90610f62565b8015610ad85780601f10610aaf57610100808354040283529160200191610ad8565b820191905f5260205f20905b815481529060010190602001808311610abb57829003601f168201915b50505050508152602001600282018054610af190610f62565b80601f0160208091040260200160405190810160405280929190818152602001828054610b1d90610f62565b8015610b685780601f10610b3f57610100808354040283529160200191610b68565b820191905f5260205f20905b815481529060010190602001808311610b4b57829003601f168201915b50505091835250506003919091015460ff1660209182015281519082015160408301516060909301519199909850919650945092505050565b6001805461037e90610f62565b6001600160a01b038216610bf75760405162461bcd60e51b815260206004820152601060248201526f125b9d985b1a5908185c1c1c9bdd995960821b6044820152606401610482565b335f8181526009602090815260408083206001600160a01b03871680855290835292819020805460ff191686151590811790915590519081529192917f17307eab39ab6107e8899845ad3d59bd9653f200f220920489ca2b5937696c31910160405180910390a35050565b6003546001600160a01b03163314610cbc5760405162461bcd60e51b815260206004820152601860248201527f4e6f7420746865206f776e6572206f66206f626a6563742100000000000000006044820152606401610482565b600480546001600160a01b0319166001600160a01b0392909216919091179055565b5f81518084528060208401602086015e5f602082860101526020601f19601f83011685010191505092915050565b602081525f610d1e6020830184610cde565b9392505050565b5f60208284031215610d35575f5ffd5b5035919050565b80356001600160a01b0381168114610d52575f5ffd5b919050565b5f5f60408385031215610d68575f5ffd5b610d7183610d3c565b946020939093013593505050565b5f5f5f60608486031215610d91575f5ffd5b610d9a84610d3c565b9250610da860208501610d3c565b929592945050506040919091013590565b803560ff81168114610d52575f5ffd5b5f5f83601f840112610dd9575f5ffd5b50813567ffffffffffffffff811115610df0575f5ffd5b602083019150836020828501011115610e07575f5ffd5b9250929050565b5f5f5f5f5f5f60808789031215610e23575f5ffd5b610e2c87610db9565b9550602087013567ffffffffffffffff811115610e47575f5ffd5b610e5389828a01610dc9565b909650945050604087013567ffffffffffffffff811115610e72575f5ffd5b610e7e89828a01610dc9565b9094509250610e91905060608801610db9565b90509295509295509295565b60ff85168152608060208201525f610eb86080830186610cde565b8281036040840152610eca8186610cde565b91505060ff8316606083015295945050505050565b5f60208284031215610eef575f5ffd5b610d1e82610d3c565b5f5f60408385031215610f09575f5ffd5b610f1283610d3c565b915060208301358015158114610f26575f5ffd5b809150509250929050565b5f5f60408385031215610f42575f5ffd5b610f4b83610d3c565b9150610f5960208401610d3c565b90509250929050565b600181811c90821680610f7657607f821691505b602082108103610f9457634e487b7160e01b5f52602260045260245ffd5b50919050565b6020808252602e908201527f596f75206172656e277420616e206f776e6572206f7220616e20617070726f7660408201526d6564206f6620746865204e46542160901b606082015260800190565b634e487b7160e01b5f52601160045260245ffd5b8181038181111561100f5761100f610fe8565b92915050565b8082018082111561100f5761100f610fe8565b634e487b7160e01b5f52604160045260245ffd5b601f82111561108357805f5260205f20601f840160051c810160208510156110615750805b601f840160051c820191505b81811015611080575f815560010161106d565b50505b505050565b815167ffffffffffffffff8111156110a2576110a2611028565b6110b6816110b08454610f62565b8461103c565b6020601f8211600181146110e8575f83156110d15750848201515b5f19600385901b1c1916600184901b178455611080565b5f84815260208120601f198516915b8281101561111757878501518255602094850194600190920191016110f7565b508482101561113457868401515f19600387901b60f8161c191681555b50505050600190811b01905550565b634e487b7160e01b5f52603260045260245ffdfea2646970667358221220b97e7957aa1bd0243596ac24bf7812756d55cae5adee138c4d5eb63fd99901bf64736f6c634300081e0033",
			"opcodes": "PUSH1 0x80 PUSH1 0x40 MSTORE CALLVALUE DUP1 ISZERO PUSH2 0xF JUMPI PUSH0 PUSH0 REVERT JUMPDEST POP PUSH1 0x40 MLOAD PUSH2 0x15B9 CODESIZE SUB DUP1 PUSH2 0x15B9 DUP4 CODECOPY DUP2 ADD PUSH1 0x40 DUP2 SWAP1 MSTORE PUSH2 0x2E SWAP2 PUSH2 0x252 JUMP JUMPDEST PUSH0 PUSH2 0x39 DUP5 DUP3 PUSH2 0x365 JUMP JUMPDEST POP PUSH1 0x1 PUSH2 0x46 DUP4 DUP3 PUSH2 0x365 JUMP JUMPDEST POP PUSH1 0x2 PUSH2 0x53 DUP3 DUP3 PUSH2 0x365 JUMP JUMPDEST POP PUSH1 0x3 DUP1 SLOAD CALLER PUSH1 0x1 PUSH1 0x1 PUSH1 0xA0 SHL SUB NOT SWAP2 DUP3 AND DUP2 OR SWAP1 SWAP3 SSTORE PUSH1 0x4 DUP1 SLOAD SWAP1 SWAP2 AND SWAP1 SWAP2 OR DUP2 SSTORE PUSH1 0x40 DUP1 MLOAD PUSH1 0x80 DUP2 ADD DUP3 MSTORE PUSH0 DUP1 DUP3 MSTORE DUP3 MLOAD DUP1 DUP5 ADD DUP5 MSTORE PUSH1 0x13 DUP2 MSTORE PUSH32 0x526F6F6D206F6620526571756972656D656E7400000000000000000000000000 PUSH1 0x20 DUP1 DUP4 ADD SWAP2 SWAP1 SWAP2 MSTORE DUP1 DUP5 ADD SWAP2 DUP3 MSTORE DUP5 MLOAD DUP1 DUP7 ADD DUP7 MSTORE PUSH1 0x15 DUP2 MSTORE PUSH32 0x4F70656E206F6E6C79207768656E206E65656465640000000000000000000000 SWAP2 DUP2 ADD SWAP2 SWAP1 SWAP2 MSTORE SWAP4 DUP4 ADD SWAP4 SWAP1 SWAP4 MSTORE PUSH1 0x60 DUP3 ADD DUP2 SWAP1 MSTORE PUSH1 0x5 DUP1 SLOAD PUSH1 0x1 DUP2 ADD DUP3 SSTORE SWAP2 MSTORE DUP2 MLOAD PUSH32 0x36B6384B5ECA791C62761152D0C79BB0604C104A5FB6F4EB0703F3154BB3DB0 SWAP2 SWAP1 SWAP5 MUL SWAP1 DUP2 ADD DUP1 SLOAD PUSH1 0xFF NOT AND PUSH1 0xFF SWAP1 SWAP6 AND SWAP5 SWAP1 SWAP5 OR DUP5 SSTORE SWAP2 MLOAD SWAP1 SWAP3 SWAP2 PUSH32 0x36B6384B5ECA791C62761152D0C79BB0604C104A5FB6F4EB0703F3154BB3DB1 ADD SWAP1 PUSH2 0x179 SWAP1 DUP3 PUSH2 0x365 JUMP JUMPDEST POP PUSH1 0x40 DUP3 ADD MLOAD PUSH1 0x2 DUP3 ADD SWAP1 PUSH2 0x18E SWAP1 DUP3 PUSH2 0x365 JUMP JUMPDEST POP PUSH1 0x60 SWAP2 SWAP1 SWAP2 ADD MLOAD PUSH1 0x3 SWAP1 SWAP2 ADD DUP1 SLOAD PUSH1 0xFF NOT AND PUSH1 0xFF SWAP1 SWAP3 AND SWAP2 SWAP1 SWAP2 OR SWAP1 SSTORE POP PUSH2 0x41F SWAP2 POP POP JUMP JUMPDEST PUSH4 0x4E487B71 PUSH1 0xE0 SHL PUSH0 MSTORE PUSH1 0x41 PUSH1 0x4 MSTORE PUSH1 0x24 PUSH0 REVERT JUMPDEST PUSH0 DUP3 PUSH1 0x1F DUP4 ADD SLT PUSH2 0x1D8 JUMPI PUSH0 PUSH0 REVERT JUMPDEST DUP2 MLOAD PUSH1 0x1 PUSH1 0x1 PUSH1 0x40 SHL SUB DUP2 GT ISZERO PUSH2 0x1F1 JUMPI PUSH2 0x1F1 PUSH2 0x1B5 JUMP JUMPDEST PUSH1 0x40 MLOAD PUSH1 0x1F DUP3 ADD PUSH1 0x1F NOT SWAP1 DUP2 AND PUSH1 0x3F ADD AND DUP2 ADD PUSH1 0x1 PUSH1 0x1 PUSH1 0x40 SHL SUB DUP2 GT DUP3 DUP3 LT OR ISZERO PUSH2 0x21F JUMPI PUSH2 0x21F PUSH2 0x1B5 JUMP JUMPDEST PUSH1 0x40 MSTORE DUP2 DUP2 MSTORE DUP4 DUP3 ADD PUSH1 0x20 ADD DUP6 LT ISZERO PUSH2 0x236 JUMPI PUSH0 PUSH0 REVERT JUMPDEST DUP2 PUSH1 0x20 DUP6 ADD PUSH1 0x20 DUP4 ADD MCOPY PUSH0 SWAP2 DUP2 ADD PUSH1 0x20 ADD SWAP2 SWAP1 SWAP2 MSTORE SWAP4 SWAP3 POP POP POP JUMP JUMPDEST PUSH0 PUSH0 PUSH0 PUSH1 0x60 DUP5 DUP7 SUB SLT ISZERO PUSH2 0x264 JUMPI PUSH0 PUSH0 REVERT JUMPDEST DUP4 MLOAD PUSH1 0x1 PUSH1 0x1 PUSH1 0x40 SHL SUB DUP2 GT ISZERO PUSH2 0x279 JUMPI PUSH0 PUSH0 REVERT JUMPDEST PUSH2 0x285 DUP7 DUP3 DUP8 ADD PUSH2 0x1C9 JUMP JUMPDEST PUSH1 0x20 DUP7 ADD MLOAD SWAP1 SWAP5 POP SWAP1 POP PUSH1 0x1 PUSH1 0x1 PUSH1 0x40 SHL SUB DUP2 GT ISZERO PUSH2 0x2A2 JUMPI PUSH0 PUSH0 REVERT JUMPDEST PUSH2 0x2AE DUP7 DUP3 DUP8 ADD PUSH2 0x1C9 JUMP JUMPDEST PUSH1 0x40 DUP7 ADD MLOAD SWAP1 SWAP4 POP SWAP1 POP PUSH1 0x1 PUSH1 0x1 PUSH1 0x40 SHL SUB DUP2 GT ISZERO PUSH2 0x2CB JUMPI PUSH0 PUSH0 REVERT JUMPDEST PUSH2 0x2D7 DUP7 DUP3 DUP8 ADD PUSH2 0x1C9 JUMP JUMPDEST SWAP2 POP POP SWAP3 POP SWAP3 POP SWAP3 JUMP JUMPDEST PUSH1 0x1 DUP2 DUP2 SHR SWAP1 DUP3 AND DUP1 PUSH2 0x2F5 JUMPI PUSH1 0x7F DUP3 AND SWAP2 POP JUMPDEST PUSH1 0x20 DUP3 LT DUP2 SUB PUSH2 0x313 JUMPI PUSH4 0x4E487B71 PUSH1 0xE0 SHL PUSH0 MSTORE PUSH1 0x22 PUSH1 0x4 MSTORE PUSH1 0x24 PUSH0 REVERT JUMPDEST POP SWAP2 SWAP1 POP JUMP JUMPDEST PUSH1 0x1F DUP3 GT ISZERO PUSH2 0x360 JUMPI DUP1 PUSH0 MSTORE PUSH1 0x20 PUSH0 KECCAK256 PUSH1 0x1F DUP5 ADD PUSH1 0x5 SHR DUP2 ADD PUSH1 0x20 DUP6 LT ISZERO PUSH2 0x33E JUMPI POP DUP1 JUMPDEST PUSH1 0x1F DUP5 ADD PUSH1 0x5 SHR DUP3 ADD SWAP2 POP JUMPDEST DUP2 DUP2 LT ISZERO PUSH2 0x35D JUMPI PUSH0 DUP2 SSTORE PUSH1 0x1 ADD PUSH2 0x34A JUMP JUMPDEST POP POP JUMPDEST POP POP POP JUMP JUMPDEST DUP2 MLOAD PUSH1 0x1 PUSH1 0x1 PUSH1 0x40 SHL SUB DUP2 GT ISZERO PUSH2 0x37E JUMPI PUSH2 0x37E PUSH2 0x1B5 JUMP JUMPDEST PUSH2 0x392 DUP2 PUSH2 0x38C DUP5 SLOAD PUSH2 0x2E1 JUMP JUMPDEST DUP5 PUSH2 0x319 JUMP JUMPDEST PUSH1 0x20 PUSH1 0x1F DUP3 GT PUSH1 0x1 DUP2 EQ PUSH2 0x3C4 JUMPI PUSH0 DUP4 ISZERO PUSH2 0x3AD JUMPI POP DUP5 DUP3 ADD MLOAD JUMPDEST PUSH0 NOT PUSH1 0x3 DUP6 SWAP1 SHL SHR NOT AND PUSH1 0x1 DUP5 SWAP1 SHL OR DUP5 SSTORE PUSH2 0x35D JUMP JUMPDEST PUSH0 DUP5 DUP2 MSTORE PUSH1 0x20 DUP2 KECCAK256 PUSH1 0x1F NOT DUP6 AND SWAP2 JUMPDEST DUP3 DUP2 LT ISZERO PUSH2 0x3F3 JUMPI DUP8 DUP6 ADD MLOAD DUP3 SSTORE PUSH1 0x20 SWAP5 DUP6 ADD SWAP5 PUSH1 0x1 SWAP1 SWAP3 ADD SWAP2 ADD PUSH2 0x3D3 JUMP JUMPDEST POP DUP5 DUP3 LT ISZERO PUSH2 0x410 JUMPI DUP7 DUP5 ADD MLOAD PUSH0 NOT PUSH1 0x3 DUP8 SWAP1 SHL PUSH1 0xF8 AND SHR NOT AND DUP2 SSTORE JUMPDEST POP POP POP POP PUSH1 0x1 SWAP1 DUP2 SHL ADD SWAP1 SSTORE POP JUMP JUMPDEST PUSH2 0x118D DUP1 PUSH2 0x42C PUSH0 CODECOPY PUSH0 RETURN INVALID PUSH1 0x80 PUSH1 0x40 MSTORE PUSH1 0x4 CALLDATASIZE LT PUSH2 0xFA JUMPI PUSH0 CALLDATALOAD PUSH1 0xE0 SHR DUP1 PUSH4 0x61FF10CE GT PUSH2 0x92 JUMPI DUP1 PUSH4 0x95D89B41 GT PUSH2 0x62 JUMPI DUP1 PUSH4 0x95D89B41 EQ PUSH2 0x2B8 JUMPI DUP1 PUSH4 0xA22CB465 EQ PUSH2 0x2CC JUMPI DUP1 PUSH4 0xDD726DE1 EQ PUSH2 0x2EB JUMPI DUP1 PUSH4 0xDF8089EF EQ PUSH2 0x30A JUMPI DUP1 PUSH4 0xE985E9C5 EQ PUSH2 0x329 JUMPI PUSH0 PUSH0 REVERT JUMPDEST DUP1 PUSH4 0x61FF10CE EQ PUSH2 0x216 JUMPI DUP1 PUSH4 0x6352211E EQ PUSH2 0x22A JUMPI DUP1 PUSH4 0x6D8A74CB EQ PUSH2 0x25E JUMPI DUP1 PUSH4 0x70A08231 EQ PUSH2 0x28D JUMPI PUSH0 PUSH0 REVERT JUMPDEST DUP1 PUSH4 0x23B872DD GT PUSH2 0xCD JUMPI DUP1 PUSH4 0x23B872DD EQ PUSH2 0x1AB JUMPI DUP1 PUSH4 0x2945677E EQ PUSH2 0x1BE JUMPI DUP1 PUSH4 0x313CE567 EQ PUSH2 0x1DD JUMPI DUP1 PUSH4 0x448A8E2B EQ PUSH2 0x1F7 JUMPI PUSH0 PUSH0 REVERT JUMPDEST DUP1 PUSH4 0x6FDDE03 EQ PUSH2 0xFE JUMPI DUP1 PUSH4 0x81812FC EQ PUSH2 0x128 JUMPI DUP1 PUSH4 0x95EA7B3 EQ PUSH2 0x174 JUMPI DUP1 PUSH4 0x18160DDD EQ PUSH2 0x189 JUMPI JUMPDEST PUSH0 PUSH0 REVERT JUMPDEST CALLVALUE DUP1 ISZERO PUSH2 0x109 JUMPI PUSH0 PUSH0 REVERT JUMPDEST POP PUSH2 0x112 PUSH2 0x372 JUMP JUMPDEST PUSH1 0x40 MLOAD PUSH2 0x11F SWAP2 SWAP1 PUSH2 0xD0C JUMP JUMPDEST PUSH1 0x40 MLOAD DUP1 SWAP2 SUB SWAP1 RETURN JUMPDEST CALLVALUE DUP1 ISZERO PUSH2 0x133 JUMPI PUSH0 PUSH0 REVERT JUMPDEST POP PUSH2 0x15C PUSH2 0x142 CALLDATASIZE PUSH1 0x4 PUSH2 0xD25 JUMP JUMPDEST PUSH1 0x8 PUSH1 0x20 MSTORE PUSH0 SWAP1 DUP2 MSTORE PUSH1 0x40 SWAP1 KECCAK256 SLOAD PUSH1 0x1 PUSH1 0x1 PUSH1 0xA0 SHL SUB AND DUP2 JUMP JUMPDEST PUSH1 0x40 MLOAD PUSH1 0x1 PUSH1 0x1 PUSH1 0xA0 SHL SUB SWAP1 SWAP2 AND DUP2 MSTORE PUSH1 0x20 ADD PUSH2 0x11F JUMP JUMPDEST PUSH2 0x187 PUSH2 0x182 CALLDATASIZE PUSH1 0x4 PUSH2 0xD57 JUMP JUMPDEST PUSH2 0x3FD JUMP JUMPDEST STOP JUMPDEST CALLVALUE DUP1 ISZERO PUSH2 0x194 JUMPI PUSH0 PUSH0 REVERT JUMPDEST POP PUSH2 0x19D PUSH2 0x52E JUMP JUMPDEST PUSH1 0x40 MLOAD SWAP1 DUP2 MSTORE PUSH1 0x20 ADD PUSH2 0x11F JUMP JUMPDEST PUSH2 0x187 PUSH2 0x1B9 CALLDATASIZE PUSH1 0x4 PUSH2 0xD7F JUMP JUMPDEST PUSH2 0x544 JUMP JUMPDEST CALLVALUE DUP1 ISZERO PUSH2 0x1C9 JUMPI PUSH0 PUSH0 REVERT JUMPDEST POP PUSH1 0x4 SLOAD PUSH2 0x15C SWAP1 PUSH1 0x1 PUSH1 0x1 PUSH1 0xA0 SHL SUB AND DUP2 JUMP JUMPDEST CALLVALUE DUP1 ISZERO PUSH2 0x1E8 JUMPI PUSH0 PUSH0 REVERT JUMPDEST POP PUSH1 0x40 MLOAD PUSH0 DUP2 MSTORE PUSH1 0x20 ADD PUSH2 0x11F JUMP JUMPDEST CALLVALUE DUP1 ISZERO PUSH2 0x202 JUMPI PUSH0 PUSH0 REVERT JUMPDEST POP PUSH2 0x19D PUSH2 0x211 CALLDATASIZE PUSH1 0x4 PUSH2 0xE0E JUMP JUMPDEST PUSH2 0x79B JUMP JUMPDEST CALLVALUE DUP1 ISZERO PUSH2 0x221 JUMPI PUSH0 PUSH0 REVERT JUMPDEST POP PUSH2 0x112 PUSH2 0xA02 JUMP JUMPDEST CALLVALUE DUP1 ISZERO PUSH2 0x235 JUMPI PUSH0 PUSH0 REVERT JUMPDEST POP PUSH2 0x15C PUSH2 0x244 CALLDATASIZE PUSH1 0x4 PUSH2 0xD25 JUMP JUMPDEST PUSH1 0x7 PUSH1 0x20 MSTORE PUSH0 SWAP1 DUP2 MSTORE PUSH1 0x40 SWAP1 KECCAK256 SLOAD PUSH1 0x1 PUSH1 0x1 PUSH1 0xA0 SHL SUB AND DUP2 JUMP JUMPDEST CALLVALUE DUP1 ISZERO PUSH2 0x269 JUMPI PUSH0 PUSH0 REVERT JUMPDEST POP PUSH2 0x27D PUSH2 0x278 CALLDATASIZE PUSH1 0x4 PUSH2 0xD25 JUMP JUMPDEST PUSH2 0xA0F JUMP JUMPDEST PUSH1 0x40 MLOAD PUSH2 0x11F SWAP5 SWAP4 SWAP3 SWAP2 SWAP1 PUSH2 0xE9D JUMP JUMPDEST CALLVALUE DUP1 ISZERO PUSH2 0x298 JUMPI PUSH0 PUSH0 REVERT JUMPDEST POP PUSH2 0x19D PUSH2 0x2A7 CALLDATASIZE PUSH1 0x4 PUSH2 0xEDF JUMP JUMPDEST PUSH1 0x6 PUSH1 0x20 MSTORE PUSH0 SWAP1 DUP2 MSTORE PUSH1 0x40 SWAP1 KECCAK256 SLOAD DUP2 JUMP JUMPDEST CALLVALUE DUP1 ISZERO PUSH2 0x2C3 JUMPI PUSH0 PUSH0 REVERT JUMPDEST POP PUSH2 0x112 PUSH2 0xBA1 JUMP JUMPDEST CALLVALUE DUP1 ISZERO PUSH2 0x2D7 JUMPI PUSH0 PUSH0 REVERT JUMPDEST POP PUSH2 0x187 PUSH2 0x2E6 CALLDATASIZE PUSH1 0x4 PUSH2 0xEF8 JUMP JUMPDEST PUSH2 0xBAE JUMP JUMPDEST CALLVALUE DUP1 ISZERO PUSH2 0x2F6 JUMPI PUSH0 PUSH0 REVERT JUMPDEST POP PUSH1 0x3 SLOAD PUSH2 0x15C SWAP1 PUSH1 0x1 PUSH1 0x1 PUSH1 0xA0 SHL SUB AND DUP2 JUMP JUMPDEST CALLVALUE DUP1 ISZERO PUSH2 0x315 JUMPI PUSH0 PUSH0 REVERT JUMPDEST POP PUSH2 0x187 PUSH2 0x324 CALLDATASIZE PUSH1 0x4 PUSH2 0xEDF JUMP JUMPDEST PUSH2 0xC62 JUMP JUMPDEST CALLVALUE DUP1 ISZERO PUSH2 0x334 JUMPI PUSH0 PUSH0 REVERT JUMPDEST POP PUSH2 0x362 PUSH2 0x343 CALLDATASIZE PUSH1 0x4 PUSH2 0xF31 JUMP JUMPDEST PUSH1 0x9 PUSH1 0x20 SWAP1 DUP2 MSTORE PUSH0 SWAP3 DUP4 MSTORE PUSH1 0x40 DUP1 DUP5 KECCAK256 SWAP1 SWAP2 MSTORE SWAP1 DUP3 MSTORE SWAP1 KECCAK256 SLOAD PUSH1 0xFF AND DUP2 JUMP JUMPDEST PUSH1 0x40 MLOAD SWAP1 ISZERO ISZERO DUP2 MSTORE PUSH1 0x20 ADD PUSH2 0x11F JUMP JUMPDEST PUSH0 DUP1 SLOAD PUSH2 0x37E SWAP1 PUSH2 0xF62 JUMP JUMPDEST DUP1 PUSH1 0x1F ADD PUSH1 0x20 DUP1 SWAP2 DIV MUL PUSH1 0x20 ADD PUSH1 0x40 MLOAD SWAP1 DUP2 ADD PUSH1 0x40 MSTORE DUP1 SWAP3 SWAP2 SWAP1 DUP2 DUP2 MSTORE PUSH1 0x20 ADD DUP3 DUP1 SLOAD PUSH2 0x3AA SWAP1 PUSH2 0xF62 JUMP JUMPDEST DUP1 ISZERO PUSH2 0x3F5 JUMPI DUP1 PUSH1 0x1F LT PUSH2 0x3CC JUMPI PUSH2 0x100 DUP1 DUP4 SLOAD DIV MUL DUP4 MSTORE SWAP2 PUSH1 0x20 ADD SWAP2 PUSH2 0x3F5 JUMP JUMPDEST DUP3 ADD SWAP2 SWAP1 PUSH0 MSTORE PUSH1 0x20 PUSH0 KECCAK256 SWAP1 JUMPDEST DUP2 SLOAD DUP2 MSTORE SWAP1 PUSH1 0x1 ADD SWAP1 PUSH1 0x20 ADD DUP1 DUP4 GT PUSH2 0x3D8 JUMPI DUP3 SWAP1 SUB PUSH1 0x1F AND DUP3 ADD SWAP2 JUMPDEST POP POP POP POP POP DUP2 JUMP JUMPDEST PUSH0 DUP2 DUP2 MSTORE PUSH1 0x7 PUSH1 0x20 MSTORE PUSH1 0x40 SWAP1 KECCAK256 SLOAD DUP2 SWAP1 PUSH1 0x1 PUSH1 0x1 PUSH1 0xA0 SHL SUB AND CALLER DUP2 EQ DUP1 PUSH2 0x439 JUMPI POP PUSH0 DUP3 DUP2 MSTORE PUSH1 0x8 PUSH1 0x20 MSTORE PUSH1 0x40 SWAP1 KECCAK256 SLOAD PUSH1 0x1 PUSH1 0x1 PUSH1 0xA0 SHL SUB AND CALLER EQ JUMPDEST DUP1 PUSH2 0x466 JUMPI POP PUSH1 0x1 PUSH1 0x1 PUSH1 0xA0 SHL SUB DUP2 AND PUSH0 SWAP1 DUP2 MSTORE PUSH1 0x9 PUSH1 0x20 SWAP1 DUP2 MSTORE PUSH1 0x40 DUP1 DUP4 KECCAK256 CALLER DUP5 MSTORE SWAP1 SWAP2 MSTORE SWAP1 KECCAK256 SLOAD PUSH1 0xFF AND JUMPDEST PUSH2 0x48B JUMPI PUSH1 0x40 MLOAD PUSH3 0x461BCD PUSH1 0xE5 SHL DUP2 MSTORE PUSH1 0x4 ADD PUSH2 0x482 SWAP1 PUSH2 0xF9A JUMP JUMPDEST PUSH1 0x40 MLOAD DUP1 SWAP2 SUB SWAP1 REVERT JUMPDEST PUSH1 0x1 PUSH1 0x1 PUSH1 0xA0 SHL SUB DUP5 AND PUSH2 0x4D4 JUMPI PUSH1 0x40 MLOAD PUSH3 0x461BCD PUSH1 0xE5 SHL DUP2 MSTORE PUSH1 0x20 PUSH1 0x4 DUP3 ADD MSTORE PUSH1 0x10 PUSH1 0x24 DUP3 ADD MSTORE PUSH16 0x125B9D985B1A5908185C1C1C9BDD9959 PUSH1 0x82 SHL PUSH1 0x44 DUP3 ADD MSTORE PUSH1 0x64 ADD PUSH2 0x482 JUMP JUMPDEST PUSH0 DUP4 DUP2 MSTORE PUSH1 0x8 PUSH1 0x20 MSTORE PUSH1 0x40 DUP1 DUP3 KECCAK256 DUP1 SLOAD PUSH1 0x1 PUSH1 0x1 PUSH1 0xA0 SHL SUB NOT AND PUSH1 0x1 PUSH1 0x1 PUSH1 0xA0 SHL SUB DUP9 AND SWAP1 DUP2 OR SWAP1 SWAP2 SSTORE SWAP1 MLOAD DUP6 SWAP3 CALLER SWAP2 PUSH32 0x8C5BE1E5EBEC7D5BD14F71427D1E84F3DD0314C0F7B2291E5B200AC8C7C3B925 SWAP2 SWAP1 LOG4 POP POP POP POP JUMP JUMPDEST PUSH1 0x5 SLOAD PUSH0 SWAP1 PUSH2 0x53F SWAP1 PUSH1 0x1 SWAP1 PUSH2 0xFFC JUMP JUMPDEST SWAP1 POP SWAP1 JUMP JUMPDEST PUSH0 DUP2 DUP2 MSTORE PUSH1 0x7 PUSH1 0x20 MSTORE PUSH1 0x40 SWAP1 KECCAK256 SLOAD DUP2 SWAP1 PUSH1 0x1 PUSH1 0x1 PUSH1 0xA0 SHL SUB AND CALLER DUP2 EQ DUP1 PUSH2 0x580 JUMPI POP PUSH0 DUP3 DUP2 MSTORE PUSH1 0x8 PUSH1 0x20 MSTORE PUSH1 0x40 SWAP1 KECCAK256 SLOAD PUSH1 0x1 PUSH1 0x1 PUSH1 0xA0 SHL SUB AND CALLER EQ JUMPDEST DUP1 PUSH2 0x5AD JUMPI POP PUSH1 0x1 PUSH1 0x1 PUSH1 0xA0 SHL SUB DUP2 AND PUSH0 SWAP1 DUP2 MSTORE PUSH1 0x9 PUSH1 0x20 SWAP1 DUP2 MSTORE PUSH1 0x40 DUP1 DUP4 KECCAK256 CALLER DUP5 MSTORE SWAP1 SWAP2 MSTORE SWAP1 KECCAK256 SLOAD PUSH1 0xFF AND JUMPDEST PUSH2 0x5C9 JUMPI PUSH1 0x40 MLOAD PUSH3 0x461BCD PUSH1 0xE5 SHL DUP2 MSTORE PUSH1 0x4 ADD PUSH2 0x482 SWAP1 PUSH2 0xF9A JUMP JUMPDEST PUSH1 0x1 PUSH1 0x1 PUSH1 0xA0 SHL SUB DUP6 AND PUSH2 0x616 JUMPI PUSH1 0x40 MLOAD PUSH3 0x461BCD PUSH1 0xE5 SHL DUP2 MSTORE PUSH1 0x20 PUSH1 0x4 DUP3 ADD MSTORE PUSH1 0x14 PUSH1 0x24 DUP3 ADD MSTORE PUSH20 0x496E76616C696420616464726573732066726F6D PUSH1 0x60 SHL PUSH1 0x44 DUP3 ADD MSTORE PUSH1 0x64 ADD PUSH2 0x482 JUMP JUMPDEST PUSH1 0x1 PUSH1 0x1 PUSH1 0xA0 SHL SUB DUP5 AND PUSH2 0x661 JUMPI PUSH1 0x40 MLOAD PUSH3 0x461BCD PUSH1 0xE5 SHL DUP2 MSTORE PUSH1 0x20 PUSH1 0x4 DUP3 ADD MSTORE PUSH1 0x12 PUSH1 0x24 DUP3 ADD MSTORE PUSH18 0x496E76616C6964206164647265737320746F PUSH1 0x70 SHL PUSH1 0x44 DUP3 ADD MSTORE PUSH1 0x64 ADD PUSH2 0x482 JUMP JUMPDEST PUSH0 DUP4 DUP2 MSTORE PUSH1 0x7 PUSH1 0x20 MSTORE PUSH1 0x40 SWAP1 KECCAK256 SLOAD PUSH1 0x1 PUSH1 0x1 PUSH1 0xA0 SHL SUB DUP7 DUP2 AND SWAP2 AND EQ PUSH2 0x6D9 JUMPI PUSH1 0x40 MLOAD PUSH3 0x461BCD PUSH1 0xE5 SHL DUP2 MSTORE PUSH1 0x20 PUSH1 0x4 DUP3 ADD MSTORE PUSH1 0x27 PUSH1 0x24 DUP3 ADD MSTORE PUSH32 0x416464726573732066726F6D2069736E277420616E206F776E6572206F662074 PUSH1 0x44 DUP3 ADD MSTORE PUSH7 0x6865204E465421 PUSH1 0xC8 SHL PUSH1 0x64 DUP3 ADD MSTORE PUSH1 0x84 ADD PUSH2 0x482 JUMP JUMPDEST PUSH1 0x1 PUSH1 0x1 PUSH1 0xA0 SHL SUB DUP6 AND PUSH0 SWAP1 DUP2 MSTORE PUSH1 0x6 PUSH1 0x20 MSTORE PUSH1 0x40 DUP2 KECCAK256 DUP1 SLOAD SWAP2 PUSH2 0x6FD DUP4 DUP1 PUSH2 0x1015 JUMP JUMPDEST SWAP1 SWAP2 SSTORE POP POP PUSH1 0x1 PUSH1 0x1 PUSH1 0xA0 SHL SUB DUP5 AND PUSH0 SWAP1 DUP2 MSTORE PUSH1 0x6 PUSH1 0x20 MSTORE PUSH1 0x40 DUP2 KECCAK256 DUP1 SLOAD SWAP2 PUSH2 0x726 DUP4 DUP1 PUSH2 0x1015 JUMP JUMPDEST SWAP1 SWAP2 SSTORE POP POP PUSH0 DUP4 DUP2 MSTORE PUSH1 0x7 PUSH1 0x20 SWAP1 DUP2 MSTORE PUSH1 0x40 DUP1 DUP4 KECCAK256 DUP1 SLOAD PUSH1 0x1 PUSH1 0x1 PUSH1 0xA0 SHL SUB DUP1 DUP11 AND PUSH1 0x1 PUSH1 0x1 PUSH1 0xA0 SHL SUB NOT SWAP3 DUP4 AND DUP2 OR SWAP1 SWAP4 SSTORE PUSH1 0x8 SWAP1 SWAP5 MSTORE DUP3 DUP6 KECCAK256 DUP1 SLOAD SWAP1 SWAP2 AND SWAP1 SSTORE SWAP1 MLOAD DUP7 SWAP4 SWAP2 SWAP3 DUP10 AND SWAP2 PUSH32 0xDDF252AD1BE2C89B69C2B068FC378DAA952BA7F163C4A11628F55A4DF523B3EF SWAP2 LOG4 POP POP POP POP POP JUMP JUMPDEST PUSH1 0x3 SLOAD PUSH0 SWAP1 PUSH1 0x1 PUSH1 0x1 PUSH1 0xA0 SHL SUB AND CALLER EQ DUP1 PUSH2 0x7C0 JUMPI POP PUSH1 0x4 SLOAD PUSH1 0x1 PUSH1 0x1 PUSH1 0xA0 SHL SUB AND CALLER EQ JUMPDEST PUSH2 0x822 JUMPI PUSH1 0x40 MLOAD PUSH3 0x461BCD PUSH1 0xE5 SHL DUP2 MSTORE PUSH1 0x20 PUSH1 0x4 DUP3 ADD MSTORE PUSH1 0x2D PUSH1 0x24 DUP3 ADD MSTORE PUSH32 0x4E6F7420746865206F776E6572206F72207468652061646D696E697374726174 PUSH1 0x44 DUP3 ADD MSTORE PUSH13 0x6F72206F66206F626A65637421 PUSH1 0x98 SHL PUSH1 0x64 DUP3 ADD MSTORE PUSH1 0x84 ADD PUSH2 0x482 JUMP JUMPDEST PUSH0 PUSH1 0x40 MLOAD DUP1 PUSH1 0x80 ADD PUSH1 0x40 MSTORE DUP1 DUP10 PUSH1 0xFF AND DUP2 MSTORE PUSH1 0x20 ADD DUP9 DUP9 DUP1 DUP1 PUSH1 0x1F ADD PUSH1 0x20 DUP1 SWAP2 DIV MUL PUSH1 0x20 ADD PUSH1 0x40 MLOAD SWAP1 DUP2 ADD PUSH1 0x40 MSTORE DUP1 SWAP4 SWAP3 SWAP2 SWAP1 DUP2 DUP2 MSTORE PUSH1 0x20 ADD DUP4 DUP4 DUP1 DUP3 DUP5 CALLDATACOPY PUSH0 SWAP3 ADD SWAP2 SWAP1 SWAP2 MSTORE POP POP POP SWAP1 DUP3 MSTORE POP PUSH1 0x40 DUP1 MLOAD PUSH1 0x20 PUSH1 0x1F DUP10 ADD DUP2 SWAP1 DIV DUP2 MUL DUP3 ADD DUP2 ADD SWAP1 SWAP3 MSTORE DUP8 DUP2 MSTORE SWAP2 DUP2 ADD SWAP2 SWAP1 DUP9 SWAP1 DUP9 SWAP1 DUP2 SWAP1 DUP5 ADD DUP4 DUP3 DUP1 DUP3 DUP5 CALLDATACOPY PUSH0 SWAP3 ADD DUP3 SWAP1 MSTORE POP SWAP4 DUP6 MSTORE POP POP POP PUSH1 0xFF DUP7 DUP2 AND PUSH1 0x20 SWAP4 DUP5 ADD MSTORE PUSH1 0x5 DUP1 SLOAD PUSH1 0x1 DUP2 ADD DUP3 SSTORE SWAP3 MSTORE DUP4 MLOAD PUSH32 0x36B6384B5ECA791C62761152D0C79BB0604C104A5FB6F4EB0703F3154BB3DB0 PUSH1 0x4 SWAP1 SWAP4 MUL SWAP3 DUP4 ADD DUP1 SLOAD PUSH1 0xFF NOT AND SWAP2 SWAP1 SWAP3 AND OR DUP2 SSTORE SWAP2 DUP4 ADD MLOAD SWAP3 SWAP4 POP DUP4 SWAP3 PUSH32 0x36B6384B5ECA791C62761152D0C79BB0604C104A5FB6F4EB0703F3154BB3DB1 SWAP1 SWAP2 ADD SWAP1 PUSH2 0x92F SWAP1 DUP3 PUSH2 0x1088 JUMP JUMPDEST POP PUSH1 0x40 DUP3 ADD MLOAD PUSH1 0x2 DUP3 ADD SWAP1 PUSH2 0x944 SWAP1 DUP3 PUSH2 0x1088 JUMP JUMPDEST POP PUSH1 0x60 SWAP2 SWAP1 SWAP2 ADD MLOAD PUSH1 0x3 SWAP1 SWAP2 ADD DUP1 SLOAD PUSH1 0xFF NOT AND PUSH1 0xFF SWAP1 SWAP3 AND SWAP2 SWAP1 SWAP2 OR SWAP1 SSTORE PUSH0 PUSH2 0x96B PUSH2 0x52E JUMP JUMPDEST PUSH1 0x3 DUP1 SLOAD PUSH0 DUP4 DUP2 MSTORE PUSH1 0x7 PUSH1 0x20 SWAP1 DUP2 MSTORE PUSH1 0x40 DUP1 DUP4 KECCAK256 DUP1 SLOAD PUSH1 0x1 PUSH1 0x1 PUSH1 0xA0 SHL SUB NOT AND PUSH1 0x1 PUSH1 0x1 PUSH1 0xA0 SHL SUB SWAP6 DUP7 AND OR SWAP1 SSTORE SWAP4 SLOAD SWAP1 SWAP3 AND DUP2 MSTORE PUSH1 0x6 SWAP1 SWAP2 MSTORE SWAP1 DUP2 KECCAK256 DUP1 SLOAD SWAP3 SWAP4 POP SWAP1 PUSH2 0x9B8 DUP4 DUP1 PUSH2 0x1015 JUMP JUMPDEST SWAP1 SWAP2 SSTORE POP POP PUSH1 0x3 SLOAD PUSH1 0x40 MLOAD DUP3 SWAP2 PUSH1 0x1 PUSH1 0x1 PUSH1 0xA0 SHL SUB AND SWAP1 PUSH0 SWAP1 PUSH32 0xDDF252AD1BE2C89B69C2B068FC378DAA952BA7F163C4A11628F55A4DF523B3EF SWAP1 DUP3 SWAP1 LOG4 SWAP9 SWAP8 POP POP POP POP POP POP POP POP JUMP JUMPDEST PUSH1 0x2 DUP1 SLOAD PUSH2 0x37E SWAP1 PUSH2 0xF62 JUMP JUMPDEST PUSH0 PUSH1 0x60 DUP1 PUSH0 PUSH0 PUSH1 0x5 DUP7 DUP2 SLOAD DUP2 LT PUSH2 0xA28 JUMPI PUSH2 0xA28 PUSH2 0x1143 JUMP JUMPDEST PUSH0 SWAP2 DUP3 MSTORE PUSH1 0x20 SWAP2 DUP3 SWAP1 KECCAK256 PUSH1 0x40 DUP1 MLOAD PUSH1 0x80 DUP2 ADD SWAP1 SWAP2 MSTORE PUSH1 0x4 SWAP1 SWAP3 MUL ADD DUP1 SLOAD PUSH1 0xFF AND DUP3 MSTORE PUSH1 0x1 DUP2 ADD DUP1 SLOAD SWAP3 SWAP4 SWAP2 SWAP3 SWAP2 DUP5 ADD SWAP2 PUSH2 0xA61 SWAP1 PUSH2 0xF62 JUMP JUMPDEST DUP1 PUSH1 0x1F ADD PUSH1 0x20 DUP1 SWAP2 DIV MUL PUSH1 0x20 ADD PUSH1 0x40 MLOAD SWAP1 DUP2 ADD PUSH1 0x40 MSTORE DUP1 SWAP3 SWAP2 SWAP1 DUP2 DUP2 MSTORE PUSH1 0x20 ADD DUP3 DUP1 SLOAD PUSH2 0xA8D SWAP1 PUSH2 0xF62 JUMP JUMPDEST DUP1 ISZERO PUSH2 0xAD8 JUMPI DUP1 PUSH1 0x1F LT PUSH2 0xAAF JUMPI PUSH2 0x100 DUP1 DUP4 SLOAD DIV MUL DUP4 MSTORE SWAP2 PUSH1 0x20 ADD SWAP2 PUSH2 0xAD8 JUMP JUMPDEST DUP3 ADD SWAP2 SWAP1 PUSH0 MSTORE PUSH1 0x20 PUSH0 KECCAK256 SWAP1 JUMPDEST DUP2 SLOAD DUP2 MSTORE SWAP1 PUSH1 0x1 ADD SWAP1 PUSH1 0x20 ADD DUP1 DUP4 GT PUSH2 0xABB JUMPI DUP3 SWAP1 SUB PUSH1 0x1F AND DUP3 ADD SWAP2 JUMPDEST POP POP POP POP POP DUP2 MSTORE PUSH1 0x20 ADD PUSH1 0x2 DUP3 ADD DUP1 SLOAD PUSH2 0xAF1 SWAP1 PUSH2 0xF62 JUMP JUMPDEST DUP1 PUSH1 0x1F ADD PUSH1 0x20 DUP1 SWAP2 DIV MUL PUSH1 0x20 ADD PUSH1 0x40 MLOAD SWAP1 DUP2 ADD PUSH1 0x40 MSTORE DUP1 SWAP3 SWAP2 SWAP1 DUP2 DUP2 MSTORE PUSH1 0x20 ADD DUP3 DUP1 SLOAD PUSH2 0xB1D SWAP1 PUSH2 0xF62 JUMP JUMPDEST DUP1 ISZERO PUSH2 0xB68 JUMPI DUP1 PUSH1 0x1F LT PUSH2 0xB3F JUMPI PUSH2 0x100 DUP1 DUP4 SLOAD DIV MUL DUP4 MSTORE SWAP2 PUSH1 0x20 ADD SWAP2 PUSH2 0xB68 JUMP JUMPDEST DUP3 ADD SWAP2 SWAP1 PUSH0 MSTORE PUSH1 0x20 PUSH0 KECCAK256 SWAP1 JUMPDEST DUP2 SLOAD DUP2 MSTORE SWAP1 PUSH1 0x1 ADD SWAP1 PUSH1 0x20 ADD DUP1 DUP4 GT PUSH2 0xB4B JUMPI DUP3 SWAP1 SUB PUSH1 0x1F AND DUP3 ADD SWAP2 JUMPDEST POP POP POP SWAP2 DUP4 MSTORE POP POP PUSH1 0x3 SWAP2 SWAP1 SWAP2 ADD SLOAD PUSH1 0xFF AND PUSH1 0x20 SWAP2 DUP3 ADD MSTORE DUP2 MLOAD SWAP1 DUP3 ADD MLOAD PUSH1 0x40 DUP4 ADD MLOAD PUSH1 0x60 SWAP1 SWAP4 ADD MLOAD SWAP2 SWAP10 SWAP1 SWAP9 POP SWAP2 SWAP7 POP SWAP5 POP SWAP3 POP POP POP JUMP JUMPDEST PUSH1 0x1 DUP1 SLOAD PUSH2 0x37E SWAP1 PUSH2 0xF62 JUMP JUMPDEST PUSH1 0x1 PUSH1 0x1 PUSH1 0xA0 SHL SUB DUP3 AND PUSH2 0xBF7 JUMPI PUSH1 0x40 MLOAD PUSH3 0x461BCD PUSH1 0xE5 SHL DUP2 MSTORE PUSH1 0x20 PUSH1 0x4 DUP3 ADD MSTORE PUSH1 0x10 PUSH1 0x24 DUP3 ADD MSTORE PUSH16 0x125B9D985B1A5908185C1C1C9BDD9959 PUSH1 0x82 SHL PUSH1 0x44 DUP3 ADD MSTORE PUSH1 0x64 ADD PUSH2 0x482 JUMP JUMPDEST CALLER PUSH0 DUP2 DUP2 MSTORE PUSH1 0x9 PUSH1 0x20 SWAP1 DUP2 MSTORE PUSH1 0x40 DUP1 DUP4 KECCAK256 PUSH1 0x1 PUSH1 0x1 PUSH1 0xA0 SHL SUB DUP8 AND DUP1 DUP6 MSTORE SWAP1 DUP4 MSTORE SWAP3 DUP2 SWAP1 KECCAK256 DUP1 SLOAD PUSH1 0xFF NOT AND DUP7 ISZERO ISZERO SWAP1 DUP2 OR SWAP1 SWAP2 SSTORE SWAP1 MLOAD SWAP1 DUP2 MSTORE SWAP2 SWAP3 SWAP2 PUSH32 0x17307EAB39AB6107E8899845AD3D59BD9653F200F220920489CA2B5937696C31 SWAP2 ADD PUSH1 0x40 MLOAD DUP1 SWAP2 SUB SWAP1 LOG3 POP POP JUMP JUMPDEST PUSH1 0x3 SLOAD PUSH1 0x1 PUSH1 0x1 PUSH1 0xA0 SHL SUB AND CALLER EQ PUSH2 0xCBC JUMPI PUSH1 0x40 MLOAD PUSH3 0x461BCD PUSH1 0xE5 SHL DUP2 MSTORE PUSH1 0x20 PUSH1 0x4 DUP3 ADD MSTORE PUSH1 0x18 PUSH1 0x24 DUP3 ADD MSTORE PUSH32 0x4E6F7420746865206F776E6572206F66206F626A656374210000000000000000 PUSH1 0x44 DUP3 ADD MSTORE PUSH1 0x64 ADD PUSH2 0x482 JUMP JUMPDEST PUSH1 0x4 DUP1 SLOAD PUSH1 0x1 PUSH1 0x1 PUSH1 0xA0 SHL SUB NOT AND PUSH1 0x1 PUSH1 0x1 PUSH1 0xA0 SHL SUB SWAP3 SWAP1 SWAP3 AND SWAP2 SWAP1 SWAP2 OR SWAP1 SSTORE JUMP JUMPDEST PUSH0 DUP2 MLOAD DUP1 DUP5 MSTORE DUP1 PUSH1 0x20 DUP5 ADD PUSH1 0x20 DUP7 ADD MCOPY PUSH0 PUSH1 0x20 DUP3 DUP7 ADD ADD MSTORE PUSH1 0x20 PUSH1 0x1F NOT PUSH1 0x1F DUP4 ADD AND DUP6 ADD ADD SWAP2 POP POP SWAP3 SWAP2 POP POP JUMP JUMPDEST PUSH1 0x20 DUP2 MSTORE PUSH0 PUSH2 0xD1E PUSH1 0x20 DUP4 ADD DUP5 PUSH2 0xCDE JUMP JUMPDEST SWAP4 SWAP3 POP POP POP JUMP JUMPDEST PUSH0 PUSH1 0x20 DUP3 DUP5 SUB SLT ISZERO PUSH2 0xD35 JUMPI PUSH0 PUSH0 REVERT JUMPDEST POP CALLDATALOAD SWAP2 SWAP1 POP JUMP JUMPDEST DUP1 CALLDATALOAD PUSH1 0x1 PUSH1 0x1 PUSH1 0xA0 SHL SUB DUP2 AND DUP2 EQ PUSH2 0xD52 JUMPI PUSH0 PUSH0 REVERT JUMPDEST SWAP2 SWAP1 POP JUMP JUMPDEST PUSH0 PUSH0 PUSH1 0x40 DUP4 DUP6 SUB SLT ISZERO PUSH2 0xD68 JUMPI PUSH0 PUSH0 REVERT JUMPDEST PUSH2 0xD71 DUP4 PUSH2 0xD3C JUMP JUMPDEST SWAP5 PUSH1 0x20 SWAP4 SWAP1 SWAP4 ADD CALLDATALOAD SWAP4 POP POP POP JUMP JUMPDEST PUSH0 PUSH0 PUSH0 PUSH1 0x60 DUP5 DUP7 SUB SLT ISZERO PUSH2 0xD91 JUMPI PUSH0 PUSH0 REVERT JUMPDEST PUSH2 0xD9A DUP5 PUSH2 0xD3C JUMP JUMPDEST SWAP3 POP PUSH2 0xDA8 PUSH1 0x20 DUP6 ADD PUSH2 0xD3C JUMP JUMPDEST SWAP3 SWAP6 SWAP3 SWAP5 POP POP POP PUSH1 0x40 SWAP2 SWAP1 SWAP2 ADD CALLDATALOAD SWAP1 JUMP JUMPDEST DUP1 CALLDATALOAD PUSH1 0xFF DUP2 AND DUP2 EQ PUSH2 0xD52 JUMPI PUSH0 PUSH0 REVERT JUMPDEST PUSH0 PUSH0 DUP4 PUSH1 0x1F DUP5 ADD SLT PUSH2 0xDD9 JUMPI PUSH0 PUSH0 REVERT JUMPDEST POP DUP2 CALLDATALOAD PUSH8 0xFFFFFFFFFFFFFFFF DUP2 GT ISZERO PUSH2 0xDF0 JUMPI PUSH0 PUSH0 REVERT JUMPDEST PUSH1 0x20 DUP4 ADD SWAP2 POP DUP4 PUSH1 0x20 DUP3 DUP6 ADD ADD GT ISZERO PUSH2 0xE07 JUMPI PUSH0 PUSH0 REVERT JUMPDEST SWAP3 POP SWAP3 SWAP1 POP JUMP JUMPDEST PUSH0 PUSH0 PUSH0 PUSH0 PUSH0 PUSH0 PUSH1 0x80 DUP8 DUP10 SUB SLT ISZERO PUSH2 0xE23 JUMPI PUSH0 PUSH0 REVERT JUMPDEST PUSH2 0xE2C DUP8 PUSH2 0xDB9 JUMP JUMPDEST SWAP6 POP PUSH1 0x20 DUP8 ADD CALLDATALOAD PUSH8 0xFFFFFFFFFFFFFFFF DUP2 GT ISZERO PUSH2 0xE47 JUMPI PUSH0 PUSH0 REVERT JUMPDEST PUSH2 0xE53 DUP10 DUP3 DUP11 ADD PUSH2 0xDC9 JUMP JUMPDEST SWAP1 SWAP7 POP SWAP5 POP POP PUSH1 0x40 DUP8 ADD CALLDATALOAD PUSH8 0xFFFFFFFFFFFFFFFF DUP2 GT ISZERO PUSH2 0xE72 JUMPI PUSH0 PUSH0 REVERT JUMPDEST PUSH2 0xE7E DUP10 DUP3 DUP11 ADD PUSH2 0xDC9 JUMP JUMPDEST SWAP1 SWAP5 POP SWAP3 POP PUSH2 0xE91 SWAP1 POP PUSH1 0x60 DUP9 ADD PUSH2 0xDB9 JUMP JUMPDEST SWAP1 POP SWAP3 SWAP6 POP SWAP3 SWAP6 POP SWAP3 SWAP6 JUMP JUMPDEST PUSH1 0xFF DUP6 AND DUP2 MSTORE PUSH1 0x80 PUSH1 0x20 DUP3 ADD MSTORE PUSH0 PUSH2 0xEB8 PUSH1 0x80 DUP4 ADD DUP7 PUSH2 0xCDE JUMP JUMPDEST DUP3 DUP2 SUB PUSH1 0x40 DUP5 ADD MSTORE PUSH2 0xECA DUP2 DUP7 PUSH2 0xCDE JUMP JUMPDEST SWAP2 POP POP PUSH1 0xFF DUP4 AND PUSH1 0x60 DUP4 ADD MSTORE SWAP6 SWAP5 POP POP POP POP POP JUMP JUMPDEST PUSH0 PUSH1 0x20 DUP3 DUP5 SUB SLT ISZERO PUSH2 0xEEF JUMPI PUSH0 PUSH0 REVERT JUMPDEST PUSH2 0xD1E DUP3 PUSH2 0xD3C JUMP JUMPDEST PUSH0 PUSH0 PUSH1 0x40 DUP4 DUP6 SUB SLT ISZERO PUSH2 0xF09 JUMPI PUSH0 PUSH0 REVERT JUMPDEST PUSH2 0xF12 DUP4 PUSH2 0xD3C JUMP JUMPDEST SWAP2 POP PUSH1 0x20 DUP4 ADD CALLDATALOAD DUP1 ISZERO ISZERO DUP2 EQ PUSH2 0xF26 JUMPI PUSH0 PUSH0 REVERT JUMPDEST DUP1 SWAP2 POP POP SWAP3 POP SWAP3 SWAP1 POP JUMP JUMPDEST PUSH0 PUSH0 PUSH1 0x40 DUP4 DUP6 SUB SLT ISZERO PUSH2 0xF42 JUMPI PUSH0 PUSH0 REVERT JUMPDEST PUSH2 0xF4B DUP4 PUSH2 0xD3C JUMP JUMPDEST SWAP2 POP PUSH2 0xF59 PUSH1 0x20 DUP5 ADD PUSH2 0xD3C JUMP JUMPDEST SWAP1 POP SWAP3 POP SWAP3 SWAP1 POP JUMP JUMPDEST PUSH1 0x1 DUP2 DUP2 SHR SWAP1 DUP3 AND DUP1 PUSH2 0xF76 JUMPI PUSH1 0x7F DUP3 AND SWAP2 POP JUMPDEST PUSH1 0x20 DUP3 LT DUP2 SUB PUSH2 0xF94 JUMPI PUSH4 0x4E487B71 PUSH1 0xE0 SHL PUSH0 MSTORE PUSH1 0x22 PUSH1 0x4 MSTORE PUSH1 0x24 PUSH0 REVERT JUMPDEST POP SWAP2 SWAP1 POP JUMP JUMPDEST PUSH1 0x20 DUP1 DUP3 MSTORE PUSH1 0x2E SWAP1 DUP3 ADD MSTORE PUSH32 0x596F75206172656E277420616E206F776E6572206F7220616E20617070726F76 PUSH1 0x40 DUP3 ADD MSTORE PUSH14 0x6564206F6620746865204E465421 PUSH1 0x90 SHL PUSH1 0x60 DUP3 ADD MSTORE PUSH1 0x80 ADD SWAP1 JUMP JUMPDEST PUSH4 0x4E487B71 PUSH1 0xE0 SHL PUSH0 MSTORE PUSH1 0x11 PUSH1 0x4 MSTORE PUSH1 0x24 PUSH0 REVERT JUMPDEST DUP2 DUP2 SUB DUP2 DUP2 GT ISZERO PUSH2 0x100F JUMPI PUSH2 0x100F PUSH2 0xFE8 JUMP JUMPDEST SWAP3 SWAP2 POP POP JUMP JUMPDEST DUP1 DUP3 ADD DUP1 DUP3 GT ISZERO PUSH2 0x100F JUMPI PUSH2 0x100F PUSH2 0xFE8 JUMP JUMPDEST PUSH4 0x4E487B71 PUSH1 0xE0 SHL PUSH0 MSTORE PUSH1 0x41 PUSH1 0x4 MSTORE PUSH1 0x24 PUSH0 REVERT JUMPDEST PUSH1 0x1F DUP3 GT ISZERO PUSH2 0x1083 JUMPI DUP1 PUSH0 MSTORE PUSH1 0x20 PUSH0 KECCAK256 PUSH1 0x1F DUP5 ADD PUSH1 0x5 SHR DUP2 ADD PUSH1 0x20 DUP6 LT ISZERO PUSH2 0x1061 JUMPI POP DUP1 JUMPDEST PUSH1 0x1F DUP5 ADD PUSH1 0x5 SHR DUP3 ADD SWAP2 POP JUMPDEST DUP2 DUP2 LT ISZERO PUSH2 0x1080 JUMPI PUSH0 DUP2 SSTORE PUSH1 0x1 ADD PUSH2 0x106D JUMP JUMPDEST POP POP JUMPDEST POP POP POP JUMP JUMPDEST DUP2 MLOAD PUSH8 0xFFFFFFFFFFFFFFFF DUP2 GT ISZERO PUSH2 0x10A2 JUMPI PUSH2 0x10A2 PUSH2 0x1028 JUMP JUMPDEST PUSH2 0x10B6 DUP2 PUSH2 0x10B0 DUP5 SLOAD PUSH2 0xF62 JUMP JUMPDEST DUP5 PUSH2 0x103C JUMP JUMPDEST PUSH1 0x20 PUSH1 0x1F DUP3 GT PUSH1 0x1 DUP2 EQ PUSH2 0x10E8 JUMPI PUSH0 DUP4 ISZERO PUSH2 0x10D1 JUMPI POP DUP5 DUP3 ADD MLOAD JUMPDEST PUSH0 NOT PUSH1 0x3 DUP6 SWAP1 SHL SHR NOT AND PUSH1 0x1 DUP5 SWAP1 SHL OR DUP5 SSTORE PUSH2 0x1080 JUMP JUMPDEST PUSH0 DUP5 DUP2 MSTORE PUSH1 0x20 DUP2 KECCAK256 PUSH1 0x1F NOT DUP6 AND SWAP2 JUMPDEST DUP3 DUP2 LT ISZERO PUSH2 0x1117 JUMPI DUP8 DUP6 ADD MLOAD DUP3 SSTORE PUSH1 0x20 SWAP5 DUP6 ADD SWAP5 PUSH1 0x1 SWAP1 SWAP3 ADD SWAP2 ADD PUSH2 0x10F7 JUMP JUMPDEST POP DUP5 DUP3 LT ISZERO PUSH2 0x1134 JUMPI DUP7 DUP5 ADD MLOAD PUSH0 NOT PUSH1 0x3 DUP8 SWAP1 SHL PUSH1 0xF8 AND SHR NOT AND DUP2 SSTORE JUMPDEST POP POP POP POP PUSH1 0x1 SWAP1 DUP2 SHL ADD SWAP1 SSTORE POP JUMP JUMPDEST PUSH4 0x4E487B71 PUSH1 0xE0 SHL PUSH0 MSTORE PUSH1 0x32 PUSH1 0x4 MSTORE PUSH1 0x24 PUSH0 REVERT INVALID LOG2 PUSH5 0x6970667358 0x22 SLT KECCAK256 0xB9 PUSH31 0x7957AA1BD0243596AC24BF7812756D55CAE5ADEE138C4D5EB63FD99901BF64 PUSH20 0x6F6C634300081E00330000000000000000000000 "
		},
		"gasEstimates": {
			"creation": {
				"codeDepositCost": "898600",
				"executionCost": "infinite",
				"totalCost": "infinite"
			},
			"external": {
				"addRoom(uint8,string,string,uint8)": "infinite",
				"addressOfObject()": "infinite",
				"adminObject()": "2381",
				"approve(address,uint256)": "33348",
				"balanceOf(address)": "2605",
				"decimals()": "242",
				"getApproved(uint256)": "2520",
				"getRoom(uint256)": "infinite",
				"isApprovedForAll(address,address)": "infinite",
				"name()": "infinite",
				"ownerObject()": "2402",
				"ownerOf(uint256)": "2519",
				"setAdministrator(address)": "26797",
				"setApprovalForAll(address,bool)": "26660",
				"symbol()": "infinite",
				"totalSupply()": "2484",
				"transferFrom(address,address,uint256)": "infinite"
			}
		},
		"methodIdentifiers": {
			"addRoom(uint8,string,string,uint8)": "448a8e2b",
			"addressOfObject()": "61ff10ce",
			"adminObject()": "2945677e",
			"approve(address,uint256)": "095ea7b3",
			"balanceOf(address)": "70a08231",
			"decimals()": "313ce567",
			"getApproved(uint256)": "081812fc",
			"getRoom(uint256)": "6d8a74cb",
			"isApprovedForAll(address,address)": "e985e9c5",
			"name()": "06fdde03",
			"ownerObject()": "dd726de1",
			"ownerOf(uint256)": "6352211e",
			"setAdministrator(address)": "df8089ef",
			"setApprovalForAll(address,bool)": "a22cb465",
			"symbol()": "95d89b41",
			"totalSupply()": "18160ddd",
			"transferFrom(address,address,uint256)": "23b872dd"
		}
	},
	"abi": [
		{
			"inputs": [
				{
					"internalType": "string",
					"name": "_name",
					"type": "string"
				},
				{
					"internalType": "string",
					"name": "_symbol",
					"type": "string"
				},
				{
					"internalType": "string",
					"name": "_addressOfObject",
					"type": "string"
				}
			],
			"stateMutability": "nonpayable",
			"type": "constructor"
		},
		{
			"anonymous": false,
			"inputs": [
				{
					"indexed": true,
					"internalType": "address",
					"name": "_owner",
					"type": "address"
				},
				{
					"indexed": true,
					"internalType": "address",
					"name": "_approved",
					"type": "address"
				},
				{
					"indexed": true,
					"internalType": "uint256",
					"name": "_tokenId",
					"type": "uint256"
				}
			],
			"name": "Approval",
			"type": "event"
		},
		{
			"anonymous": false,
			"inputs": [
				{
					"indexed": true,
					"internalType": "address",
					"name": "_owner",
					"type": "address"
				},
				{
					"indexed": true,
					"internalType": "address",
					"name": "_operator",
					"type": "address"
				},
				{
					"indexed": false,
					"internalType": "bool",
					"name": "_approved",
					"type": "bool"
				}
			],
			"name": "ApprovalForAll",
			"type": "event"
		},
		{
			"anonymous": false,
			"inputs": [
				{
					"indexed": true,
					"internalType": "address",
					"name": "_from",
					"type": "address"
				},
				{
					"indexed": true,
					"internalType": "address",
					"name": "_to",
					"type": "address"
				},
				{
					"indexed": true,
					"internalType": "uint256",
					"name": "_tokenId",
					"type": "uint256"
				}
			],
			"name": "Transfer",
			"type": "event"
		},
		{
			"inputs": [
				{
					"internalType": "uint8",
					"name": "_floor",
					"type": "uint8"
				},
				{
					"internalType": "string",
					"name": "_nameRoom",
					"type": "string"
				},
				{
					"internalType": "string",
					"name": "_descriptionRoom",
					"type": "string"
				},
				{
					"internalType": "uint8",
					"name": "_square",
					"type": "uint8"
				}
			],
			"name": "addRoom",
			"outputs": [
				{
					"internalType": "uint256",
					"name": "",
					"type": "uint256"
				}
			],
			"stateMutability": "nonpayable",
			"type": "function"
		},
		{
			"inputs": [],
			"name": "addressOfObject",
			"outputs": [
				{
					"internalType": "string",
					"name": "",
					"type": "string"
				}
			],
			"stateMutability": "view",
			"type": "function"
		},
		{
			"inputs": [],
			"name": "adminObject",
			"outputs": [
				{
					"internalType": "address",
					"name": "",
					"type": "address"
				}
			],
			"stateMutability": "view",
			"type": "function"
		},
		{
			"inputs": [
				{
					"internalType": "address",
					"name": "_approved",
					"type": "address"
				},
				{
					"internalType": "uint256",
					"name": "_tokenId",
					"type": "uint256"
				}
			],
			"name": "approve",
			"outputs": [],
			"stateMutability": "payable",
			"type": "function"
		},
		{
			"inputs": [
				{
					"internalType": "address",
					"name": "_owner",
					"type": "address"
				}
			],
			"name": "balanceOf",
			"outputs": [
				{
					"internalType": "uint256",
					"name": "balance",
					"type": "uint256"
				}
			],
			"stateMutability": "view",
			"type": "function"
		},
		{
			"inputs": [],
			"name": "decimals",
			"outputs": [
				{
					"internalType": "uint8",
					"name": "",
					"type": "uint8"
				}
			],
			"stateMutability": "pure",
			"type": "function"
		},
		{
			"inputs": [
				{
					"internalType": "uint256",
					"name": "_tokenId",
					"type": "uint256"
				}
			],
			"name": "getApproved",
			"outputs": [
				{
					"internalType": "address",
					"name": "_approved",
					"type": "address"
				}
			],
			"stateMutability": "view",
			"type": "function"
		},
		{
			"inputs": [
				{
					"internalType": "uint256",
					"name": "_tokenId",
					"type": "uint256"
				}
			],
			"name": "getRoom",
			"outputs": [
				{
					"internalType": "uint8",
					"name": "_floor",
					"type": "uint8"
				},
				{
					"internalType": "string",
					"name": "_nameRoom",
					"type": "string"
				},
				{
					"internalType": "string",
					"name": "_descriptionRoom",
					"type": "string"
				},
				{
					"internalType": "uint8",
					"name": "_square",
					"type": "uint8"
				}
			],
			"stateMutability": "view",
			"type": "function"
		},
		{
			"inputs": [
				{
					"internalType": "address",
					"name": "_owner",
					"type": "address"
				},
				{
					"internalType": "address",
					"name": "_approved",
					"type": "address"
				}
			],
			"name": "isApprovedForAll",
			"outputs": [
				{
					"internalType": "bool",
					"name": "",
					"type": "bool"
				}
			],
			"stateMutability": "view",
			"type": "function"
		},
		{
			"inputs": [],
			"name": "name",
			"outputs": [
				{
					"internalType": "string",
					"name": "",
					"type": "string"
				}
			],
			"stateMutability": "view",
			"type": "function"
		},
		{
			"inputs": [],
			"name": "ownerObject",
			"outputs": [
				{
					"internalType": "address",
					"name": "",
					"type": "address"
				}
			],
			"stateMutability": "view",
			"type": "function"
		},
		{
			"inputs": [
				{
					"internalType": "uint256",
					"name": "_tokenId",
					"type": "uint256"
				}
			],
			"name": "ownerOf",
			"outputs": [
				{
					"internalType": "address",
					"name": "_owner",
					"type": "address"
				}
			],
			"stateMutability": "view",
			"type": "function"
		},
		{
			"inputs": [
				{
					"internalType": "address",
					"name": "_adminObject",
					"type": "address"
				}
			],
			"name": "setAdministrator",
			"outputs": [],
			"stateMutability": "nonpayable",
			"type": "function"
		},
		{
			"inputs": [
				{
					"internalType": "address",
					"name": "_operator",
					"type": "address"
				},
				{
					"internalType": "bool",
					"name": "_approved",
					"type": "bool"
				}
			],
			"name": "setApprovalForAll",
			"outputs": [],
			"stateMutability": "nonpayable",
			"type": "function"
		},
		{
			"inputs": [],
			"name": "symbol",
			"outputs": [
				{
					"internalType": "string",
					"name": "",
					"type": "string"
				}
			],
			"stateMutability": "view",
			"type": "function"
		},
		{
			"inputs": [],
			"name": "totalSupply",
			"outputs": [
				{
					"internalType": "uint256",
					"name": "",
					"type": "uint256"
				}
			],
			"stateMutability": "view",
			"type": "function"
		},
		{
			"inputs": [
				{
					"internalType": "address",
					"name": "_from",
					"type": "address"
				},
				{
					"internalType": "address",
					"name": "_to",
					"type": "address"
				},
				{
					"internalType": "uint256",
					"name": "_tokenId",
					"type": "uint256"
				}
			],
			"name": "transferFrom",
			"outputs": [],
			"stateMutability": "payable",
			"type": "function"
		}
	]
}